{
	"contracts/FundMe.sol": {
		"FundMe": {
			"abi": [
				{
					"inputs": [],
					"stateMutability": "nonpayable",
					"type": "constructor"
				},
				{
					"inputs": [
						{
							"internalType": "address",
							"name": "funder",
							"type": "address"
						}
					],
					"name": "addressToAmountFunded",
					"outputs": [
						{
							"internalType": "uint256",
							"name": "amountFunded",
							"type": "uint256"
						}
					],
					"stateMutability": "view",
					"type": "function"
				},
				{
					"inputs": [],
					"name": "fund",
					"outputs": [],
					"stateMutability": "payable",
					"type": "function"
				},
				{
					"inputs": [
						{
							"internalType": "uint256",
							"name": "",
							"type": "uint256"
						}
					],
					"name": "funders",
					"outputs": [
						{
							"internalType": "address",
							"name": "",
							"type": "address"
						}
					],
					"stateMutability": "view",
					"type": "function"
				},
				{
					"inputs": [],
					"name": "owner",
					"outputs": [
						{
							"internalType": "address",
							"name": "",
							"type": "address"
						}
					],
					"stateMutability": "view",
					"type": "function"
				},
				{
					"inputs": [],
					"name": "withdraw",
					"outputs": [],
					"stateMutability": "nonpayable",
					"type": "function"
				}
			],
			"devdoc": {
				"kind": "dev",
				"methods": {},
				"version": 1
			},
			"evm": {
				"assembly": "    /* \"contracts/FundMe.sol\":123:1473  contract FundMe{... */\n  mstore(0x40, 0x80)\n    /* \"contracts/FundMe.sol\":209:210  5 */\n  0x05\n    /* \"contracts/FundMe.sol\":182:210  uint256 minFundAmountUSD = 5 */\n  0x00\n  sstore\n    /* \"contracts/FundMe.sol\":428:477  constructor (){... */\n  callvalue\n  dup1\n  iszero\n  tag_1\n  jumpi\n  0x00\n  dup1\n  revert\ntag_1:\n  pop\n    /* \"contracts/FundMe.sol\":460:470  msg.sender */\n  caller\n    /* \"contracts/FundMe.sol\":452:457  owner */\n  0x03\n  0x00\n    /* \"contracts/FundMe.sol\":452:470  owner = msg.sender */\n  0x0100\n  exp\n  dup2\n  sload\n  dup2\n  0xffffffffffffffffffffffffffffffffffffffff\n  mul\n  not\n  and\n  swap1\n  dup4\n  0xffffffffffffffffffffffffffffffffffffffff\n  and\n  mul\n  or\n  swap1\n  sstore\n  pop\n    /* \"contracts/FundMe.sol\":123:1473  contract FundMe{... */\n  dataSize(sub_0)\n  dup1\n  dataOffset(sub_0)\n  0x00\n  codecopy\n  0x00\n  return\nstop\n\nsub_0: assembly {\n        /* \"contracts/FundMe.sol\":123:1473  contract FundMe{... */\n      mstore(0x40, 0x80)\n      jumpi(tag_1, lt(calldatasize, 0x04))\n      shr(0xe0, calldataload(0x00))\n      dup1\n      0x3ccfd60b\n      eq\n      tag_2\n      jumpi\n      dup1\n      0x3e47d6f3\n      eq\n      tag_3\n      jumpi\n      dup1\n      0x8da5cb5b\n      eq\n      tag_4\n      jumpi\n      dup1\n      0xb60d4288\n      eq\n      tag_5\n      jumpi\n      dup1\n      0xdc0d3dff\n      eq\n      tag_6\n      jumpi\n    tag_1:\n      0x00\n      dup1\n      revert\n        /* \"contracts/FundMe.sol\":815:1239  function withdraw() public funderOnly {... */\n    tag_2:\n      callvalue\n      dup1\n      iszero\n      tag_7\n      jumpi\n      0x00\n      dup1\n      revert\n    tag_7:\n      pop\n      tag_8\n      tag_9\n      jump\t// in\n    tag_8:\n      stop\n        /* \"contracts/FundMe.sol\":319:395  mapping(address funder => uint256 amountFunded) public addressToAmountFunded */\n    tag_3:\n      callvalue\n      dup1\n      iszero\n      tag_10\n      jumpi\n      0x00\n      dup1\n      revert\n    tag_10:\n      pop\n      tag_11\n      0x04\n      dup1\n      calldatasize\n      sub\n      dup2\n      add\n      swap1\n      tag_12\n      swap2\n      swap1\n      tag_13\n      jump\t// in\n    tag_12:\n      tag_14\n      jump\t// in\n    tag_11:\n      mload(0x40)\n      tag_15\n      swap2\n      swap1\n      tag_16\n      jump\t// in\n    tag_15:\n      mload(0x40)\n      dup1\n      swap2\n      sub\n      swap1\n      return\n        /* \"contracts/FundMe.sol\":401:421  address public owner */\n    tag_4:\n      callvalue\n      dup1\n      iszero\n      tag_17\n      jumpi\n      0x00\n      dup1\n      revert\n    tag_17:\n      pop\n      tag_18\n      tag_19\n      jump\t// in\n    tag_18:\n      mload(0x40)\n      tag_20\n      swap2\n      swap1\n      tag_21\n      jump\t// in\n    tag_20:\n      mload(0x40)\n      dup1\n      swap2\n      sub\n      swap1\n      return\n        /* \"contracts/FundMe.sol\":483:809  function fund()  payable public{... */\n    tag_5:\n      tag_22\n      tag_23\n      jump\t// in\n    tag_22:\n      stop\n        /* \"contracts/FundMe.sol\":244:268  address[] public funders */\n    tag_6:\n      callvalue\n      dup1\n      iszero\n      tag_24\n      jumpi\n      0x00\n      dup1\n      revert\n    tag_24:\n      pop\n      tag_25\n      0x04\n      dup1\n      calldatasize\n      sub\n      dup2\n      add\n      swap1\n      tag_26\n      swap2\n      swap1\n      tag_27\n      jump\t// in\n    tag_26:\n      tag_28\n      jump\t// in\n    tag_25:\n      mload(0x40)\n      tag_29\n      swap2\n      swap1\n      tag_21\n      jump\t// in\n    tag_29:\n      mload(0x40)\n      dup1\n      swap2\n      sub\n      swap1\n      return\n        /* \"contracts/FundMe.sol\":815:1239  function withdraw() public funderOnly {... */\n    tag_9:\n        /* \"contracts/FundMe.sol\":1424:1425  0 */\n      0x00\n        /* \"contracts/FundMe.sol\":1388:1409  addressToAmountFunded */\n      0x02\n        /* \"contracts/FundMe.sol\":1388:1421  addressToAmountFunded[msg.sender] */\n      0x00\n        /* \"contracts/FundMe.sol\":1410:1420  msg.sender */\n      caller\n        /* \"contracts/FundMe.sol\":1388:1421  addressToAmountFunded[msg.sender] */\n      0xffffffffffffffffffffffffffffffffffffffff\n      and\n      0xffffffffffffffffffffffffffffffffffffffff\n      and\n      dup2\n      mstore\n      0x20\n      add\n      swap1\n      dup2\n      mstore\n      0x20\n      add\n      0x00\n      keccak256\n      sload\n        /* \"contracts/FundMe.sol\":1388:1425  addressToAmountFunded[msg.sender] > 0 */\n      gt\n        /* \"contracts/FundMe.sol\":1380:1459  require(addressToAmountFunded[msg.sender] > 0, \"You have no funds to withdraw\") */\n      tag_31\n      jumpi\n      mload(0x40)\n      0x08c379a000000000000000000000000000000000000000000000000000000000\n      dup2\n      mstore\n      0x04\n      add\n      tag_32\n      swap1\n      tag_33\n      jump\t// in\n    tag_32:\n      mload(0x40)\n      dup1\n      swap2\n      sub\n      swap1\n      revert\n    tag_31:\n        /* \"contracts/FundMe.sol\":907:927  uint256 fundedAmount */\n      0x00\n        /* \"contracts/FundMe.sol\":930:951  addressToAmountFunded */\n      0x02\n        /* \"contracts/FundMe.sol\":930:963  addressToAmountFunded[msg.sender] */\n      0x00\n        /* \"contracts/FundMe.sol\":952:962  msg.sender */\n      caller\n        /* \"contracts/FundMe.sol\":930:963  addressToAmountFunded[msg.sender] */\n      0xffffffffffffffffffffffffffffffffffffffff\n      and\n      0xffffffffffffffffffffffffffffffffffffffff\n      and\n      dup2\n      mstore\n      0x20\n      add\n      swap1\n      dup2\n      mstore\n      0x20\n      add\n      0x00\n      keccak256\n      sload\n        /* \"contracts/FundMe.sol\":907:963  uint256 fundedAmount = addressToAmountFunded[msg.sender] */\n      swap1\n      pop\n        /* \"contracts/FundMe.sol\":1058:1059  0 */\n      0x00\n        /* \"contracts/FundMe.sol\":1022:1043  addressToAmountFunded */\n      0x02\n        /* \"contracts/FundMe.sol\":1022:1055  addressToAmountFunded[msg.sender] */\n      0x00\n        /* \"contracts/FundMe.sol\":1044:1054  msg.sender */\n      caller\n        /* \"contracts/FundMe.sol\":1022:1055  addressToAmountFunded[msg.sender] */\n      0xffffffffffffffffffffffffffffffffffffffff\n      and\n      0xffffffffffffffffffffffffffffffffffffffff\n      and\n      dup2\n      mstore\n      0x20\n      add\n      swap1\n      dup2\n      mstore\n      0x20\n      add\n      0x00\n      keccak256\n        /* \"contracts/FundMe.sol\":1022:1059  addressToAmountFunded[msg.sender] = 0 */\n      dup2\n      swap1\n      sstore\n      pop\n        /* \"contracts/FundMe.sol\":1120:1132  bool success */\n      0x00\n        /* \"contracts/FundMe.sol\":1146:1156  msg.sender */\n      caller\n        /* \"contracts/FundMe.sol\":1138:1162  payable(msg.sender).call */\n      0xffffffffffffffffffffffffffffffffffffffff\n      and\n        /* \"contracts/FundMe.sol\":1170:1182  fundedAmount */\n      dup3\n        /* \"contracts/FundMe.sol\":1138:1187  payable(msg.sender).call{value: fundedAmount}(\"\") */\n      mload(0x40)\n      tag_35\n      swap1\n      tag_36\n      jump\t// in\n    tag_35:\n      0x00\n      mload(0x40)\n      dup1\n      dup4\n      sub\n      dup2\n      dup6\n      dup8\n      gas\n      call\n      swap3\n      pop\n      pop\n      pop\n      returndatasize\n      dup1\n      0x00\n      dup2\n      eq\n      tag_39\n      jumpi\n      mload(0x40)\n      swap2\n      pop\n      and(add(returndatasize, 0x3f), not(0x1f))\n      dup3\n      add\n      0x40\n      mstore\n      returndatasize\n      dup3\n      mstore\n      returndatasize\n      0x00\n      0x20\n      dup5\n      add\n      returndatacopy\n      jump(tag_38)\n    tag_39:\n      0x60\n      swap2\n      pop\n    tag_38:\n      pop\n        /* \"contracts/FundMe.sol\":1119:1187  (bool success, ) = payable(msg.sender).call{value: fundedAmount}(\"\") */\n      pop\n      swap1\n      pop\n        /* \"contracts/FundMe.sol\":1205:1212  success */\n      dup1\n        /* \"contracts/FundMe.sol\":1197:1232  require(success, \"Withdraw failed\") */\n      tag_40\n      jumpi\n      mload(0x40)\n      0x08c379a000000000000000000000000000000000000000000000000000000000\n      dup2\n      mstore\n      0x04\n      add\n      tag_41\n      swap1\n      tag_42\n      jump\t// in\n    tag_41:\n      mload(0x40)\n      dup1\n      swap2\n      sub\n      swap1\n      revert\n    tag_40:\n        /* \"contracts/FundMe.sol\":853:1239  {... */\n      pop\n      pop\n        /* \"contracts/FundMe.sol\":815:1239  function withdraw() public funderOnly {... */\n      jump\t// out\n        /* \"contracts/FundMe.sol\":319:395  mapping(address funder => uint256 amountFunded) public addressToAmountFunded */\n    tag_14:\n      mstore(0x20, 0x02)\n      dup1\n      0x00\n      mstore\n      keccak256(0x00, 0x40)\n      0x00\n      swap2\n      pop\n      swap1\n      pop\n      sload\n      dup2\n      jump\t// out\n        /* \"contracts/FundMe.sol\":401:421  address public owner */\n    tag_19:\n      0x03\n      0x00\n      swap1\n      sload\n      swap1\n      0x0100\n      exp\n      swap1\n      div\n      0xffffffffffffffffffffffffffffffffffffffff\n      and\n      dup2\n      jump\t// out\n        /* \"contracts/FundMe.sol\":483:809  function fund()  payable public{... */\n    tag_23:\n        /* \"contracts/FundMe.sol\":665:681  minFundAmountUSD */\n      sload(0x00)\n        /* \"contracts/FundMe.sol\":634:661  msg.value.getEthToUSDRate() */\n      tag_44\n        /* \"contracts/FundMe.sol\":634:643  msg.value */\n      callvalue\n        /* \"contracts/FundMe.sol\":634:659  msg.value.getEthToUSDRate */\n      tag_45\n        /* \"contracts/FundMe.sol\":634:661  msg.value.getEthToUSDRate() */\n      jump\t// in\n    tag_44:\n        /* \"contracts/FundMe.sol\":634:681  msg.value.getEthToUSDRate() >= minFundAmountUSD */\n      lt\n      iszero\n        /* \"contracts/FundMe.sol\":626:711  require(msg.value.getEthToUSDRate() >= minFundAmountUSD, \"Minimum required is 5 USD\") */\n      tag_46\n      jumpi\n      mload(0x40)\n      0x08c379a000000000000000000000000000000000000000000000000000000000\n      dup2\n      mstore\n      0x04\n      add\n      tag_47\n      swap1\n      tag_48\n      jump\t// in\n    tag_47:\n      mload(0x40)\n      dup1\n      swap2\n      sub\n      swap1\n      revert\n    tag_46:\n        /* \"contracts/FundMe.sol\":721:728  funders */\n      0x01\n        /* \"contracts/FundMe.sol\":734:744  msg.sender */\n      caller\n        /* \"contracts/FundMe.sol\":721:745  funders.push(msg.sender) */\n      swap1\n      dup1\n      0x01\n      dup2\n      sload\n      add\n      dup1\n      dup3\n      sstore\n      dup1\n      swap2\n      pop\n      pop\n      0x01\n      swap1\n      sub\n      swap1\n      0x00\n      mstore\n      keccak256(0x00, 0x20)\n      add\n      0x00\n      swap1\n      swap2\n      swap1\n      swap2\n      swap1\n      swap2\n      0x0100\n      exp\n      dup2\n      sload\n      dup2\n      0xffffffffffffffffffffffffffffffffffffffff\n      mul\n      not\n      and\n      swap1\n      dup4\n      0xffffffffffffffffffffffffffffffffffffffff\n      and\n      mul\n      or\n      swap1\n      sstore\n      pop\n        /* \"contracts/FundMe.sol\":792:801  msg.value */\n      callvalue\n        /* \"contracts/FundMe.sol\":755:776  addressToAmountFunded */\n      0x02\n        /* \"contracts/FundMe.sol\":755:788  addressToAmountFunded[msg.sender] */\n      0x00\n        /* \"contracts/FundMe.sol\":777:787  msg.sender */\n      caller\n        /* \"contracts/FundMe.sol\":755:788  addressToAmountFunded[msg.sender] */\n      0xffffffffffffffffffffffffffffffffffffffff\n      and\n      0xffffffffffffffffffffffffffffffffffffffff\n      and\n      dup2\n      mstore\n      0x20\n      add\n      swap1\n      dup2\n      mstore\n      0x20\n      add\n      0x00\n      keccak256\n      0x00\n        /* \"contracts/FundMe.sol\":755:801  addressToAmountFunded[msg.sender] += msg.value */\n      dup3\n      dup3\n      sload\n      tag_50\n      swap2\n      swap1\n      tag_51\n      jump\t// in\n    tag_50:\n      swap3\n      pop\n      pop\n      dup2\n      swap1\n      sstore\n      pop\n        /* \"contracts/FundMe.sol\":483:809  function fund()  payable public{... */\n      jump\t// out\n        /* \"contracts/FundMe.sol\":244:268  address[] public funders */\n    tag_28:\n      0x01\n      dup2\n      dup2\n      sload\n      dup2\n      lt\n      tag_52\n      jumpi\n      0x00\n      dup1\n      revert\n    tag_52:\n      swap1\n      0x00\n      mstore\n      keccak256(0x00, 0x20)\n      add\n      0x00\n      swap2\n      pop\n      sload\n      swap1\n      0x0100\n      exp\n      swap1\n      div\n      0xffffffffffffffffffffffffffffffffffffffff\n      and\n      dup2\n      jump\t// out\n        /* \"libraries/PriceConverter.sol\":717:936  function getEthToUSDRate(uint256 ethAmount) internal view returns(uint256){... */\n    tag_45:\n        /* \"libraries/PriceConverter.sol\":783:790  uint256 */\n      0x00\n        /* \"libraries/PriceConverter.sol\":804:820  uint256 ethPrice */\n      dup1\n        /* \"libraries/PriceConverter.sol\":824:837  getETHPrice() */\n      tag_55\n        /* \"libraries/PriceConverter.sol\":824:835  getETHPrice */\n      tag_56\n        /* \"libraries/PriceConverter.sol\":824:837  getETHPrice() */\n      jump\t// in\n    tag_55:\n        /* \"libraries/PriceConverter.sol\":804:837  uint256 ethPrice  = getETHPrice() */\n      swap1\n      pop\n        /* \"libraries/PriceConverter.sol\":848:864  uint256 ethToUSD */\n      0x00\n        /* \"libraries/PriceConverter.sol\":892:896  1e18 */\n      0x0de0b6b3a7640000\n        /* \"libraries/PriceConverter.sol\":879:888  ethAmount */\n      dup5\n        /* \"libraries/PriceConverter.sol\":868:876  ethPrice */\n      dup4\n        /* \"libraries/PriceConverter.sol\":868:888  ethPrice * ethAmount */\n      tag_57\n      swap2\n      swap1\n      tag_58\n      jump\t// in\n    tag_57:\n        /* \"libraries/PriceConverter.sol\":867:896  (ethPrice * ethAmount) / 1e18 */\n      tag_59\n      swap2\n      swap1\n      tag_60\n      jump\t// in\n    tag_59:\n        /* \"libraries/PriceConverter.sol\":848:896  uint256 ethToUSD = (ethPrice * ethAmount) / 1e18 */\n      swap1\n      pop\n        /* \"libraries/PriceConverter.sol\":914:922  ethToUSD */\n      dup1\n        /* \"libraries/PriceConverter.sol\":907:922  return ethToUSD */\n      swap3\n      pop\n      pop\n      pop\n        /* \"libraries/PriceConverter.sol\":717:936  function getEthToUSDRate(uint256 ethAmount) internal view returns(uint256){... */\n      swap2\n      swap1\n      pop\n      jump\t// out\n        /* \"libraries/PriceConverter.sol\":206:709  function getETHPrice() internal  view returns(uint256) {... */\n    tag_56:\n        /* \"libraries/PriceConverter.sol\":252:259  uint256 */\n      0x00\n        /* \"libraries/PriceConverter.sol\":351:377  AggregatorV3Interface temp */\n      dup1\n        /* \"libraries/PriceConverter.sol\":402:444  0x694AA1769357215DE4FAC081bf1f309aDC325306 */\n      0x694aa1769357215de4fac081bf1f309adc325306\n        /* \"libraries/PriceConverter.sol\":351:445  AggregatorV3Interface temp = AggregatorV3Interface(0x694AA1769357215DE4FAC081bf1f309aDC325306) */\n      swap1\n      pop\n        /* \"libraries/PriceConverter.sol\":506:515  int price */\n      0x00\n        /* \"libraries/PriceConverter.sol\":636:640  temp */\n      dup2\n        /* \"libraries/PriceConverter.sol\":636:656  temp.latestRoundData */\n      0xffffffffffffffffffffffffffffffffffffffff\n      and\n      0xfeaf968c\n        /* \"libraries/PriceConverter.sol\":636:658  temp.latestRoundData() */\n      mload(0x40)\n      dup2\n      0xffffffff\n      and\n      0xe0\n      shl\n      dup2\n      mstore\n      0x04\n      add\n      0xa0\n      mload(0x40)\n      dup1\n      dup4\n      sub\n      dup2\n      dup7\n      gas\n      staticcall\n      iszero\n      dup1\n      iszero\n      tag_63\n      jumpi\n      returndatasize\n      0x00\n      dup1\n      returndatacopy\n      revert(0x00, returndatasize)\n    tag_63:\n      pop\n      pop\n      pop\n      pop\n      mload(0x40)\n      returndatasize\n      not(0x1f)\n      0x1f\n      dup3\n      add\n      and\n      dup3\n      add\n      dup1\n      0x40\n      mstore\n      pop\n      dup2\n      add\n      swap1\n      tag_64\n      swap2\n      swap1\n      tag_65\n      jump\t// in\n    tag_64:\n        /* \"libraries/PriceConverter.sol\":456:658  (... */\n      pop\n      pop\n      pop\n      swap2\n      pop\n      pop\n        /* \"libraries/PriceConverter.sol\":694:698  1e10 */\n      0x02540be400\n        /* \"libraries/PriceConverter.sol\":687:692  price */\n      dup2\n        /* \"libraries/PriceConverter.sol\":687:698  price *1e10 */\n      tag_66\n      swap2\n      swap1\n      tag_67\n      jump\t// in\n    tag_66:\n        /* \"libraries/PriceConverter.sol\":672:699  return uint256(price *1e10) */\n      swap3\n      pop\n      pop\n      pop\n        /* \"libraries/PriceConverter.sol\":206:709  function getETHPrice() internal  view returns(uint256) {... */\n      swap1\n      jump\t// out\n        /* \"#utility.yul\":88:205   */\n    tag_69:\n        /* \"#utility.yul\":197:198   */\n      0x00\n        /* \"#utility.yul\":194:195   */\n      dup1\n        /* \"#utility.yul\":187:199   */\n      revert\n        /* \"#utility.yul\":334:460   */\n    tag_71:\n        /* \"#utility.yul\":371:378   */\n      0x00\n        /* \"#utility.yul\":411:453   */\n      0xffffffffffffffffffffffffffffffffffffffff\n        /* \"#utility.yul\":404:409   */\n      dup3\n        /* \"#utility.yul\":400:454   */\n      and\n        /* \"#utility.yul\":389:454   */\n      swap1\n      pop\n        /* \"#utility.yul\":334:460   */\n      swap2\n      swap1\n      pop\n      jump\t// out\n        /* \"#utility.yul\":466:562   */\n    tag_72:\n        /* \"#utility.yul\":503:510   */\n      0x00\n        /* \"#utility.yul\":532:556   */\n      tag_105\n        /* \"#utility.yul\":550:555   */\n      dup3\n        /* \"#utility.yul\":532:556   */\n      tag_71\n      jump\t// in\n    tag_105:\n        /* \"#utility.yul\":521:556   */\n      swap1\n      pop\n        /* \"#utility.yul\":466:562   */\n      swap2\n      swap1\n      pop\n      jump\t// out\n        /* \"#utility.yul\":568:690   */\n    tag_73:\n        /* \"#utility.yul\":641:665   */\n      tag_107\n        /* \"#utility.yul\":659:664   */\n      dup2\n        /* \"#utility.yul\":641:665   */\n      tag_72\n      jump\t// in\n    tag_107:\n        /* \"#utility.yul\":634:639   */\n      dup2\n        /* \"#utility.yul\":631:666   */\n      eq\n        /* \"#utility.yul\":621:684   */\n      tag_108\n      jumpi\n        /* \"#utility.yul\":680:681   */\n      0x00\n        /* \"#utility.yul\":677:678   */\n      dup1\n        /* \"#utility.yul\":670:682   */\n      revert\n        /* \"#utility.yul\":621:684   */\n    tag_108:\n        /* \"#utility.yul\":568:690   */\n      pop\n      jump\t// out\n        /* \"#utility.yul\":696:835   */\n    tag_74:\n        /* \"#utility.yul\":742:747   */\n      0x00\n        /* \"#utility.yul\":780:786   */\n      dup2\n        /* \"#utility.yul\":767:787   */\n      calldataload\n        /* \"#utility.yul\":758:787   */\n      swap1\n      pop\n        /* \"#utility.yul\":796:829   */\n      tag_110\n        /* \"#utility.yul\":823:828   */\n      dup2\n        /* \"#utility.yul\":796:829   */\n      tag_73\n      jump\t// in\n    tag_110:\n        /* \"#utility.yul\":696:835   */\n      swap3\n      swap2\n      pop\n      pop\n      jump\t// out\n        /* \"#utility.yul\":841:1170   */\n    tag_13:\n        /* \"#utility.yul\":900:906   */\n      0x00\n        /* \"#utility.yul\":949:951   */\n      0x20\n        /* \"#utility.yul\":937:946   */\n      dup3\n        /* \"#utility.yul\":928:935   */\n      dup5\n        /* \"#utility.yul\":924:947   */\n      sub\n        /* \"#utility.yul\":920:952   */\n      slt\n        /* \"#utility.yul\":917:1036   */\n      iszero\n      tag_112\n      jumpi\n        /* \"#utility.yul\":955:1034   */\n      tag_113\n      tag_69\n      jump\t// in\n    tag_113:\n        /* \"#utility.yul\":917:1036   */\n    tag_112:\n        /* \"#utility.yul\":1075:1076   */\n      0x00\n        /* \"#utility.yul\":1100:1153   */\n      tag_114\n        /* \"#utility.yul\":1145:1152   */\n      dup5\n        /* \"#utility.yul\":1136:1142   */\n      dup3\n        /* \"#utility.yul\":1125:1134   */\n      dup6\n        /* \"#utility.yul\":1121:1143   */\n      add\n        /* \"#utility.yul\":1100:1153   */\n      tag_74\n      jump\t// in\n    tag_114:\n        /* \"#utility.yul\":1090:1153   */\n      swap2\n      pop\n        /* \"#utility.yul\":1046:1163   */\n      pop\n        /* \"#utility.yul\":841:1170   */\n      swap3\n      swap2\n      pop\n      pop\n      jump\t// out\n        /* \"#utility.yul\":1176:1253   */\n    tag_75:\n        /* \"#utility.yul\":1213:1220   */\n      0x00\n        /* \"#utility.yul\":1242:1247   */\n      dup2\n        /* \"#utility.yul\":1231:1247   */\n      swap1\n      pop\n        /* \"#utility.yul\":1176:1253   */\n      swap2\n      swap1\n      pop\n      jump\t// out\n        /* \"#utility.yul\":1259:1377   */\n    tag_76:\n        /* \"#utility.yul\":1346:1370   */\n      tag_117\n        /* \"#utility.yul\":1364:1369   */\n      dup2\n        /* \"#utility.yul\":1346:1370   */\n      tag_75\n      jump\t// in\n    tag_117:\n        /* \"#utility.yul\":1341:1344   */\n      dup3\n        /* \"#utility.yul\":1334:1371   */\n      mstore\n        /* \"#utility.yul\":1259:1377   */\n      pop\n      pop\n      jump\t// out\n        /* \"#utility.yul\":1383:1605   */\n    tag_16:\n        /* \"#utility.yul\":1476:1480   */\n      0x00\n        /* \"#utility.yul\":1514:1516   */\n      0x20\n        /* \"#utility.yul\":1503:1512   */\n      dup3\n        /* \"#utility.yul\":1499:1517   */\n      add\n        /* \"#utility.yul\":1491:1517   */\n      swap1\n      pop\n        /* \"#utility.yul\":1527:1598   */\n      tag_119\n        /* \"#utility.yul\":1595:1596   */\n      0x00\n        /* \"#utility.yul\":1584:1593   */\n      dup4\n        /* \"#utility.yul\":1580:1597   */\n      add\n        /* \"#utility.yul\":1571:1577   */\n      dup5\n        /* \"#utility.yul\":1527:1598   */\n      tag_76\n      jump\t// in\n    tag_119:\n        /* \"#utility.yul\":1383:1605   */\n      swap3\n      swap2\n      pop\n      pop\n      jump\t// out\n        /* \"#utility.yul\":1611:1729   */\n    tag_77:\n        /* \"#utility.yul\":1698:1722   */\n      tag_121\n        /* \"#utility.yul\":1716:1721   */\n      dup2\n        /* \"#utility.yul\":1698:1722   */\n      tag_72\n      jump\t// in\n    tag_121:\n        /* \"#utility.yul\":1693:1696   */\n      dup3\n        /* \"#utility.yul\":1686:1723   */\n      mstore\n        /* \"#utility.yul\":1611:1729   */\n      pop\n      pop\n      jump\t// out\n        /* \"#utility.yul\":1735:1957   */\n    tag_21:\n        /* \"#utility.yul\":1828:1832   */\n      0x00\n        /* \"#utility.yul\":1866:1868   */\n      0x20\n        /* \"#utility.yul\":1855:1864   */\n      dup3\n        /* \"#utility.yul\":1851:1869   */\n      add\n        /* \"#utility.yul\":1843:1869   */\n      swap1\n      pop\n        /* \"#utility.yul\":1879:1950   */\n      tag_123\n        /* \"#utility.yul\":1947:1948   */\n      0x00\n        /* \"#utility.yul\":1936:1945   */\n      dup4\n        /* \"#utility.yul\":1932:1949   */\n      add\n        /* \"#utility.yul\":1923:1929   */\n      dup5\n        /* \"#utility.yul\":1879:1950   */\n      tag_77\n      jump\t// in\n    tag_123:\n        /* \"#utility.yul\":1735:1957   */\n      swap3\n      swap2\n      pop\n      pop\n      jump\t// out\n        /* \"#utility.yul\":1963:2085   */\n    tag_78:\n        /* \"#utility.yul\":2036:2060   */\n      tag_125\n        /* \"#utility.yul\":2054:2059   */\n      dup2\n        /* \"#utility.yul\":2036:2060   */\n      tag_75\n      jump\t// in\n    tag_125:\n        /* \"#utility.yul\":2029:2034   */\n      dup2\n        /* \"#utility.yul\":2026:2061   */\n      eq\n        /* \"#utility.yul\":2016:2079   */\n      tag_126\n      jumpi\n        /* \"#utility.yul\":2075:2076   */\n      0x00\n        /* \"#utility.yul\":2072:2073   */\n      dup1\n        /* \"#utility.yul\":2065:2077   */\n      revert\n        /* \"#utility.yul\":2016:2079   */\n    tag_126:\n        /* \"#utility.yul\":1963:2085   */\n      pop\n      jump\t// out\n        /* \"#utility.yul\":2091:2230   */\n    tag_79:\n        /* \"#utility.yul\":2137:2142   */\n      0x00\n        /* \"#utility.yul\":2175:2181   */\n      dup2\n        /* \"#utility.yul\":2162:2182   */\n      calldataload\n        /* \"#utility.yul\":2153:2182   */\n      swap1\n      pop\n        /* \"#utility.yul\":2191:2224   */\n      tag_128\n        /* \"#utility.yul\":2218:2223   */\n      dup2\n        /* \"#utility.yul\":2191:2224   */\n      tag_78\n      jump\t// in\n    tag_128:\n        /* \"#utility.yul\":2091:2230   */\n      swap3\n      swap2\n      pop\n      pop\n      jump\t// out\n        /* \"#utility.yul\":2236:2565   */\n    tag_27:\n        /* \"#utility.yul\":2295:2301   */\n      0x00\n        /* \"#utility.yul\":2344:2346   */\n      0x20\n        /* \"#utility.yul\":2332:2341   */\n      dup3\n        /* \"#utility.yul\":2323:2330   */\n      dup5\n        /* \"#utility.yul\":2319:2342   */\n      sub\n        /* \"#utility.yul\":2315:2347   */\n      slt\n        /* \"#utility.yul\":2312:2431   */\n      iszero\n      tag_130\n      jumpi\n        /* \"#utility.yul\":2350:2429   */\n      tag_131\n      tag_69\n      jump\t// in\n    tag_131:\n        /* \"#utility.yul\":2312:2431   */\n    tag_130:\n        /* \"#utility.yul\":2470:2471   */\n      0x00\n        /* \"#utility.yul\":2495:2548   */\n      tag_132\n        /* \"#utility.yul\":2540:2547   */\n      dup5\n        /* \"#utility.yul\":2531:2537   */\n      dup3\n        /* \"#utility.yul\":2520:2529   */\n      dup6\n        /* \"#utility.yul\":2516:2538   */\n      add\n        /* \"#utility.yul\":2495:2548   */\n      tag_79\n      jump\t// in\n    tag_132:\n        /* \"#utility.yul\":2485:2548   */\n      swap2\n      pop\n        /* \"#utility.yul\":2441:2558   */\n      pop\n        /* \"#utility.yul\":2236:2565   */\n      swap3\n      swap2\n      pop\n      pop\n      jump\t// out\n        /* \"#utility.yul\":2571:2740   */\n    tag_80:\n        /* \"#utility.yul\":2655:2666   */\n      0x00\n        /* \"#utility.yul\":2689:2695   */\n      dup3\n        /* \"#utility.yul\":2684:2687   */\n      dup3\n        /* \"#utility.yul\":2677:2696   */\n      mstore\n        /* \"#utility.yul\":2729:2733   */\n      0x20\n        /* \"#utility.yul\":2724:2727   */\n      dup3\n        /* \"#utility.yul\":2720:2734   */\n      add\n        /* \"#utility.yul\":2705:2734   */\n      swap1\n      pop\n        /* \"#utility.yul\":2571:2740   */\n      swap3\n      swap2\n      pop\n      pop\n      jump\t// out\n        /* \"#utility.yul\":2746:2925   */\n    tag_81:\n        /* \"#utility.yul\":2886:2917   */\n      0x596f752068617665206e6f2066756e647320746f207769746864726177000000\n        /* \"#utility.yul\":2882:2883   */\n      0x00\n        /* \"#utility.yul\":2874:2880   */\n      dup3\n        /* \"#utility.yul\":2870:2884   */\n      add\n        /* \"#utility.yul\":2863:2918   */\n      mstore\n        /* \"#utility.yul\":2746:2925   */\n      pop\n      jump\t// out\n        /* \"#utility.yul\":2931:3297   */\n    tag_82:\n        /* \"#utility.yul\":3073:3076   */\n      0x00\n        /* \"#utility.yul\":3094:3161   */\n      tag_136\n        /* \"#utility.yul\":3158:3160   */\n      0x1d\n        /* \"#utility.yul\":3153:3156   */\n      dup4\n        /* \"#utility.yul\":3094:3161   */\n      tag_80\n      jump\t// in\n    tag_136:\n        /* \"#utility.yul\":3087:3161   */\n      swap2\n      pop\n        /* \"#utility.yul\":3170:3263   */\n      tag_137\n        /* \"#utility.yul\":3259:3262   */\n      dup3\n        /* \"#utility.yul\":3170:3263   */\n      tag_81\n      jump\t// in\n    tag_137:\n        /* \"#utility.yul\":3288:3290   */\n      0x20\n        /* \"#utility.yul\":3283:3286   */\n      dup3\n        /* \"#utility.yul\":3279:3291   */\n      add\n        /* \"#utility.yul\":3272:3291   */\n      swap1\n      pop\n        /* \"#utility.yul\":2931:3297   */\n      swap2\n      swap1\n      pop\n      jump\t// out\n        /* \"#utility.yul\":3303:3722   */\n    tag_33:\n        /* \"#utility.yul\":3469:3473   */\n      0x00\n        /* \"#utility.yul\":3507:3509   */\n      0x20\n        /* \"#utility.yul\":3496:3505   */\n      dup3\n        /* \"#utility.yul\":3492:3510   */\n      add\n        /* \"#utility.yul\":3484:3510   */\n      swap1\n      pop\n        /* \"#utility.yul\":3556:3565   */\n      dup2\n        /* \"#utility.yul\":3550:3554   */\n      dup2\n        /* \"#utility.yul\":3546:3566   */\n      sub\n        /* \"#utility.yul\":3542:3543   */\n      0x00\n        /* \"#utility.yul\":3531:3540   */\n      dup4\n        /* \"#utility.yul\":3527:3544   */\n      add\n        /* \"#utility.yul\":3520:3567   */\n      mstore\n        /* \"#utility.yul\":3584:3715   */\n      tag_139\n        /* \"#utility.yul\":3710:3714   */\n      dup2\n        /* \"#utility.yul\":3584:3715   */\n      tag_82\n      jump\t// in\n    tag_139:\n        /* \"#utility.yul\":3576:3715   */\n      swap1\n      pop\n        /* \"#utility.yul\":3303:3722   */\n      swap2\n      swap1\n      pop\n      jump\t// out\n        /* \"#utility.yul\":3728:3875   */\n    tag_83:\n        /* \"#utility.yul\":3829:3840   */\n      0x00\n        /* \"#utility.yul\":3866:3869   */\n      dup2\n        /* \"#utility.yul\":3851:3869   */\n      swap1\n      pop\n        /* \"#utility.yul\":3728:3875   */\n      swap3\n      swap2\n      pop\n      pop\n      jump\t// out\n        /* \"#utility.yul\":3881:3995   */\n    tag_84:\n      pop\n      jump\t// out\n        /* \"#utility.yul\":4001:4399   */\n    tag_85:\n        /* \"#utility.yul\":4160:4163   */\n      0x00\n        /* \"#utility.yul\":4181:4264   */\n      tag_143\n        /* \"#utility.yul\":4262:4263   */\n      0x00\n        /* \"#utility.yul\":4257:4260   */\n      dup4\n        /* \"#utility.yul\":4181:4264   */\n      tag_83\n      jump\t// in\n    tag_143:\n        /* \"#utility.yul\":4174:4264   */\n      swap2\n      pop\n        /* \"#utility.yul\":4273:4366   */\n      tag_144\n        /* \"#utility.yul\":4362:4365   */\n      dup3\n        /* \"#utility.yul\":4273:4366   */\n      tag_84\n      jump\t// in\n    tag_144:\n        /* \"#utility.yul\":4391:4392   */\n      0x00\n        /* \"#utility.yul\":4386:4389   */\n      dup3\n        /* \"#utility.yul\":4382:4393   */\n      add\n        /* \"#utility.yul\":4375:4393   */\n      swap1\n      pop\n        /* \"#utility.yul\":4001:4399   */\n      swap2\n      swap1\n      pop\n      jump\t// out\n        /* \"#utility.yul\":4405:4784   */\n    tag_36:\n        /* \"#utility.yul\":4589:4592   */\n      0x00\n        /* \"#utility.yul\":4611:4758   */\n      tag_146\n        /* \"#utility.yul\":4754:4757   */\n      dup3\n        /* \"#utility.yul\":4611:4758   */\n      tag_85\n      jump\t// in\n    tag_146:\n        /* \"#utility.yul\":4604:4758   */\n      swap2\n      pop\n        /* \"#utility.yul\":4775:4778   */\n      dup2\n        /* \"#utility.yul\":4768:4778   */\n      swap1\n      pop\n        /* \"#utility.yul\":4405:4784   */\n      swap2\n      swap1\n      pop\n      jump\t// out\n        /* \"#utility.yul\":4790:4955   */\n    tag_86:\n        /* \"#utility.yul\":4930:4947   */\n      0x5769746864726177206661696c65640000000000000000000000000000000000\n        /* \"#utility.yul\":4926:4927   */\n      0x00\n        /* \"#utility.yul\":4918:4924   */\n      dup3\n        /* \"#utility.yul\":4914:4928   */\n      add\n        /* \"#utility.yul\":4907:4948   */\n      mstore\n        /* \"#utility.yul\":4790:4955   */\n      pop\n      jump\t// out\n        /* \"#utility.yul\":4961:5327   */\n    tag_87:\n        /* \"#utility.yul\":5103:5106   */\n      0x00\n        /* \"#utility.yul\":5124:5191   */\n      tag_149\n        /* \"#utility.yul\":5188:5190   */\n      0x0f\n        /* \"#utility.yul\":5183:5186   */\n      dup4\n        /* \"#utility.yul\":5124:5191   */\n      tag_80\n      jump\t// in\n    tag_149:\n        /* \"#utility.yul\":5117:5191   */\n      swap2\n      pop\n        /* \"#utility.yul\":5200:5293   */\n      tag_150\n        /* \"#utility.yul\":5289:5292   */\n      dup3\n        /* \"#utility.yul\":5200:5293   */\n      tag_86\n      jump\t// in\n    tag_150:\n        /* \"#utility.yul\":5318:5320   */\n      0x20\n        /* \"#utility.yul\":5313:5316   */\n      dup3\n        /* \"#utility.yul\":5309:5321   */\n      add\n        /* \"#utility.yul\":5302:5321   */\n      swap1\n      pop\n        /* \"#utility.yul\":4961:5327   */\n      swap2\n      swap1\n      pop\n      jump\t// out\n        /* \"#utility.yul\":5333:5752   */\n    tag_42:\n        /* \"#utility.yul\":5499:5503   */\n      0x00\n        /* \"#utility.yul\":5537:5539   */\n      0x20\n        /* \"#utility.yul\":5526:5535   */\n      dup3\n        /* \"#utility.yul\":5522:5540   */\n      add\n        /* \"#utility.yul\":5514:5540   */\n      swap1\n      pop\n        /* \"#utility.yul\":5586:5595   */\n      dup2\n        /* \"#utility.yul\":5580:5584   */\n      dup2\n        /* \"#utility.yul\":5576:5596   */\n      sub\n        /* \"#utility.yul\":5572:5573   */\n      0x00\n        /* \"#utility.yul\":5561:5570   */\n      dup4\n        /* \"#utility.yul\":5557:5574   */\n      add\n        /* \"#utility.yul\":5550:5597   */\n      mstore\n        /* \"#utility.yul\":5614:5745   */\n      tag_152\n        /* \"#utility.yul\":5740:5744   */\n      dup2\n        /* \"#utility.yul\":5614:5745   */\n      tag_87\n      jump\t// in\n    tag_152:\n        /* \"#utility.yul\":5606:5745   */\n      swap1\n      pop\n        /* \"#utility.yul\":5333:5752   */\n      swap2\n      swap1\n      pop\n      jump\t// out\n        /* \"#utility.yul\":5758:5933   */\n    tag_88:\n        /* \"#utility.yul\":5898:5925   */\n      0x4d696e696d756d20726571756972656420697320352055534400000000000000\n        /* \"#utility.yul\":5894:5895   */\n      0x00\n        /* \"#utility.yul\":5886:5892   */\n      dup3\n        /* \"#utility.yul\":5882:5896   */\n      add\n        /* \"#utility.yul\":5875:5926   */\n      mstore\n        /* \"#utility.yul\":5758:5933   */\n      pop\n      jump\t// out\n        /* \"#utility.yul\":5939:6305   */\n    tag_89:\n        /* \"#utility.yul\":6081:6084   */\n      0x00\n        /* \"#utility.yul\":6102:6169   */\n      tag_155\n        /* \"#utility.yul\":6166:6168   */\n      0x19\n        /* \"#utility.yul\":6161:6164   */\n      dup4\n        /* \"#utility.yul\":6102:6169   */\n      tag_80\n      jump\t// in\n    tag_155:\n        /* \"#utility.yul\":6095:6169   */\n      swap2\n      pop\n        /* \"#utility.yul\":6178:6271   */\n      tag_156\n        /* \"#utility.yul\":6267:6270   */\n      dup3\n        /* \"#utility.yul\":6178:6271   */\n      tag_88\n      jump\t// in\n    tag_156:\n        /* \"#utility.yul\":6296:6298   */\n      0x20\n        /* \"#utility.yul\":6291:6294   */\n      dup3\n        /* \"#utility.yul\":6287:6299   */\n      add\n        /* \"#utility.yul\":6280:6299   */\n      swap1\n      pop\n        /* \"#utility.yul\":5939:6305   */\n      swap2\n      swap1\n      pop\n      jump\t// out\n        /* \"#utility.yul\":6311:6730   */\n    tag_48:\n        /* \"#utility.yul\":6477:6481   */\n      0x00\n        /* \"#utility.yul\":6515:6517   */\n      0x20\n        /* \"#utility.yul\":6504:6513   */\n      dup3\n        /* \"#utility.yul\":6500:6518   */\n      add\n        /* \"#utility.yul\":6492:6518   */\n      swap1\n      pop\n        /* \"#utility.yul\":6564:6573   */\n      dup2\n        /* \"#utility.yul\":6558:6562   */\n      dup2\n        /* \"#utility.yul\":6554:6574   */\n      sub\n        /* \"#utility.yul\":6550:6551   */\n      0x00\n        /* \"#utility.yul\":6539:6548   */\n      dup4\n        /* \"#utility.yul\":6535:6552   */\n      add\n        /* \"#utility.yul\":6528:6575   */\n      mstore\n        /* \"#utility.yul\":6592:6723   */\n      tag_158\n        /* \"#utility.yul\":6718:6722   */\n      dup2\n        /* \"#utility.yul\":6592:6723   */\n      tag_89\n      jump\t// in\n    tag_158:\n        /* \"#utility.yul\":6584:6723   */\n      swap1\n      pop\n        /* \"#utility.yul\":6311:6730   */\n      swap2\n      swap1\n      pop\n      jump\t// out\n        /* \"#utility.yul\":6736:6916   */\n    tag_90:\n        /* \"#utility.yul\":6784:6861   */\n      0x4e487b7100000000000000000000000000000000000000000000000000000000\n        /* \"#utility.yul\":6781:6782   */\n      0x00\n        /* \"#utility.yul\":6774:6862   */\n      mstore\n        /* \"#utility.yul\":6881:6885   */\n      0x11\n        /* \"#utility.yul\":6878:6879   */\n      0x04\n        /* \"#utility.yul\":6871:6886   */\n      mstore\n        /* \"#utility.yul\":6905:6909   */\n      0x24\n        /* \"#utility.yul\":6902:6903   */\n      0x00\n        /* \"#utility.yul\":6895:6910   */\n      revert\n        /* \"#utility.yul\":6922:7113   */\n    tag_51:\n        /* \"#utility.yul\":6962:6965   */\n      0x00\n        /* \"#utility.yul\":6981:7001   */\n      tag_161\n        /* \"#utility.yul\":6999:7000   */\n      dup3\n        /* \"#utility.yul\":6981:7001   */\n      tag_75\n      jump\t// in\n    tag_161:\n        /* \"#utility.yul\":6976:7001   */\n      swap2\n      pop\n        /* \"#utility.yul\":7015:7035   */\n      tag_162\n        /* \"#utility.yul\":7033:7034   */\n      dup4\n        /* \"#utility.yul\":7015:7035   */\n      tag_75\n      jump\t// in\n    tag_162:\n        /* \"#utility.yul\":7010:7035   */\n      swap3\n      pop\n        /* \"#utility.yul\":7058:7059   */\n      dup3\n        /* \"#utility.yul\":7055:7056   */\n      dup3\n        /* \"#utility.yul\":7051:7060   */\n      add\n        /* \"#utility.yul\":7044:7060   */\n      swap1\n      pop\n        /* \"#utility.yul\":7079:7082   */\n      dup1\n        /* \"#utility.yul\":7076:7077   */\n      dup3\n        /* \"#utility.yul\":7073:7083   */\n      gt\n        /* \"#utility.yul\":7070:7106   */\n      iszero\n      tag_163\n      jumpi\n        /* \"#utility.yul\":7086:7104   */\n      tag_164\n      tag_90\n      jump\t// in\n    tag_164:\n        /* \"#utility.yul\":7070:7106   */\n    tag_163:\n        /* \"#utility.yul\":6922:7113   */\n      swap3\n      swap2\n      pop\n      pop\n      jump\t// out\n        /* \"#utility.yul\":7119:7529   */\n    tag_58:\n        /* \"#utility.yul\":7159:7166   */\n      0x00\n        /* \"#utility.yul\":7182:7202   */\n      tag_166\n        /* \"#utility.yul\":7200:7201   */\n      dup3\n        /* \"#utility.yul\":7182:7202   */\n      tag_75\n      jump\t// in\n    tag_166:\n        /* \"#utility.yul\":7177:7202   */\n      swap2\n      pop\n        /* \"#utility.yul\":7216:7236   */\n      tag_167\n        /* \"#utility.yul\":7234:7235   */\n      dup4\n        /* \"#utility.yul\":7216:7236   */\n      tag_75\n      jump\t// in\n    tag_167:\n        /* \"#utility.yul\":7211:7236   */\n      swap3\n      pop\n        /* \"#utility.yul\":7271:7272   */\n      dup3\n        /* \"#utility.yul\":7268:7269   */\n      dup3\n        /* \"#utility.yul\":7264:7273   */\n      mul\n        /* \"#utility.yul\":7293:7323   */\n      tag_168\n        /* \"#utility.yul\":7311:7322   */\n      dup2\n        /* \"#utility.yul\":7293:7323   */\n      tag_75\n      jump\t// in\n    tag_168:\n        /* \"#utility.yul\":7282:7323   */\n      swap2\n      pop\n        /* \"#utility.yul\":7472:7473   */\n      dup3\n        /* \"#utility.yul\":7463:7470   */\n      dup3\n        /* \"#utility.yul\":7459:7474   */\n      div\n        /* \"#utility.yul\":7456:7457   */\n      dup5\n        /* \"#utility.yul\":7453:7475   */\n      eq\n        /* \"#utility.yul\":7433:7434   */\n      dup4\n        /* \"#utility.yul\":7426:7435   */\n      iszero\n        /* \"#utility.yul\":7406:7489   */\n      or\n        /* \"#utility.yul\":7383:7522   */\n      tag_169\n      jumpi\n        /* \"#utility.yul\":7502:7520   */\n      tag_170\n      tag_90\n      jump\t// in\n    tag_170:\n        /* \"#utility.yul\":7383:7522   */\n    tag_169:\n        /* \"#utility.yul\":7167:7529   */\n      pop\n        /* \"#utility.yul\":7119:7529   */\n      swap3\n      swap2\n      pop\n      pop\n      jump\t// out\n        /* \"#utility.yul\":7535:7715   */\n    tag_91:\n        /* \"#utility.yul\":7583:7660   */\n      0x4e487b7100000000000000000000000000000000000000000000000000000000\n        /* \"#utility.yul\":7580:7581   */\n      0x00\n        /* \"#utility.yul\":7573:7661   */\n      mstore\n        /* \"#utility.yul\":7680:7684   */\n      0x12\n        /* \"#utility.yul\":7677:7678   */\n      0x04\n        /* \"#utility.yul\":7670:7685   */\n      mstore\n        /* \"#utility.yul\":7704:7708   */\n      0x24\n        /* \"#utility.yul\":7701:7702   */\n      0x00\n        /* \"#utility.yul\":7694:7709   */\n      revert\n        /* \"#utility.yul\":7721:7906   */\n    tag_60:\n        /* \"#utility.yul\":7761:7762   */\n      0x00\n        /* \"#utility.yul\":7778:7798   */\n      tag_173\n        /* \"#utility.yul\":7796:7797   */\n      dup3\n        /* \"#utility.yul\":7778:7798   */\n      tag_75\n      jump\t// in\n    tag_173:\n        /* \"#utility.yul\":7773:7798   */\n      swap2\n      pop\n        /* \"#utility.yul\":7812:7832   */\n      tag_174\n        /* \"#utility.yul\":7830:7831   */\n      dup4\n        /* \"#utility.yul\":7812:7832   */\n      tag_75\n      jump\t// in\n    tag_174:\n        /* \"#utility.yul\":7807:7832   */\n      swap3\n      pop\n        /* \"#utility.yul\":7851:7852   */\n      dup3\n        /* \"#utility.yul\":7841:7876   */\n      tag_175\n      jumpi\n        /* \"#utility.yul\":7856:7874   */\n      tag_176\n      tag_91\n      jump\t// in\n    tag_176:\n        /* \"#utility.yul\":7841:7876   */\n    tag_175:\n        /* \"#utility.yul\":7898:7899   */\n      dup3\n        /* \"#utility.yul\":7895:7896   */\n      dup3\n        /* \"#utility.yul\":7891:7900   */\n      div\n        /* \"#utility.yul\":7886:7900   */\n      swap1\n      pop\n        /* \"#utility.yul\":7721:7906   */\n      swap3\n      swap2\n      pop\n      pop\n      jump\t// out\n        /* \"#utility.yul\":7912:8017   */\n    tag_92:\n        /* \"#utility.yul\":7948:7955   */\n      0x00\n        /* \"#utility.yul\":7988:8010   */\n      0xffffffffffffffffffff\n        /* \"#utility.yul\":7981:7986   */\n      dup3\n        /* \"#utility.yul\":7977:8011   */\n      and\n        /* \"#utility.yul\":7966:8011   */\n      swap1\n      pop\n        /* \"#utility.yul\":7912:8017   */\n      swap2\n      swap1\n      pop\n      jump\t// out\n        /* \"#utility.yul\":8023:8143   */\n    tag_93:\n        /* \"#utility.yul\":8095:8118   */\n      tag_179\n        /* \"#utility.yul\":8112:8117   */\n      dup2\n        /* \"#utility.yul\":8095:8118   */\n      tag_92\n      jump\t// in\n    tag_179:\n        /* \"#utility.yul\":8088:8093   */\n      dup2\n        /* \"#utility.yul\":8085:8119   */\n      eq\n        /* \"#utility.yul\":8075:8137   */\n      tag_180\n      jumpi\n        /* \"#utility.yul\":8133:8134   */\n      0x00\n        /* \"#utility.yul\":8130:8131   */\n      dup1\n        /* \"#utility.yul\":8123:8135   */\n      revert\n        /* \"#utility.yul\":8075:8137   */\n    tag_180:\n        /* \"#utility.yul\":8023:8143   */\n      pop\n      jump\t// out\n        /* \"#utility.yul\":8149:8290   */\n    tag_94:\n        /* \"#utility.yul\":8205:8210   */\n      0x00\n        /* \"#utility.yul\":8236:8242   */\n      dup2\n        /* \"#utility.yul\":8230:8243   */\n      mload\n        /* \"#utility.yul\":8221:8243   */\n      swap1\n      pop\n        /* \"#utility.yul\":8252:8284   */\n      tag_182\n        /* \"#utility.yul\":8278:8283   */\n      dup2\n        /* \"#utility.yul\":8252:8284   */\n      tag_93\n      jump\t// in\n    tag_182:\n        /* \"#utility.yul\":8149:8290   */\n      swap3\n      swap2\n      pop\n      pop\n      jump\t// out\n        /* \"#utility.yul\":8296:8372   */\n    tag_95:\n        /* \"#utility.yul\":8332:8339   */\n      0x00\n        /* \"#utility.yul\":8361:8366   */\n      dup2\n        /* \"#utility.yul\":8350:8366   */\n      swap1\n      pop\n        /* \"#utility.yul\":8296:8372   */\n      swap2\n      swap1\n      pop\n      jump\t// out\n        /* \"#utility.yul\":8378:8498   */\n    tag_96:\n        /* \"#utility.yul\":8450:8473   */\n      tag_185\n        /* \"#utility.yul\":8467:8472   */\n      dup2\n        /* \"#utility.yul\":8450:8473   */\n      tag_95\n      jump\t// in\n    tag_185:\n        /* \"#utility.yul\":8443:8448   */\n      dup2\n        /* \"#utility.yul\":8440:8474   */\n      eq\n        /* \"#utility.yul\":8430:8492   */\n      tag_186\n      jumpi\n        /* \"#utility.yul\":8488:8489   */\n      0x00\n        /* \"#utility.yul\":8485:8486   */\n      dup1\n        /* \"#utility.yul\":8478:8490   */\n      revert\n        /* \"#utility.yul\":8430:8492   */\n    tag_186:\n        /* \"#utility.yul\":8378:8498   */\n      pop\n      jump\t// out\n        /* \"#utility.yul\":8504:8645   */\n    tag_97:\n        /* \"#utility.yul\":8560:8565   */\n      0x00\n        /* \"#utility.yul\":8591:8597   */\n      dup2\n        /* \"#utility.yul\":8585:8598   */\n      mload\n        /* \"#utility.yul\":8576:8598   */\n      swap1\n      pop\n        /* \"#utility.yul\":8607:8639   */\n      tag_188\n        /* \"#utility.yul\":8633:8638   */\n      dup2\n        /* \"#utility.yul\":8607:8639   */\n      tag_96\n      jump\t// in\n    tag_188:\n        /* \"#utility.yul\":8504:8645   */\n      swap3\n      swap2\n      pop\n      pop\n      jump\t// out\n        /* \"#utility.yul\":8651:8794   */\n    tag_98:\n        /* \"#utility.yul\":8708:8713   */\n      0x00\n        /* \"#utility.yul\":8739:8745   */\n      dup2\n        /* \"#utility.yul\":8733:8746   */\n      mload\n        /* \"#utility.yul\":8724:8746   */\n      swap1\n      pop\n        /* \"#utility.yul\":8755:8788   */\n      tag_190\n        /* \"#utility.yul\":8782:8787   */\n      dup2\n        /* \"#utility.yul\":8755:8788   */\n      tag_78\n      jump\t// in\n    tag_190:\n        /* \"#utility.yul\":8651:8794   */\n      swap3\n      swap2\n      pop\n      pop\n      jump\t// out\n        /* \"#utility.yul\":8800:9771   */\n    tag_65:\n        /* \"#utility.yul\":8903:8909   */\n      0x00\n        /* \"#utility.yul\":8911:8917   */\n      dup1\n        /* \"#utility.yul\":8919:8925   */\n      0x00\n        /* \"#utility.yul\":8927:8933   */\n      dup1\n        /* \"#utility.yul\":8935:8941   */\n      0x00\n        /* \"#utility.yul\":8984:8987   */\n      0xa0\n        /* \"#utility.yul\":8972:8981   */\n      dup7\n        /* \"#utility.yul\":8963:8970   */\n      dup9\n        /* \"#utility.yul\":8959:8982   */\n      sub\n        /* \"#utility.yul\":8955:8988   */\n      slt\n        /* \"#utility.yul\":8952:9072   */\n      iszero\n      tag_192\n      jumpi\n        /* \"#utility.yul\":8991:9070   */\n      tag_193\n      tag_69\n      jump\t// in\n    tag_193:\n        /* \"#utility.yul\":8952:9072   */\n    tag_192:\n        /* \"#utility.yul\":9111:9112   */\n      0x00\n        /* \"#utility.yul\":9136:9199   */\n      tag_194\n        /* \"#utility.yul\":9191:9198   */\n      dup9\n        /* \"#utility.yul\":9182:9188   */\n      dup3\n        /* \"#utility.yul\":9171:9180   */\n      dup10\n        /* \"#utility.yul\":9167:9189   */\n      add\n        /* \"#utility.yul\":9136:9199   */\n      tag_94\n      jump\t// in\n    tag_194:\n        /* \"#utility.yul\":9126:9199   */\n      swap6\n      pop\n        /* \"#utility.yul\":9082:9209   */\n      pop\n        /* \"#utility.yul\":9248:9250   */\n      0x20\n        /* \"#utility.yul\":9274:9337   */\n      tag_195\n        /* \"#utility.yul\":9329:9336   */\n      dup9\n        /* \"#utility.yul\":9320:9326   */\n      dup3\n        /* \"#utility.yul\":9309:9318   */\n      dup10\n        /* \"#utility.yul\":9305:9327   */\n      add\n        /* \"#utility.yul\":9274:9337   */\n      tag_97\n      jump\t// in\n    tag_195:\n        /* \"#utility.yul\":9264:9337   */\n      swap5\n      pop\n        /* \"#utility.yul\":9219:9347   */\n      pop\n        /* \"#utility.yul\":9386:9388   */\n      0x40\n        /* \"#utility.yul\":9412:9476   */\n      tag_196\n        /* \"#utility.yul\":9468:9475   */\n      dup9\n        /* \"#utility.yul\":9459:9465   */\n      dup3\n        /* \"#utility.yul\":9448:9457   */\n      dup10\n        /* \"#utility.yul\":9444:9466   */\n      add\n        /* \"#utility.yul\":9412:9476   */\n      tag_98\n      jump\t// in\n    tag_196:\n        /* \"#utility.yul\":9402:9476   */\n      swap4\n      pop\n        /* \"#utility.yul\":9357:9486   */\n      pop\n        /* \"#utility.yul\":9525:9527   */\n      0x60\n        /* \"#utility.yul\":9551:9615   */\n      tag_197\n        /* \"#utility.yul\":9607:9614   */\n      dup9\n        /* \"#utility.yul\":9598:9604   */\n      dup3\n        /* \"#utility.yul\":9587:9596   */\n      dup10\n        /* \"#utility.yul\":9583:9605   */\n      add\n        /* \"#utility.yul\":9551:9615   */\n      tag_98\n      jump\t// in\n    tag_197:\n        /* \"#utility.yul\":9541:9615   */\n      swap3\n      pop\n        /* \"#utility.yul\":9496:9625   */\n      pop\n        /* \"#utility.yul\":9664:9667   */\n      0x80\n        /* \"#utility.yul\":9691:9754   */\n      tag_198\n        /* \"#utility.yul\":9746:9753   */\n      dup9\n        /* \"#utility.yul\":9737:9743   */\n      dup3\n        /* \"#utility.yul\":9726:9735   */\n      dup10\n        /* \"#utility.yul\":9722:9744   */\n      add\n        /* \"#utility.yul\":9691:9754   */\n      tag_94\n      jump\t// in\n    tag_198:\n        /* \"#utility.yul\":9681:9754   */\n      swap2\n      pop\n        /* \"#utility.yul\":9635:9764   */\n      pop\n        /* \"#utility.yul\":8800:9771   */\n      swap3\n      swap6\n      pop\n      swap3\n      swap6\n      swap1\n      swap4\n      pop\n      jump\t// out\n        /* \"#utility.yul\":9777:10333   */\n    tag_67:\n        /* \"#utility.yul\":9816:9823   */\n      0x00\n        /* \"#utility.yul\":9839:9858   */\n      tag_200\n        /* \"#utility.yul\":9856:9857   */\n      dup3\n        /* \"#utility.yul\":9839:9858   */\n      tag_95\n      jump\t// in\n    tag_200:\n        /* \"#utility.yul\":9834:9858   */\n      swap2\n      pop\n        /* \"#utility.yul\":9872:9891   */\n      tag_201\n        /* \"#utility.yul\":9889:9890   */\n      dup4\n        /* \"#utility.yul\":9872:9891   */\n      tag_95\n      jump\t// in\n    tag_201:\n        /* \"#utility.yul\":9867:9891   */\n      swap3\n      pop\n        /* \"#utility.yul\":9926:9927   */\n      dup3\n        /* \"#utility.yul\":9923:9924   */\n      dup3\n        /* \"#utility.yul\":9919:9928   */\n      mul\n        /* \"#utility.yul\":9948:9977   */\n      tag_202\n        /* \"#utility.yul\":9965:9976   */\n      dup2\n        /* \"#utility.yul\":9948:9977   */\n      tag_95\n      jump\t// in\n    tag_202:\n        /* \"#utility.yul\":9937:9977   */\n      swap2\n      pop\n        /* \"#utility.yul\":10035:10101   */\n      0x8000000000000000000000000000000000000000000000000000000000000000\n        /* \"#utility.yul\":10032:10033   */\n      dup5\n        /* \"#utility.yul\":10029:10102   */\n      eq\n        /* \"#utility.yul\":10025:10026   */\n      0x00\n        /* \"#utility.yul\":10022:10023   */\n      dup5\n        /* \"#utility.yul\":10018:10027   */\n      slt\n        /* \"#utility.yul\":10014:10103   */\n      and\n        /* \"#utility.yul\":10011:10126   */\n      iszero\n      tag_203\n      jumpi\n        /* \"#utility.yul\":10106:10124   */\n      tag_204\n      tag_90\n      jump\t// in\n    tag_204:\n        /* \"#utility.yul\":10011:10126   */\n    tag_203:\n        /* \"#utility.yul\":10276:10277   */\n      dup3\n        /* \"#utility.yul\":10267:10274   */\n      dup3\n        /* \"#utility.yul\":10262:10278   */\n      sdiv\n        /* \"#utility.yul\":10259:10260   */\n      dup5\n        /* \"#utility.yul\":10256:10279   */\n      eq\n        /* \"#utility.yul\":10236:10237   */\n      dup4\n        /* \"#utility.yul\":10229:10238   */\n      iszero\n        /* \"#utility.yul\":10209:10293   */\n      or\n        /* \"#utility.yul\":10186:10326   */\n      tag_205\n      jumpi\n        /* \"#utility.yul\":10306:10324   */\n      tag_206\n      tag_90\n      jump\t// in\n    tag_206:\n        /* \"#utility.yul\":10186:10326   */\n    tag_205:\n        /* \"#utility.yul\":9824:10333   */\n      pop\n        /* \"#utility.yul\":9777:10333   */\n      swap3\n      swap2\n      pop\n      pop\n      jump\t// out\n\n    auxdata: 0xa2646970667358221220de0be33c2ba17c0f8a894953dd663e31df8bfe3733f1f22189bce97b331be23f64736f6c634300081a0033\n}\n",
				"bytecode": {
					"linkReferences": {},
					"object": "608060405260055f553480156012575f80fd5b503360035f6101000a81548173ffffffffffffffffffffffffffffffffffffffff021916908373ffffffffffffffffffffffffffffffffffffffff160217905550610a77806100605f395ff3fe608060405260043610610049575f3560e01c80633ccfd60b1461004d5780633e47d6f3146100635780638da5cb5b1461009f578063b60d4288146100c9578063dc0d3dff146100d3575b5f80fd5b348015610058575f80fd5b5061006161010f565b005b34801561006e575f80fd5b506100896004803603810190610084919061056e565b6102bd565b60405161009691906105b1565b60405180910390f35b3480156100aa575f80fd5b506100b36102d2565b6040516100c091906105d9565b60405180910390f35b6100d16102f7565b005b3480156100de575f80fd5b506100f960048036038101906100f4919061061c565b6103f8565b60405161010691906105d9565b60405180910390f35b5f60025f3373ffffffffffffffffffffffffffffffffffffffff1673ffffffffffffffffffffffffffffffffffffffff1681526020019081526020015f20541161018e576040517f08c379a0000000000000000000000000000000000000000000000000000000008152600401610185906106a1565b60405180910390fd5b5f60025f3373ffffffffffffffffffffffffffffffffffffffff1673ffffffffffffffffffffffffffffffffffffffff1681526020019081526020015f205490505f60025f3373ffffffffffffffffffffffffffffffffffffffff1673ffffffffffffffffffffffffffffffffffffffff1681526020019081526020015f20819055505f3373ffffffffffffffffffffffffffffffffffffffff1682604051610236906106ec565b5f6040518083038185875af1925050503d805f8114610270576040519150601f19603f3d011682016040523d82523d5f602084013e610275565b606091505b50509050806102b9576040517f08c379a00000000000000000000000000000000000000000000000000000000081526004016102b09061074a565b60405180910390fd5b5050565b6002602052805f5260405f205f915090505481565b60035f9054906101000a900473ffffffffffffffffffffffffffffffffffffffff1681565b5f5461030234610433565b1015610343576040517f08c379a000000000000000000000000000000000000000000000000000000000815260040161033a906107b2565b60405180910390fd5b600133908060018154018082558091505060019003905f5260205f20015f9091909190916101000a81548173ffffffffffffffffffffffffffffffffffffffff021916908373ffffffffffffffffffffffffffffffffffffffff1602179055503460025f3373ffffffffffffffffffffffffffffffffffffffff1673ffffffffffffffffffffffffffffffffffffffff1681526020019081526020015f205f8282546103ef91906107fd565b92505081905550565b60018181548110610407575f80fd5b905f5260205f20015f915054906101000a900473ffffffffffffffffffffffffffffffffffffffff1681565b5f8061043d61046b565b90505f670de0b6b3a764000084836104559190610830565b61045f919061089e565b90508092505050919050565b5f8073694aa1769357215de4fac081bf1f309adc32530690505f8173ffffffffffffffffffffffffffffffffffffffff1663feaf968c6040518163ffffffff1660e01b815260040160a060405180830381865afa1580156104ce573d5f803e3d5ffd5b505050506040513d601f19601f820116820180604052508101906104f29190610954565b5050509150506402540be4008161050991906109cb565b9250505090565b5f80fd5b5f73ffffffffffffffffffffffffffffffffffffffff82169050919050565b5f61053d82610514565b9050919050565b61054d81610533565b8114610557575f80fd5b50565b5f8135905061056881610544565b92915050565b5f6020828403121561058357610582610510565b5b5f6105908482850161055a565b91505092915050565b5f819050919050565b6105ab81610599565b82525050565b5f6020820190506105c45f8301846105a2565b92915050565b6105d381610533565b82525050565b5f6020820190506105ec5f8301846105ca565b92915050565b6105fb81610599565b8114610605575f80fd5b50565b5f81359050610616816105f2565b92915050565b5f6020828403121561063157610630610510565b5b5f61063e84828501610608565b91505092915050565b5f82825260208201905092915050565b7f596f752068617665206e6f2066756e647320746f2077697468647261770000005f82015250565b5f61068b601d83610647565b915061069682610657565b602082019050919050565b5f6020820190508181035f8301526106b88161067f565b9050919050565b5f81905092915050565b50565b5f6106d75f836106bf565b91506106e2826106c9565b5f82019050919050565b5f6106f6826106cc565b9150819050919050565b7f5769746864726177206661696c656400000000000000000000000000000000005f82015250565b5f610734600f83610647565b915061073f82610700565b602082019050919050565b5f6020820190508181035f83015261076181610728565b9050919050565b7f4d696e696d756d207265717569726564206973203520555344000000000000005f82015250565b5f61079c601983610647565b91506107a782610768565b602082019050919050565b5f6020820190508181035f8301526107c981610790565b9050919050565b7f4e487b71000000000000000000000000000000000000000000000000000000005f52601160045260245ffd5b5f61080782610599565b915061081283610599565b925082820190508082111561082a576108296107d0565b5b92915050565b5f61083a82610599565b915061084583610599565b925082820261085381610599565b9150828204841483151761086a576108696107d0565b5b5092915050565b7f4e487b71000000000000000000000000000000000000000000000000000000005f52601260045260245ffd5b5f6108a882610599565b91506108b383610599565b9250826108c3576108c2610871565b5b828204905092915050565b5f69ffffffffffffffffffff82169050919050565b6108ec816108ce565b81146108f6575f80fd5b50565b5f81519050610907816108e3565b92915050565b5f819050919050565b61091f8161090d565b8114610929575f80fd5b50565b5f8151905061093a81610916565b92915050565b5f8151905061094e816105f2565b92915050565b5f805f805f60a0868803121561096d5761096c610510565b5b5f61097a888289016108f9565b955050602061098b8882890161092c565b945050604061099c88828901610940565b93505060606109ad88828901610940565b92505060806109be888289016108f9565b9150509295509295909350565b5f6109d58261090d565b91506109e08361090d565b92508282026109ee8161090d565b91507f800000000000000000000000000000000000000000000000000000000000000084145f84121615610a2557610a246107d0565b5b8282058414831517610a3a57610a396107d0565b5b509291505056fea2646970667358221220de0be33c2ba17c0f8a894953dd663e31df8bfe3733f1f22189bce97b331be23f64736f6c634300081a0033",
					"opcodes": "PUSH1 0x80 PUSH1 0x40 MSTORE PUSH1 0x5 PUSH0 SSTORE CALLVALUE DUP1 ISZERO PUSH1 0x12 JUMPI PUSH0 DUP1 REVERT JUMPDEST POP CALLER PUSH1 0x3 PUSH0 PUSH2 0x100 EXP DUP2 SLOAD DUP2 PUSH20 0xFFFFFFFFFFFFFFFFFFFFFFFFFFFFFFFFFFFFFFFF MUL NOT AND SWAP1 DUP4 PUSH20 0xFFFFFFFFFFFFFFFFFFFFFFFFFFFFFFFFFFFFFFFF AND MUL OR SWAP1 SSTORE POP PUSH2 0xA77 DUP1 PUSH2 0x60 PUSH0 CODECOPY PUSH0 RETURN INVALID PUSH1 0x80 PUSH1 0x40 MSTORE PUSH1 0x4 CALLDATASIZE LT PUSH2 0x49 JUMPI PUSH0 CALLDATALOAD PUSH1 0xE0 SHR DUP1 PUSH4 0x3CCFD60B EQ PUSH2 0x4D JUMPI DUP1 PUSH4 0x3E47D6F3 EQ PUSH2 0x63 JUMPI DUP1 PUSH4 0x8DA5CB5B EQ PUSH2 0x9F JUMPI DUP1 PUSH4 0xB60D4288 EQ PUSH2 0xC9 JUMPI DUP1 PUSH4 0xDC0D3DFF EQ PUSH2 0xD3 JUMPI JUMPDEST PUSH0 DUP1 REVERT JUMPDEST CALLVALUE DUP1 ISZERO PUSH2 0x58 JUMPI PUSH0 DUP1 REVERT JUMPDEST POP PUSH2 0x61 PUSH2 0x10F JUMP JUMPDEST STOP JUMPDEST CALLVALUE DUP1 ISZERO PUSH2 0x6E JUMPI PUSH0 DUP1 REVERT JUMPDEST POP PUSH2 0x89 PUSH1 0x4 DUP1 CALLDATASIZE SUB DUP2 ADD SWAP1 PUSH2 0x84 SWAP2 SWAP1 PUSH2 0x56E JUMP JUMPDEST PUSH2 0x2BD JUMP JUMPDEST PUSH1 0x40 MLOAD PUSH2 0x96 SWAP2 SWAP1 PUSH2 0x5B1 JUMP JUMPDEST PUSH1 0x40 MLOAD DUP1 SWAP2 SUB SWAP1 RETURN JUMPDEST CALLVALUE DUP1 ISZERO PUSH2 0xAA JUMPI PUSH0 DUP1 REVERT JUMPDEST POP PUSH2 0xB3 PUSH2 0x2D2 JUMP JUMPDEST PUSH1 0x40 MLOAD PUSH2 0xC0 SWAP2 SWAP1 PUSH2 0x5D9 JUMP JUMPDEST PUSH1 0x40 MLOAD DUP1 SWAP2 SUB SWAP1 RETURN JUMPDEST PUSH2 0xD1 PUSH2 0x2F7 JUMP JUMPDEST STOP JUMPDEST CALLVALUE DUP1 ISZERO PUSH2 0xDE JUMPI PUSH0 DUP1 REVERT JUMPDEST POP PUSH2 0xF9 PUSH1 0x4 DUP1 CALLDATASIZE SUB DUP2 ADD SWAP1 PUSH2 0xF4 SWAP2 SWAP1 PUSH2 0x61C JUMP JUMPDEST PUSH2 0x3F8 JUMP JUMPDEST PUSH1 0x40 MLOAD PUSH2 0x106 SWAP2 SWAP1 PUSH2 0x5D9 JUMP JUMPDEST PUSH1 0x40 MLOAD DUP1 SWAP2 SUB SWAP1 RETURN JUMPDEST PUSH0 PUSH1 0x2 PUSH0 CALLER PUSH20 0xFFFFFFFFFFFFFFFFFFFFFFFFFFFFFFFFFFFFFFFF AND PUSH20 0xFFFFFFFFFFFFFFFFFFFFFFFFFFFFFFFFFFFFFFFF AND DUP2 MSTORE PUSH1 0x20 ADD SWAP1 DUP2 MSTORE PUSH1 0x20 ADD PUSH0 KECCAK256 SLOAD GT PUSH2 0x18E JUMPI PUSH1 0x40 MLOAD PUSH32 0x8C379A000000000000000000000000000000000000000000000000000000000 DUP2 MSTORE PUSH1 0x4 ADD PUSH2 0x185 SWAP1 PUSH2 0x6A1 JUMP JUMPDEST PUSH1 0x40 MLOAD DUP1 SWAP2 SUB SWAP1 REVERT JUMPDEST PUSH0 PUSH1 0x2 PUSH0 CALLER PUSH20 0xFFFFFFFFFFFFFFFFFFFFFFFFFFFFFFFFFFFFFFFF AND PUSH20 0xFFFFFFFFFFFFFFFFFFFFFFFFFFFFFFFFFFFFFFFF AND DUP2 MSTORE PUSH1 0x20 ADD SWAP1 DUP2 MSTORE PUSH1 0x20 ADD PUSH0 KECCAK256 SLOAD SWAP1 POP PUSH0 PUSH1 0x2 PUSH0 CALLER PUSH20 0xFFFFFFFFFFFFFFFFFFFFFFFFFFFFFFFFFFFFFFFF AND PUSH20 0xFFFFFFFFFFFFFFFFFFFFFFFFFFFFFFFFFFFFFFFF AND DUP2 MSTORE PUSH1 0x20 ADD SWAP1 DUP2 MSTORE PUSH1 0x20 ADD PUSH0 KECCAK256 DUP2 SWAP1 SSTORE POP PUSH0 CALLER PUSH20 0xFFFFFFFFFFFFFFFFFFFFFFFFFFFFFFFFFFFFFFFF AND DUP3 PUSH1 0x40 MLOAD PUSH2 0x236 SWAP1 PUSH2 0x6EC JUMP JUMPDEST PUSH0 PUSH1 0x40 MLOAD DUP1 DUP4 SUB DUP2 DUP6 DUP8 GAS CALL SWAP3 POP POP POP RETURNDATASIZE DUP1 PUSH0 DUP2 EQ PUSH2 0x270 JUMPI PUSH1 0x40 MLOAD SWAP2 POP PUSH1 0x1F NOT PUSH1 0x3F RETURNDATASIZE ADD AND DUP3 ADD PUSH1 0x40 MSTORE RETURNDATASIZE DUP3 MSTORE RETURNDATASIZE PUSH0 PUSH1 0x20 DUP5 ADD RETURNDATACOPY PUSH2 0x275 JUMP JUMPDEST PUSH1 0x60 SWAP2 POP JUMPDEST POP POP SWAP1 POP DUP1 PUSH2 0x2B9 JUMPI PUSH1 0x40 MLOAD PUSH32 0x8C379A000000000000000000000000000000000000000000000000000000000 DUP2 MSTORE PUSH1 0x4 ADD PUSH2 0x2B0 SWAP1 PUSH2 0x74A JUMP JUMPDEST PUSH1 0x40 MLOAD DUP1 SWAP2 SUB SWAP1 REVERT JUMPDEST POP POP JUMP JUMPDEST PUSH1 0x2 PUSH1 0x20 MSTORE DUP1 PUSH0 MSTORE PUSH1 0x40 PUSH0 KECCAK256 PUSH0 SWAP2 POP SWAP1 POP SLOAD DUP2 JUMP JUMPDEST PUSH1 0x3 PUSH0 SWAP1 SLOAD SWAP1 PUSH2 0x100 EXP SWAP1 DIV PUSH20 0xFFFFFFFFFFFFFFFFFFFFFFFFFFFFFFFFFFFFFFFF AND DUP2 JUMP JUMPDEST PUSH0 SLOAD PUSH2 0x302 CALLVALUE PUSH2 0x433 JUMP JUMPDEST LT ISZERO PUSH2 0x343 JUMPI PUSH1 0x40 MLOAD PUSH32 0x8C379A000000000000000000000000000000000000000000000000000000000 DUP2 MSTORE PUSH1 0x4 ADD PUSH2 0x33A SWAP1 PUSH2 0x7B2 JUMP JUMPDEST PUSH1 0x40 MLOAD DUP1 SWAP2 SUB SWAP1 REVERT JUMPDEST PUSH1 0x1 CALLER SWAP1 DUP1 PUSH1 0x1 DUP2 SLOAD ADD DUP1 DUP3 SSTORE DUP1 SWAP2 POP POP PUSH1 0x1 SWAP1 SUB SWAP1 PUSH0 MSTORE PUSH1 0x20 PUSH0 KECCAK256 ADD PUSH0 SWAP1 SWAP2 SWAP1 SWAP2 SWAP1 SWAP2 PUSH2 0x100 EXP DUP2 SLOAD DUP2 PUSH20 0xFFFFFFFFFFFFFFFFFFFFFFFFFFFFFFFFFFFFFFFF MUL NOT AND SWAP1 DUP4 PUSH20 0xFFFFFFFFFFFFFFFFFFFFFFFFFFFFFFFFFFFFFFFF AND MUL OR SWAP1 SSTORE POP CALLVALUE PUSH1 0x2 PUSH0 CALLER PUSH20 0xFFFFFFFFFFFFFFFFFFFFFFFFFFFFFFFFFFFFFFFF AND PUSH20 0xFFFFFFFFFFFFFFFFFFFFFFFFFFFFFFFFFFFFFFFF AND DUP2 MSTORE PUSH1 0x20 ADD SWAP1 DUP2 MSTORE PUSH1 0x20 ADD PUSH0 KECCAK256 PUSH0 DUP3 DUP3 SLOAD PUSH2 0x3EF SWAP2 SWAP1 PUSH2 0x7FD JUMP JUMPDEST SWAP3 POP POP DUP2 SWAP1 SSTORE POP JUMP JUMPDEST PUSH1 0x1 DUP2 DUP2 SLOAD DUP2 LT PUSH2 0x407 JUMPI PUSH0 DUP1 REVERT JUMPDEST SWAP1 PUSH0 MSTORE PUSH1 0x20 PUSH0 KECCAK256 ADD PUSH0 SWAP2 POP SLOAD SWAP1 PUSH2 0x100 EXP SWAP1 DIV PUSH20 0xFFFFFFFFFFFFFFFFFFFFFFFFFFFFFFFFFFFFFFFF AND DUP2 JUMP JUMPDEST PUSH0 DUP1 PUSH2 0x43D PUSH2 0x46B JUMP JUMPDEST SWAP1 POP PUSH0 PUSH8 0xDE0B6B3A7640000 DUP5 DUP4 PUSH2 0x455 SWAP2 SWAP1 PUSH2 0x830 JUMP JUMPDEST PUSH2 0x45F SWAP2 SWAP1 PUSH2 0x89E JUMP JUMPDEST SWAP1 POP DUP1 SWAP3 POP POP POP SWAP2 SWAP1 POP JUMP JUMPDEST PUSH0 DUP1 PUSH20 0x694AA1769357215DE4FAC081BF1F309ADC325306 SWAP1 POP PUSH0 DUP2 PUSH20 0xFFFFFFFFFFFFFFFFFFFFFFFFFFFFFFFFFFFFFFFF AND PUSH4 0xFEAF968C PUSH1 0x40 MLOAD DUP2 PUSH4 0xFFFFFFFF AND PUSH1 0xE0 SHL DUP2 MSTORE PUSH1 0x4 ADD PUSH1 0xA0 PUSH1 0x40 MLOAD DUP1 DUP4 SUB DUP2 DUP7 GAS STATICCALL ISZERO DUP1 ISZERO PUSH2 0x4CE JUMPI RETURNDATASIZE PUSH0 DUP1 RETURNDATACOPY RETURNDATASIZE PUSH0 REVERT JUMPDEST POP POP POP POP PUSH1 0x40 MLOAD RETURNDATASIZE PUSH1 0x1F NOT PUSH1 0x1F DUP3 ADD AND DUP3 ADD DUP1 PUSH1 0x40 MSTORE POP DUP2 ADD SWAP1 PUSH2 0x4F2 SWAP2 SWAP1 PUSH2 0x954 JUMP JUMPDEST POP POP POP SWAP2 POP POP PUSH5 0x2540BE400 DUP2 PUSH2 0x509 SWAP2 SWAP1 PUSH2 0x9CB JUMP JUMPDEST SWAP3 POP POP POP SWAP1 JUMP JUMPDEST PUSH0 DUP1 REVERT JUMPDEST PUSH0 PUSH20 0xFFFFFFFFFFFFFFFFFFFFFFFFFFFFFFFFFFFFFFFF DUP3 AND SWAP1 POP SWAP2 SWAP1 POP JUMP JUMPDEST PUSH0 PUSH2 0x53D DUP3 PUSH2 0x514 JUMP JUMPDEST SWAP1 POP SWAP2 SWAP1 POP JUMP JUMPDEST PUSH2 0x54D DUP2 PUSH2 0x533 JUMP JUMPDEST DUP2 EQ PUSH2 0x557 JUMPI PUSH0 DUP1 REVERT JUMPDEST POP JUMP JUMPDEST PUSH0 DUP2 CALLDATALOAD SWAP1 POP PUSH2 0x568 DUP2 PUSH2 0x544 JUMP JUMPDEST SWAP3 SWAP2 POP POP JUMP JUMPDEST PUSH0 PUSH1 0x20 DUP3 DUP5 SUB SLT ISZERO PUSH2 0x583 JUMPI PUSH2 0x582 PUSH2 0x510 JUMP JUMPDEST JUMPDEST PUSH0 PUSH2 0x590 DUP5 DUP3 DUP6 ADD PUSH2 0x55A JUMP JUMPDEST SWAP2 POP POP SWAP3 SWAP2 POP POP JUMP JUMPDEST PUSH0 DUP2 SWAP1 POP SWAP2 SWAP1 POP JUMP JUMPDEST PUSH2 0x5AB DUP2 PUSH2 0x599 JUMP JUMPDEST DUP3 MSTORE POP POP JUMP JUMPDEST PUSH0 PUSH1 0x20 DUP3 ADD SWAP1 POP PUSH2 0x5C4 PUSH0 DUP4 ADD DUP5 PUSH2 0x5A2 JUMP JUMPDEST SWAP3 SWAP2 POP POP JUMP JUMPDEST PUSH2 0x5D3 DUP2 PUSH2 0x533 JUMP JUMPDEST DUP3 MSTORE POP POP JUMP JUMPDEST PUSH0 PUSH1 0x20 DUP3 ADD SWAP1 POP PUSH2 0x5EC PUSH0 DUP4 ADD DUP5 PUSH2 0x5CA JUMP JUMPDEST SWAP3 SWAP2 POP POP JUMP JUMPDEST PUSH2 0x5FB DUP2 PUSH2 0x599 JUMP JUMPDEST DUP2 EQ PUSH2 0x605 JUMPI PUSH0 DUP1 REVERT JUMPDEST POP JUMP JUMPDEST PUSH0 DUP2 CALLDATALOAD SWAP1 POP PUSH2 0x616 DUP2 PUSH2 0x5F2 JUMP JUMPDEST SWAP3 SWAP2 POP POP JUMP JUMPDEST PUSH0 PUSH1 0x20 DUP3 DUP5 SUB SLT ISZERO PUSH2 0x631 JUMPI PUSH2 0x630 PUSH2 0x510 JUMP JUMPDEST JUMPDEST PUSH0 PUSH2 0x63E DUP5 DUP3 DUP6 ADD PUSH2 0x608 JUMP JUMPDEST SWAP2 POP POP SWAP3 SWAP2 POP POP JUMP JUMPDEST PUSH0 DUP3 DUP3 MSTORE PUSH1 0x20 DUP3 ADD SWAP1 POP SWAP3 SWAP2 POP POP JUMP JUMPDEST PUSH32 0x596F752068617665206E6F2066756E647320746F207769746864726177000000 PUSH0 DUP3 ADD MSTORE POP JUMP JUMPDEST PUSH0 PUSH2 0x68B PUSH1 0x1D DUP4 PUSH2 0x647 JUMP JUMPDEST SWAP2 POP PUSH2 0x696 DUP3 PUSH2 0x657 JUMP JUMPDEST PUSH1 0x20 DUP3 ADD SWAP1 POP SWAP2 SWAP1 POP JUMP JUMPDEST PUSH0 PUSH1 0x20 DUP3 ADD SWAP1 POP DUP2 DUP2 SUB PUSH0 DUP4 ADD MSTORE PUSH2 0x6B8 DUP2 PUSH2 0x67F JUMP JUMPDEST SWAP1 POP SWAP2 SWAP1 POP JUMP JUMPDEST PUSH0 DUP2 SWAP1 POP SWAP3 SWAP2 POP POP JUMP JUMPDEST POP JUMP JUMPDEST PUSH0 PUSH2 0x6D7 PUSH0 DUP4 PUSH2 0x6BF JUMP JUMPDEST SWAP2 POP PUSH2 0x6E2 DUP3 PUSH2 0x6C9 JUMP JUMPDEST PUSH0 DUP3 ADD SWAP1 POP SWAP2 SWAP1 POP JUMP JUMPDEST PUSH0 PUSH2 0x6F6 DUP3 PUSH2 0x6CC JUMP JUMPDEST SWAP2 POP DUP2 SWAP1 POP SWAP2 SWAP1 POP JUMP JUMPDEST PUSH32 0x5769746864726177206661696C65640000000000000000000000000000000000 PUSH0 DUP3 ADD MSTORE POP JUMP JUMPDEST PUSH0 PUSH2 0x734 PUSH1 0xF DUP4 PUSH2 0x647 JUMP JUMPDEST SWAP2 POP PUSH2 0x73F DUP3 PUSH2 0x700 JUMP JUMPDEST PUSH1 0x20 DUP3 ADD SWAP1 POP SWAP2 SWAP1 POP JUMP JUMPDEST PUSH0 PUSH1 0x20 DUP3 ADD SWAP1 POP DUP2 DUP2 SUB PUSH0 DUP4 ADD MSTORE PUSH2 0x761 DUP2 PUSH2 0x728 JUMP JUMPDEST SWAP1 POP SWAP2 SWAP1 POP JUMP JUMPDEST PUSH32 0x4D696E696D756D20726571756972656420697320352055534400000000000000 PUSH0 DUP3 ADD MSTORE POP JUMP JUMPDEST PUSH0 PUSH2 0x79C PUSH1 0x19 DUP4 PUSH2 0x647 JUMP JUMPDEST SWAP2 POP PUSH2 0x7A7 DUP3 PUSH2 0x768 JUMP JUMPDEST PUSH1 0x20 DUP3 ADD SWAP1 POP SWAP2 SWAP1 POP JUMP JUMPDEST PUSH0 PUSH1 0x20 DUP3 ADD SWAP1 POP DUP2 DUP2 SUB PUSH0 DUP4 ADD MSTORE PUSH2 0x7C9 DUP2 PUSH2 0x790 JUMP JUMPDEST SWAP1 POP SWAP2 SWAP1 POP JUMP JUMPDEST PUSH32 0x4E487B7100000000000000000000000000000000000000000000000000000000 PUSH0 MSTORE PUSH1 0x11 PUSH1 0x4 MSTORE PUSH1 0x24 PUSH0 REVERT JUMPDEST PUSH0 PUSH2 0x807 DUP3 PUSH2 0x599 JUMP JUMPDEST SWAP2 POP PUSH2 0x812 DUP4 PUSH2 0x599 JUMP JUMPDEST SWAP3 POP DUP3 DUP3 ADD SWAP1 POP DUP1 DUP3 GT ISZERO PUSH2 0x82A JUMPI PUSH2 0x829 PUSH2 0x7D0 JUMP JUMPDEST JUMPDEST SWAP3 SWAP2 POP POP JUMP JUMPDEST PUSH0 PUSH2 0x83A DUP3 PUSH2 0x599 JUMP JUMPDEST SWAP2 POP PUSH2 0x845 DUP4 PUSH2 0x599 JUMP JUMPDEST SWAP3 POP DUP3 DUP3 MUL PUSH2 0x853 DUP2 PUSH2 0x599 JUMP JUMPDEST SWAP2 POP DUP3 DUP3 DIV DUP5 EQ DUP4 ISZERO OR PUSH2 0x86A JUMPI PUSH2 0x869 PUSH2 0x7D0 JUMP JUMPDEST JUMPDEST POP SWAP3 SWAP2 POP POP JUMP JUMPDEST PUSH32 0x4E487B7100000000000000000000000000000000000000000000000000000000 PUSH0 MSTORE PUSH1 0x12 PUSH1 0x4 MSTORE PUSH1 0x24 PUSH0 REVERT JUMPDEST PUSH0 PUSH2 0x8A8 DUP3 PUSH2 0x599 JUMP JUMPDEST SWAP2 POP PUSH2 0x8B3 DUP4 PUSH2 0x599 JUMP JUMPDEST SWAP3 POP DUP3 PUSH2 0x8C3 JUMPI PUSH2 0x8C2 PUSH2 0x871 JUMP JUMPDEST JUMPDEST DUP3 DUP3 DIV SWAP1 POP SWAP3 SWAP2 POP POP JUMP JUMPDEST PUSH0 PUSH10 0xFFFFFFFFFFFFFFFFFFFF DUP3 AND SWAP1 POP SWAP2 SWAP1 POP JUMP JUMPDEST PUSH2 0x8EC DUP2 PUSH2 0x8CE JUMP JUMPDEST DUP2 EQ PUSH2 0x8F6 JUMPI PUSH0 DUP1 REVERT JUMPDEST POP JUMP JUMPDEST PUSH0 DUP2 MLOAD SWAP1 POP PUSH2 0x907 DUP2 PUSH2 0x8E3 JUMP JUMPDEST SWAP3 SWAP2 POP POP JUMP JUMPDEST PUSH0 DUP2 SWAP1 POP SWAP2 SWAP1 POP JUMP JUMPDEST PUSH2 0x91F DUP2 PUSH2 0x90D JUMP JUMPDEST DUP2 EQ PUSH2 0x929 JUMPI PUSH0 DUP1 REVERT JUMPDEST POP JUMP JUMPDEST PUSH0 DUP2 MLOAD SWAP1 POP PUSH2 0x93A DUP2 PUSH2 0x916 JUMP JUMPDEST SWAP3 SWAP2 POP POP JUMP JUMPDEST PUSH0 DUP2 MLOAD SWAP1 POP PUSH2 0x94E DUP2 PUSH2 0x5F2 JUMP JUMPDEST SWAP3 SWAP2 POP POP JUMP JUMPDEST PUSH0 DUP1 PUSH0 DUP1 PUSH0 PUSH1 0xA0 DUP7 DUP9 SUB SLT ISZERO PUSH2 0x96D JUMPI PUSH2 0x96C PUSH2 0x510 JUMP JUMPDEST JUMPDEST PUSH0 PUSH2 0x97A DUP9 DUP3 DUP10 ADD PUSH2 0x8F9 JUMP JUMPDEST SWAP6 POP POP PUSH1 0x20 PUSH2 0x98B DUP9 DUP3 DUP10 ADD PUSH2 0x92C JUMP JUMPDEST SWAP5 POP POP PUSH1 0x40 PUSH2 0x99C DUP9 DUP3 DUP10 ADD PUSH2 0x940 JUMP JUMPDEST SWAP4 POP POP PUSH1 0x60 PUSH2 0x9AD DUP9 DUP3 DUP10 ADD PUSH2 0x940 JUMP JUMPDEST SWAP3 POP POP PUSH1 0x80 PUSH2 0x9BE DUP9 DUP3 DUP10 ADD PUSH2 0x8F9 JUMP JUMPDEST SWAP2 POP POP SWAP3 SWAP6 POP SWAP3 SWAP6 SWAP1 SWAP4 POP JUMP JUMPDEST PUSH0 PUSH2 0x9D5 DUP3 PUSH2 0x90D JUMP JUMPDEST SWAP2 POP PUSH2 0x9E0 DUP4 PUSH2 0x90D JUMP JUMPDEST SWAP3 POP DUP3 DUP3 MUL PUSH2 0x9EE DUP2 PUSH2 0x90D JUMP JUMPDEST SWAP2 POP PUSH32 0x8000000000000000000000000000000000000000000000000000000000000000 DUP5 EQ PUSH0 DUP5 SLT AND ISZERO PUSH2 0xA25 JUMPI PUSH2 0xA24 PUSH2 0x7D0 JUMP JUMPDEST JUMPDEST DUP3 DUP3 SDIV DUP5 EQ DUP4 ISZERO OR PUSH2 0xA3A JUMPI PUSH2 0xA39 PUSH2 0x7D0 JUMP JUMPDEST JUMPDEST POP SWAP3 SWAP2 POP POP JUMP INVALID LOG2 PUSH5 0x6970667358 0x22 SLT KECCAK256 0xDE SIGNEXTEND 0xE3 EXTCODECOPY 0x2B LOG1 PUSH29 0xF8A894953DD663E31DF8BFE3733F1F22189BCE97B331BE23F64736F6C PUSH4 0x4300081A STOP CALLER "
				},
				"gasEstimates": {
					"creation": {
						"codeDepositCost": "535800",
						"executionCost": "46936",
						"totalCost": "582736"
					},
					"external": {
						"addressToAmountFunded(address)": "2802",
						"fund()": "infinite",
						"funders(uint256)": "5010",
						"owner()": "2530",
						"withdraw()": "infinite"
					}
				},
				"methodIdentifiers": {
					"addressToAmountFunded(address)": "3e47d6f3",
					"fund()": "b60d4288",
					"funders(uint256)": "dc0d3dff",
					"owner()": "8da5cb5b",
					"withdraw()": "3ccfd60b"
				}
			},
			"storageLayout": {
				"storage": [
					{
						"astId": 55,
						"contract": "contracts/FundMe.sol:FundMe",
						"label": "minFundAmountUSD",
						"offset": 0,
						"slot": "0",
						"type": "t_uint256"
					},
					{
						"astId": 58,
						"contract": "contracts/FundMe.sol:FundMe",
						"label": "funders",
						"offset": 0,
						"slot": "1",
						"type": "t_array(t_address)dyn_storage"
					},
					{
						"astId": 62,
						"contract": "contracts/FundMe.sol:FundMe",
						"label": "addressToAmountFunded",
						"offset": 0,
						"slot": "2",
						"type": "t_mapping(t_address,t_uint256)"
					},
					{
						"astId": 64,
						"contract": "contracts/FundMe.sol:FundMe",
						"label": "owner",
						"offset": 0,
						"slot": "3",
						"type": "t_address"
					}
				],
				"types": {
					"t_address": {
						"encoding": "inplace",
						"label": "address",
						"numberOfBytes": "20"
					},
					"t_array(t_address)dyn_storage": {
						"base": "t_address",
						"encoding": "dynamic_array",
						"label": "address[]",
						"numberOfBytes": "32"
					},
					"t_mapping(t_address,t_uint256)": {
						"encoding": "mapping",
						"key": "t_address",
						"label": "mapping(address => uint256)",
						"numberOfBytes": "32",
						"value": "t_uint256"
					},
					"t_uint256": {
						"encoding": "inplace",
						"label": "uint256",
						"numberOfBytes": "32"
					}
				}
			},
			"userdoc": {
				"kind": "user",
				"methods": {},
				"version": 1
			}
		}
	}
}