{
	"contracts/FundMe.sol": {
		"FundMe": {
			"abi": [
				{
					"inputs": [
						{
							"internalType": "address",
							"name": "funder",
							"type": "address"
						}
					],
					"name": "addressToAmountFunded",
					"outputs": [
						{
							"internalType": "uint256",
							"name": "amountFunded",
							"type": "uint256"
						}
					],
					"stateMutability": "view",
					"type": "function"
				},
				{
					"inputs": [],
					"name": "fund",
					"outputs": [],
					"stateMutability": "payable",
					"type": "function"
				},
				{
					"inputs": [
						{
							"internalType": "uint256",
							"name": "",
							"type": "uint256"
						}
					],
					"name": "funders",
					"outputs": [
						{
							"internalType": "address",
							"name": "",
							"type": "address"
						}
					],
					"stateMutability": "view",
					"type": "function"
				},
				{
					"inputs": [],
					"name": "wuthdraw",
					"outputs": [],
					"stateMutability": "nonpayable",
					"type": "function"
				}
			],
			"devdoc": {
				"kind": "dev",
				"methods": {},
				"version": 1
			},
			"evm": {
				"assembly": "    /* \"contracts/FundMe.sol\":123:1038  contract FundMe{... */\n  mstore(0x40, 0x80)\n    /* \"contracts/FundMe.sol\":209:210  5 */\n  0x05\n    /* \"contracts/FundMe.sol\":182:210  uint256 minFundAmountUSD = 5 */\n  0x00\n  sstore\n    /* \"contracts/FundMe.sol\":123:1038  contract FundMe{... */\n  callvalue\n  dup1\n  iszero\n  tag_1\n  jumpi\n  0x00\n  dup1\n  revert\ntag_1:\n  pop\n  dataSize(sub_0)\n  dup1\n  dataOffset(sub_0)\n  0x00\n  codecopy\n  0x00\n  return\nstop\n\nsub_0: assembly {\n        /* \"contracts/FundMe.sol\":123:1038  contract FundMe{... */\n      mstore(0x40, 0x80)\n      jumpi(tag_1, lt(calldatasize, 0x04))\n      shr(0xe0, calldataload(0x00))\n      dup1\n      0x3e47d6f3\n      eq\n      tag_2\n      jumpi\n      dup1\n      0xb07d5526\n      eq\n      tag_3\n      jumpi\n      dup1\n      0xb60d4288\n      eq\n      tag_4\n      jumpi\n      dup1\n      0xdc0d3dff\n      eq\n      tag_5\n      jumpi\n    tag_1:\n      0x00\n      dup1\n      revert\n        /* \"contracts/FundMe.sol\":319:395  mapping(address funder => uint256 amountFunded) public addressToAmountFunded */\n    tag_2:\n      callvalue\n      dup1\n      iszero\n      tag_6\n      jumpi\n      0x00\n      dup1\n      revert\n    tag_6:\n      pop\n      tag_7\n      0x04\n      dup1\n      calldatasize\n      sub\n      dup2\n      add\n      swap1\n      tag_8\n      swap2\n      swap1\n      tag_9\n      jump\t// in\n    tag_8:\n      tag_10\n      jump\t// in\n    tag_7:\n      mload(0x40)\n      tag_11\n      swap2\n      swap1\n      tag_12\n      jump\t// in\n    tag_11:\n      mload(0x40)\n      dup1\n      swap2\n      sub\n      swap1\n      return\n        /* \"contracts/FundMe.sol\":739:1034  function wuthdraw() public {... */\n    tag_3:\n      callvalue\n      dup1\n      iszero\n      tag_13\n      jumpi\n      0x00\n      dup1\n      revert\n    tag_13:\n      pop\n      tag_14\n      tag_15\n      jump\t// in\n    tag_14:\n      stop\n        /* \"contracts/FundMe.sol\":407:733  function fund()  payable public{... */\n    tag_4:\n      tag_16\n      tag_17\n      jump\t// in\n    tag_16:\n      stop\n        /* \"contracts/FundMe.sol\":244:268  address[] public funders */\n    tag_5:\n      callvalue\n      dup1\n      iszero\n      tag_18\n      jumpi\n      0x00\n      dup1\n      revert\n    tag_18:\n      pop\n      tag_19\n      0x04\n      dup1\n      calldatasize\n      sub\n      dup2\n      add\n      swap1\n      tag_20\n      swap2\n      swap1\n      tag_21\n      jump\t// in\n    tag_20:\n      tag_22\n      jump\t// in\n    tag_19:\n      mload(0x40)\n      tag_23\n      swap2\n      swap1\n      tag_24\n      jump\t// in\n    tag_23:\n      mload(0x40)\n      dup1\n      swap2\n      sub\n      swap1\n      return\n        /* \"contracts/FundMe.sol\":319:395  mapping(address funder => uint256 amountFunded) public addressToAmountFunded */\n    tag_10:\n      mstore(0x20, 0x02)\n      dup1\n      0x00\n      mstore\n      keccak256(0x00, 0x40)\n      0x00\n      swap2\n      pop\n      swap1\n      pop\n      sload\n      dup2\n      jump\t// out\n        /* \"contracts/FundMe.sol\":739:1034  function wuthdraw() public {... */\n    tag_15:\n        /* \"contracts/FundMe.sol\":781:800  uint256 funderIndex */\n      0x00\n        /* \"contracts/FundMe.sol\":776:1028  for( uint256 funderIndex = 0 ; funderIndex < funders.length ; funderIndex++){... */\n    tag_26:\n        /* \"contracts/FundMe.sol\":821:828  funders */\n      0x01\n        /* \"contracts/FundMe.sol\":821:835  funders.length */\n      dup1\n      sload\n      swap1\n      pop\n        /* \"contracts/FundMe.sol\":807:818  funderIndex */\n      dup2\n        /* \"contracts/FundMe.sol\":807:835  funderIndex < funders.length */\n      lt\n        /* \"contracts/FundMe.sol\":776:1028  for( uint256 funderIndex = 0 ; funderIndex < funders.length ; funderIndex++){... */\n      iszero\n      tag_27\n      jumpi\n        /* \"contracts/FundMe.sol\":932:946  address funder */\n      0x00\n        /* \"contracts/FundMe.sol\":949:956  funders */\n      0x01\n        /* \"contracts/FundMe.sol\":957:968  funderIndex */\n      dup3\n        /* \"contracts/FundMe.sol\":949:969  funders[funderIndex] */\n      dup2\n      sload\n      dup2\n      lt\n      tag_29\n      jumpi\n      tag_30\n      tag_31\n      jump\t// in\n    tag_30:\n    tag_29:\n      swap1\n      0x00\n      mstore\n      keccak256(0x00, 0x20)\n      add\n      0x00\n      swap1\n      sload\n      swap1\n      0x0100\n      exp\n      swap1\n      div\n      0xffffffffffffffffffffffffffffffffffffffff\n      and\n        /* \"contracts/FundMe.sol\":932:969  address funder = funders[funderIndex] */\n      swap1\n      pop\n        /* \"contracts/FundMe.sol\":1015:1016  0 */\n      0x00\n        /* \"contracts/FundMe.sol\":983:1004  addressToAmountFunded */\n      0x02\n        /* \"contracts/FundMe.sol\":983:1012  addressToAmountFunded[funder] */\n      0x00\n        /* \"contracts/FundMe.sol\":1005:1011  funder */\n      dup4\n        /* \"contracts/FundMe.sol\":983:1012  addressToAmountFunded[funder] */\n      0xffffffffffffffffffffffffffffffffffffffff\n      and\n      0xffffffffffffffffffffffffffffffffffffffff\n      and\n      dup2\n      mstore\n      0x20\n      add\n      swap1\n      dup2\n      mstore\n      0x20\n      add\n      0x00\n      keccak256\n        /* \"contracts/FundMe.sol\":983:1016  addressToAmountFunded[funder] = 0 */\n      dup2\n      swap1\n      sstore\n      pop\n        /* \"contracts/FundMe.sol\":852:1028  {... */\n      pop\n        /* \"contracts/FundMe.sol\":838:851  funderIndex++ */\n      dup1\n      dup1\n      0x01\n      add\n      swap2\n      pop\n      pop\n        /* \"contracts/FundMe.sol\":776:1028  for( uint256 funderIndex = 0 ; funderIndex < funders.length ; funderIndex++){... */\n      jump(tag_26)\n    tag_27:\n      pop\n        /* \"contracts/FundMe.sol\":739:1034  function wuthdraw() public {... */\n      jump\t// out\n        /* \"contracts/FundMe.sol\":407:733  function fund()  payable public{... */\n    tag_17:\n        /* \"contracts/FundMe.sol\":589:605  minFundAmountUSD */\n      sload(0x00)\n        /* \"contracts/FundMe.sol\":558:585  msg.value.getEthToUSDRate() */\n      tag_34\n        /* \"contracts/FundMe.sol\":558:567  msg.value */\n      callvalue\n        /* \"contracts/FundMe.sol\":558:583  msg.value.getEthToUSDRate */\n      tag_35\n        /* \"contracts/FundMe.sol\":558:585  msg.value.getEthToUSDRate() */\n      jump\t// in\n    tag_34:\n        /* \"contracts/FundMe.sol\":558:605  msg.value.getEthToUSDRate() >= minFundAmountUSD */\n      lt\n      iszero\n        /* \"contracts/FundMe.sol\":550:635  require(msg.value.getEthToUSDRate() >= minFundAmountUSD, \"Minimum required is 5 USD\") */\n      tag_36\n      jumpi\n      mload(0x40)\n      0x08c379a000000000000000000000000000000000000000000000000000000000\n      dup2\n      mstore\n      0x04\n      add\n      tag_37\n      swap1\n      tag_38\n      jump\t// in\n    tag_37:\n      mload(0x40)\n      dup1\n      swap2\n      sub\n      swap1\n      revert\n    tag_36:\n        /* \"contracts/FundMe.sol\":645:652  funders */\n      0x01\n        /* \"contracts/FundMe.sol\":658:668  msg.sender */\n      caller\n        /* \"contracts/FundMe.sol\":645:669  funders.push(msg.sender) */\n      swap1\n      dup1\n      0x01\n      dup2\n      sload\n      add\n      dup1\n      dup3\n      sstore\n      dup1\n      swap2\n      pop\n      pop\n      0x01\n      swap1\n      sub\n      swap1\n      0x00\n      mstore\n      keccak256(0x00, 0x20)\n      add\n      0x00\n      swap1\n      swap2\n      swap1\n      swap2\n      swap1\n      swap2\n      0x0100\n      exp\n      dup2\n      sload\n      dup2\n      0xffffffffffffffffffffffffffffffffffffffff\n      mul\n      not\n      and\n      swap1\n      dup4\n      0xffffffffffffffffffffffffffffffffffffffff\n      and\n      mul\n      or\n      swap1\n      sstore\n      pop\n        /* \"contracts/FundMe.sol\":716:725  msg.value */\n      callvalue\n        /* \"contracts/FundMe.sol\":679:700  addressToAmountFunded */\n      0x02\n        /* \"contracts/FundMe.sol\":679:712  addressToAmountFunded[msg.sender] */\n      0x00\n        /* \"contracts/FundMe.sol\":701:711  msg.sender */\n      caller\n        /* \"contracts/FundMe.sol\":679:712  addressToAmountFunded[msg.sender] */\n      0xffffffffffffffffffffffffffffffffffffffff\n      and\n      0xffffffffffffffffffffffffffffffffffffffff\n      and\n      dup2\n      mstore\n      0x20\n      add\n      swap1\n      dup2\n      mstore\n      0x20\n      add\n      0x00\n      keccak256\n      0x00\n        /* \"contracts/FundMe.sol\":679:725  addressToAmountFunded[msg.sender] += msg.value */\n      dup3\n      dup3\n      sload\n      tag_40\n      swap2\n      swap1\n      tag_41\n      jump\t// in\n    tag_40:\n      swap3\n      pop\n      pop\n      dup2\n      swap1\n      sstore\n      pop\n        /* \"contracts/FundMe.sol\":407:733  function fund()  payable public{... */\n      jump\t// out\n        /* \"contracts/FundMe.sol\":244:268  address[] public funders */\n    tag_22:\n      0x01\n      dup2\n      dup2\n      sload\n      dup2\n      lt\n      tag_42\n      jumpi\n      0x00\n      dup1\n      revert\n    tag_42:\n      swap1\n      0x00\n      mstore\n      keccak256(0x00, 0x20)\n      add\n      0x00\n      swap2\n      pop\n      sload\n      swap1\n      0x0100\n      exp\n      swap1\n      div\n      0xffffffffffffffffffffffffffffffffffffffff\n      and\n      dup2\n      jump\t// out\n        /* \"libraries/PriceConverter.sol\":717:936  function getEthToUSDRate(uint256 ethAmount) internal view returns(uint256){... */\n    tag_35:\n        /* \"libraries/PriceConverter.sol\":783:790  uint256 */\n      0x00\n        /* \"libraries/PriceConverter.sol\":804:820  uint256 ethPrice */\n      dup1\n        /* \"libraries/PriceConverter.sol\":824:837  getETHPrice() */\n      tag_45\n        /* \"libraries/PriceConverter.sol\":824:835  getETHPrice */\n      tag_46\n        /* \"libraries/PriceConverter.sol\":824:837  getETHPrice() */\n      jump\t// in\n    tag_45:\n        /* \"libraries/PriceConverter.sol\":804:837  uint256 ethPrice  = getETHPrice() */\n      swap1\n      pop\n        /* \"libraries/PriceConverter.sol\":848:864  uint256 ethToUSD */\n      0x00\n        /* \"libraries/PriceConverter.sol\":892:896  1e18 */\n      0x0de0b6b3a7640000\n        /* \"libraries/PriceConverter.sol\":879:888  ethAmount */\n      dup5\n        /* \"libraries/PriceConverter.sol\":868:876  ethPrice */\n      dup4\n        /* \"libraries/PriceConverter.sol\":868:888  ethPrice * ethAmount */\n      tag_47\n      swap2\n      swap1\n      tag_48\n      jump\t// in\n    tag_47:\n        /* \"libraries/PriceConverter.sol\":867:896  (ethPrice * ethAmount) / 1e18 */\n      tag_49\n      swap2\n      swap1\n      tag_50\n      jump\t// in\n    tag_49:\n        /* \"libraries/PriceConverter.sol\":848:896  uint256 ethToUSD = (ethPrice * ethAmount) / 1e18 */\n      swap1\n      pop\n        /* \"libraries/PriceConverter.sol\":914:922  ethToUSD */\n      dup1\n        /* \"libraries/PriceConverter.sol\":907:922  return ethToUSD */\n      swap3\n      pop\n      pop\n      pop\n        /* \"libraries/PriceConverter.sol\":717:936  function getEthToUSDRate(uint256 ethAmount) internal view returns(uint256){... */\n      swap2\n      swap1\n      pop\n      jump\t// out\n        /* \"libraries/PriceConverter.sol\":206:709  function getETHPrice() internal  view returns(uint256) {... */\n    tag_46:\n        /* \"libraries/PriceConverter.sol\":252:259  uint256 */\n      0x00\n        /* \"libraries/PriceConverter.sol\":351:377  AggregatorV3Interface temp */\n      dup1\n        /* \"libraries/PriceConverter.sol\":402:444  0x694AA1769357215DE4FAC081bf1f309aDC325306 */\n      0x694aa1769357215de4fac081bf1f309adc325306\n        /* \"libraries/PriceConverter.sol\":351:445  AggregatorV3Interface temp = AggregatorV3Interface(0x694AA1769357215DE4FAC081bf1f309aDC325306) */\n      swap1\n      pop\n        /* \"libraries/PriceConverter.sol\":506:515  int price */\n      0x00\n        /* \"libraries/PriceConverter.sol\":636:640  temp */\n      dup2\n        /* \"libraries/PriceConverter.sol\":636:656  temp.latestRoundData */\n      0xffffffffffffffffffffffffffffffffffffffff\n      and\n      0xfeaf968c\n        /* \"libraries/PriceConverter.sol\":636:658  temp.latestRoundData() */\n      mload(0x40)\n      dup2\n      0xffffffff\n      and\n      0xe0\n      shl\n      dup2\n      mstore\n      0x04\n      add\n      0xa0\n      mload(0x40)\n      dup1\n      dup4\n      sub\n      dup2\n      dup7\n      gas\n      staticcall\n      iszero\n      dup1\n      iszero\n      tag_53\n      jumpi\n      returndatasize\n      0x00\n      dup1\n      returndatacopy\n      revert(0x00, returndatasize)\n    tag_53:\n      pop\n      pop\n      pop\n      pop\n      mload(0x40)\n      returndatasize\n      not(0x1f)\n      0x1f\n      dup3\n      add\n      and\n      dup3\n      add\n      dup1\n      0x40\n      mstore\n      pop\n      dup2\n      add\n      swap1\n      tag_54\n      swap2\n      swap1\n      tag_55\n      jump\t// in\n    tag_54:\n        /* \"libraries/PriceConverter.sol\":456:658  (... */\n      pop\n      pop\n      pop\n      swap2\n      pop\n      pop\n        /* \"libraries/PriceConverter.sol\":694:698  1e10 */\n      0x02540be400\n        /* \"libraries/PriceConverter.sol\":687:692  price */\n      dup2\n        /* \"libraries/PriceConverter.sol\":687:698  price *1e10 */\n      tag_56\n      swap2\n      swap1\n      tag_57\n      jump\t// in\n    tag_56:\n        /* \"libraries/PriceConverter.sol\":672:699  return uint256(price *1e10) */\n      swap3\n      pop\n      pop\n      pop\n        /* \"libraries/PriceConverter.sol\":206:709  function getETHPrice() internal  view returns(uint256) {... */\n      swap1\n      jump\t// out\n        /* \"#utility.yul\":88:205   */\n    tag_59:\n        /* \"#utility.yul\":197:198   */\n      0x00\n        /* \"#utility.yul\":194:195   */\n      dup1\n        /* \"#utility.yul\":187:199   */\n      revert\n        /* \"#utility.yul\":334:460   */\n    tag_61:\n        /* \"#utility.yul\":371:378   */\n      0x00\n        /* \"#utility.yul\":411:453   */\n      0xffffffffffffffffffffffffffffffffffffffff\n        /* \"#utility.yul\":404:409   */\n      dup3\n        /* \"#utility.yul\":400:454   */\n      and\n        /* \"#utility.yul\":389:454   */\n      swap1\n      pop\n        /* \"#utility.yul\":334:460   */\n      swap2\n      swap1\n      pop\n      jump\t// out\n        /* \"#utility.yul\":466:562   */\n    tag_62:\n        /* \"#utility.yul\":503:510   */\n      0x00\n        /* \"#utility.yul\":532:556   */\n      tag_88\n        /* \"#utility.yul\":550:555   */\n      dup3\n        /* \"#utility.yul\":532:556   */\n      tag_61\n      jump\t// in\n    tag_88:\n        /* \"#utility.yul\":521:556   */\n      swap1\n      pop\n        /* \"#utility.yul\":466:562   */\n      swap2\n      swap1\n      pop\n      jump\t// out\n        /* \"#utility.yul\":568:690   */\n    tag_63:\n        /* \"#utility.yul\":641:665   */\n      tag_90\n        /* \"#utility.yul\":659:664   */\n      dup2\n        /* \"#utility.yul\":641:665   */\n      tag_62\n      jump\t// in\n    tag_90:\n        /* \"#utility.yul\":634:639   */\n      dup2\n        /* \"#utility.yul\":631:666   */\n      eq\n        /* \"#utility.yul\":621:684   */\n      tag_91\n      jumpi\n        /* \"#utility.yul\":680:681   */\n      0x00\n        /* \"#utility.yul\":677:678   */\n      dup1\n        /* \"#utility.yul\":670:682   */\n      revert\n        /* \"#utility.yul\":621:684   */\n    tag_91:\n        /* \"#utility.yul\":568:690   */\n      pop\n      jump\t// out\n        /* \"#utility.yul\":696:835   */\n    tag_64:\n        /* \"#utility.yul\":742:747   */\n      0x00\n        /* \"#utility.yul\":780:786   */\n      dup2\n        /* \"#utility.yul\":767:787   */\n      calldataload\n        /* \"#utility.yul\":758:787   */\n      swap1\n      pop\n        /* \"#utility.yul\":796:829   */\n      tag_93\n        /* \"#utility.yul\":823:828   */\n      dup2\n        /* \"#utility.yul\":796:829   */\n      tag_63\n      jump\t// in\n    tag_93:\n        /* \"#utility.yul\":696:835   */\n      swap3\n      swap2\n      pop\n      pop\n      jump\t// out\n        /* \"#utility.yul\":841:1170   */\n    tag_9:\n        /* \"#utility.yul\":900:906   */\n      0x00\n        /* \"#utility.yul\":949:951   */\n      0x20\n        /* \"#utility.yul\":937:946   */\n      dup3\n        /* \"#utility.yul\":928:935   */\n      dup5\n        /* \"#utility.yul\":924:947   */\n      sub\n        /* \"#utility.yul\":920:952   */\n      slt\n        /* \"#utility.yul\":917:1036   */\n      iszero\n      tag_95\n      jumpi\n        /* \"#utility.yul\":955:1034   */\n      tag_96\n      tag_59\n      jump\t// in\n    tag_96:\n        /* \"#utility.yul\":917:1036   */\n    tag_95:\n        /* \"#utility.yul\":1075:1076   */\n      0x00\n        /* \"#utility.yul\":1100:1153   */\n      tag_97\n        /* \"#utility.yul\":1145:1152   */\n      dup5\n        /* \"#utility.yul\":1136:1142   */\n      dup3\n        /* \"#utility.yul\":1125:1134   */\n      dup6\n        /* \"#utility.yul\":1121:1143   */\n      add\n        /* \"#utility.yul\":1100:1153   */\n      tag_64\n      jump\t// in\n    tag_97:\n        /* \"#utility.yul\":1090:1153   */\n      swap2\n      pop\n        /* \"#utility.yul\":1046:1163   */\n      pop\n        /* \"#utility.yul\":841:1170   */\n      swap3\n      swap2\n      pop\n      pop\n      jump\t// out\n        /* \"#utility.yul\":1176:1253   */\n    tag_65:\n        /* \"#utility.yul\":1213:1220   */\n      0x00\n        /* \"#utility.yul\":1242:1247   */\n      dup2\n        /* \"#utility.yul\":1231:1247   */\n      swap1\n      pop\n        /* \"#utility.yul\":1176:1253   */\n      swap2\n      swap1\n      pop\n      jump\t// out\n        /* \"#utility.yul\":1259:1377   */\n    tag_66:\n        /* \"#utility.yul\":1346:1370   */\n      tag_100\n        /* \"#utility.yul\":1364:1369   */\n      dup2\n        /* \"#utility.yul\":1346:1370   */\n      tag_65\n      jump\t// in\n    tag_100:\n        /* \"#utility.yul\":1341:1344   */\n      dup3\n        /* \"#utility.yul\":1334:1371   */\n      mstore\n        /* \"#utility.yul\":1259:1377   */\n      pop\n      pop\n      jump\t// out\n        /* \"#utility.yul\":1383:1605   */\n    tag_12:\n        /* \"#utility.yul\":1476:1480   */\n      0x00\n        /* \"#utility.yul\":1514:1516   */\n      0x20\n        /* \"#utility.yul\":1503:1512   */\n      dup3\n        /* \"#utility.yul\":1499:1517   */\n      add\n        /* \"#utility.yul\":1491:1517   */\n      swap1\n      pop\n        /* \"#utility.yul\":1527:1598   */\n      tag_102\n        /* \"#utility.yul\":1595:1596   */\n      0x00\n        /* \"#utility.yul\":1584:1593   */\n      dup4\n        /* \"#utility.yul\":1580:1597   */\n      add\n        /* \"#utility.yul\":1571:1577   */\n      dup5\n        /* \"#utility.yul\":1527:1598   */\n      tag_66\n      jump\t// in\n    tag_102:\n        /* \"#utility.yul\":1383:1605   */\n      swap3\n      swap2\n      pop\n      pop\n      jump\t// out\n        /* \"#utility.yul\":1611:1733   */\n    tag_67:\n        /* \"#utility.yul\":1684:1708   */\n      tag_104\n        /* \"#utility.yul\":1702:1707   */\n      dup2\n        /* \"#utility.yul\":1684:1708   */\n      tag_65\n      jump\t// in\n    tag_104:\n        /* \"#utility.yul\":1677:1682   */\n      dup2\n        /* \"#utility.yul\":1674:1709   */\n      eq\n        /* \"#utility.yul\":1664:1727   */\n      tag_105\n      jumpi\n        /* \"#utility.yul\":1723:1724   */\n      0x00\n        /* \"#utility.yul\":1720:1721   */\n      dup1\n        /* \"#utility.yul\":1713:1725   */\n      revert\n        /* \"#utility.yul\":1664:1727   */\n    tag_105:\n        /* \"#utility.yul\":1611:1733   */\n      pop\n      jump\t// out\n        /* \"#utility.yul\":1739:1878   */\n    tag_68:\n        /* \"#utility.yul\":1785:1790   */\n      0x00\n        /* \"#utility.yul\":1823:1829   */\n      dup2\n        /* \"#utility.yul\":1810:1830   */\n      calldataload\n        /* \"#utility.yul\":1801:1830   */\n      swap1\n      pop\n        /* \"#utility.yul\":1839:1872   */\n      tag_107\n        /* \"#utility.yul\":1866:1871   */\n      dup2\n        /* \"#utility.yul\":1839:1872   */\n      tag_67\n      jump\t// in\n    tag_107:\n        /* \"#utility.yul\":1739:1878   */\n      swap3\n      swap2\n      pop\n      pop\n      jump\t// out\n        /* \"#utility.yul\":1884:2213   */\n    tag_21:\n        /* \"#utility.yul\":1943:1949   */\n      0x00\n        /* \"#utility.yul\":1992:1994   */\n      0x20\n        /* \"#utility.yul\":1980:1989   */\n      dup3\n        /* \"#utility.yul\":1971:1978   */\n      dup5\n        /* \"#utility.yul\":1967:1990   */\n      sub\n        /* \"#utility.yul\":1963:1995   */\n      slt\n        /* \"#utility.yul\":1960:2079   */\n      iszero\n      tag_109\n      jumpi\n        /* \"#utility.yul\":1998:2077   */\n      tag_110\n      tag_59\n      jump\t// in\n    tag_110:\n        /* \"#utility.yul\":1960:2079   */\n    tag_109:\n        /* \"#utility.yul\":2118:2119   */\n      0x00\n        /* \"#utility.yul\":2143:2196   */\n      tag_111\n        /* \"#utility.yul\":2188:2195   */\n      dup5\n        /* \"#utility.yul\":2179:2185   */\n      dup3\n        /* \"#utility.yul\":2168:2177   */\n      dup6\n        /* \"#utility.yul\":2164:2186   */\n      add\n        /* \"#utility.yul\":2143:2196   */\n      tag_68\n      jump\t// in\n    tag_111:\n        /* \"#utility.yul\":2133:2196   */\n      swap2\n      pop\n        /* \"#utility.yul\":2089:2206   */\n      pop\n        /* \"#utility.yul\":1884:2213   */\n      swap3\n      swap2\n      pop\n      pop\n      jump\t// out\n        /* \"#utility.yul\":2219:2337   */\n    tag_69:\n        /* \"#utility.yul\":2306:2330   */\n      tag_113\n        /* \"#utility.yul\":2324:2329   */\n      dup2\n        /* \"#utility.yul\":2306:2330   */\n      tag_62\n      jump\t// in\n    tag_113:\n        /* \"#utility.yul\":2301:2304   */\n      dup3\n        /* \"#utility.yul\":2294:2331   */\n      mstore\n        /* \"#utility.yul\":2219:2337   */\n      pop\n      pop\n      jump\t// out\n        /* \"#utility.yul\":2343:2565   */\n    tag_24:\n        /* \"#utility.yul\":2436:2440   */\n      0x00\n        /* \"#utility.yul\":2474:2476   */\n      0x20\n        /* \"#utility.yul\":2463:2472   */\n      dup3\n        /* \"#utility.yul\":2459:2477   */\n      add\n        /* \"#utility.yul\":2451:2477   */\n      swap1\n      pop\n        /* \"#utility.yul\":2487:2558   */\n      tag_115\n        /* \"#utility.yul\":2555:2556   */\n      0x00\n        /* \"#utility.yul\":2544:2553   */\n      dup4\n        /* \"#utility.yul\":2540:2557   */\n      add\n        /* \"#utility.yul\":2531:2537   */\n      dup5\n        /* \"#utility.yul\":2487:2558   */\n      tag_69\n      jump\t// in\n    tag_115:\n        /* \"#utility.yul\":2343:2565   */\n      swap3\n      swap2\n      pop\n      pop\n      jump\t// out\n        /* \"#utility.yul\":2571:2751   */\n    tag_31:\n        /* \"#utility.yul\":2619:2696   */\n      0x4e487b7100000000000000000000000000000000000000000000000000000000\n        /* \"#utility.yul\":2616:2617   */\n      0x00\n        /* \"#utility.yul\":2609:2697   */\n      mstore\n        /* \"#utility.yul\":2716:2720   */\n      0x32\n        /* \"#utility.yul\":2713:2714   */\n      0x04\n        /* \"#utility.yul\":2706:2721   */\n      mstore\n        /* \"#utility.yul\":2740:2744   */\n      0x24\n        /* \"#utility.yul\":2737:2738   */\n      0x00\n        /* \"#utility.yul\":2730:2745   */\n      revert\n        /* \"#utility.yul\":2757:2926   */\n    tag_70:\n        /* \"#utility.yul\":2841:2852   */\n      0x00\n        /* \"#utility.yul\":2875:2881   */\n      dup3\n        /* \"#utility.yul\":2870:2873   */\n      dup3\n        /* \"#utility.yul\":2863:2882   */\n      mstore\n        /* \"#utility.yul\":2915:2919   */\n      0x20\n        /* \"#utility.yul\":2910:2913   */\n      dup3\n        /* \"#utility.yul\":2906:2920   */\n      add\n        /* \"#utility.yul\":2891:2920   */\n      swap1\n      pop\n        /* \"#utility.yul\":2757:2926   */\n      swap3\n      swap2\n      pop\n      pop\n      jump\t// out\n        /* \"#utility.yul\":2932:3107   */\n    tag_71:\n        /* \"#utility.yul\":3072:3099   */\n      0x4d696e696d756d20726571756972656420697320352055534400000000000000\n        /* \"#utility.yul\":3068:3069   */\n      0x00\n        /* \"#utility.yul\":3060:3066   */\n      dup3\n        /* \"#utility.yul\":3056:3070   */\n      add\n        /* \"#utility.yul\":3049:3100   */\n      mstore\n        /* \"#utility.yul\":2932:3107   */\n      pop\n      jump\t// out\n        /* \"#utility.yul\":3113:3479   */\n    tag_72:\n        /* \"#utility.yul\":3255:3258   */\n      0x00\n        /* \"#utility.yul\":3276:3343   */\n      tag_120\n        /* \"#utility.yul\":3340:3342   */\n      0x19\n        /* \"#utility.yul\":3335:3338   */\n      dup4\n        /* \"#utility.yul\":3276:3343   */\n      tag_70\n      jump\t// in\n    tag_120:\n        /* \"#utility.yul\":3269:3343   */\n      swap2\n      pop\n        /* \"#utility.yul\":3352:3445   */\n      tag_121\n        /* \"#utility.yul\":3441:3444   */\n      dup3\n        /* \"#utility.yul\":3352:3445   */\n      tag_71\n      jump\t// in\n    tag_121:\n        /* \"#utility.yul\":3470:3472   */\n      0x20\n        /* \"#utility.yul\":3465:3468   */\n      dup3\n        /* \"#utility.yul\":3461:3473   */\n      add\n        /* \"#utility.yul\":3454:3473   */\n      swap1\n      pop\n        /* \"#utility.yul\":3113:3479   */\n      swap2\n      swap1\n      pop\n      jump\t// out\n        /* \"#utility.yul\":3485:3904   */\n    tag_38:\n        /* \"#utility.yul\":3651:3655   */\n      0x00\n        /* \"#utility.yul\":3689:3691   */\n      0x20\n        /* \"#utility.yul\":3678:3687   */\n      dup3\n        /* \"#utility.yul\":3674:3692   */\n      add\n        /* \"#utility.yul\":3666:3692   */\n      swap1\n      pop\n        /* \"#utility.yul\":3738:3747   */\n      dup2\n        /* \"#utility.yul\":3732:3736   */\n      dup2\n        /* \"#utility.yul\":3728:3748   */\n      sub\n        /* \"#utility.yul\":3724:3725   */\n      0x00\n        /* \"#utility.yul\":3713:3722   */\n      dup4\n        /* \"#utility.yul\":3709:3726   */\n      add\n        /* \"#utility.yul\":3702:3749   */\n      mstore\n        /* \"#utility.yul\":3766:3897   */\n      tag_123\n        /* \"#utility.yul\":3892:3896   */\n      dup2\n        /* \"#utility.yul\":3766:3897   */\n      tag_72\n      jump\t// in\n    tag_123:\n        /* \"#utility.yul\":3758:3897   */\n      swap1\n      pop\n        /* \"#utility.yul\":3485:3904   */\n      swap2\n      swap1\n      pop\n      jump\t// out\n        /* \"#utility.yul\":3910:4090   */\n    tag_73:\n        /* \"#utility.yul\":3958:4035   */\n      0x4e487b7100000000000000000000000000000000000000000000000000000000\n        /* \"#utility.yul\":3955:3956   */\n      0x00\n        /* \"#utility.yul\":3948:4036   */\n      mstore\n        /* \"#utility.yul\":4055:4059   */\n      0x11\n        /* \"#utility.yul\":4052:4053   */\n      0x04\n        /* \"#utility.yul\":4045:4060   */\n      mstore\n        /* \"#utility.yul\":4079:4083   */\n      0x24\n        /* \"#utility.yul\":4076:4077   */\n      0x00\n        /* \"#utility.yul\":4069:4084   */\n      revert\n        /* \"#utility.yul\":4096:4287   */\n    tag_41:\n        /* \"#utility.yul\":4136:4139   */\n      0x00\n        /* \"#utility.yul\":4155:4175   */\n      tag_126\n        /* \"#utility.yul\":4173:4174   */\n      dup3\n        /* \"#utility.yul\":4155:4175   */\n      tag_65\n      jump\t// in\n    tag_126:\n        /* \"#utility.yul\":4150:4175   */\n      swap2\n      pop\n        /* \"#utility.yul\":4189:4209   */\n      tag_127\n        /* \"#utility.yul\":4207:4208   */\n      dup4\n        /* \"#utility.yul\":4189:4209   */\n      tag_65\n      jump\t// in\n    tag_127:\n        /* \"#utility.yul\":4184:4209   */\n      swap3\n      pop\n        /* \"#utility.yul\":4232:4233   */\n      dup3\n        /* \"#utility.yul\":4229:4230   */\n      dup3\n        /* \"#utility.yul\":4225:4234   */\n      add\n        /* \"#utility.yul\":4218:4234   */\n      swap1\n      pop\n        /* \"#utility.yul\":4253:4256   */\n      dup1\n        /* \"#utility.yul\":4250:4251   */\n      dup3\n        /* \"#utility.yul\":4247:4257   */\n      gt\n        /* \"#utility.yul\":4244:4280   */\n      iszero\n      tag_128\n      jumpi\n        /* \"#utility.yul\":4260:4278   */\n      tag_129\n      tag_73\n      jump\t// in\n    tag_129:\n        /* \"#utility.yul\":4244:4280   */\n    tag_128:\n        /* \"#utility.yul\":4096:4287   */\n      swap3\n      swap2\n      pop\n      pop\n      jump\t// out\n        /* \"#utility.yul\":4293:4703   */\n    tag_48:\n        /* \"#utility.yul\":4333:4340   */\n      0x00\n        /* \"#utility.yul\":4356:4376   */\n      tag_131\n        /* \"#utility.yul\":4374:4375   */\n      dup3\n        /* \"#utility.yul\":4356:4376   */\n      tag_65\n      jump\t// in\n    tag_131:\n        /* \"#utility.yul\":4351:4376   */\n      swap2\n      pop\n        /* \"#utility.yul\":4390:4410   */\n      tag_132\n        /* \"#utility.yul\":4408:4409   */\n      dup4\n        /* \"#utility.yul\":4390:4410   */\n      tag_65\n      jump\t// in\n    tag_132:\n        /* \"#utility.yul\":4385:4410   */\n      swap3\n      pop\n        /* \"#utility.yul\":4445:4446   */\n      dup3\n        /* \"#utility.yul\":4442:4443   */\n      dup3\n        /* \"#utility.yul\":4438:4447   */\n      mul\n        /* \"#utility.yul\":4467:4497   */\n      tag_133\n        /* \"#utility.yul\":4485:4496   */\n      dup2\n        /* \"#utility.yul\":4467:4497   */\n      tag_65\n      jump\t// in\n    tag_133:\n        /* \"#utility.yul\":4456:4497   */\n      swap2\n      pop\n        /* \"#utility.yul\":4646:4647   */\n      dup3\n        /* \"#utility.yul\":4637:4644   */\n      dup3\n        /* \"#utility.yul\":4633:4648   */\n      div\n        /* \"#utility.yul\":4630:4631   */\n      dup5\n        /* \"#utility.yul\":4627:4649   */\n      eq\n        /* \"#utility.yul\":4607:4608   */\n      dup4\n        /* \"#utility.yul\":4600:4609   */\n      iszero\n        /* \"#utility.yul\":4580:4663   */\n      or\n        /* \"#utility.yul\":4557:4696   */\n      tag_134\n      jumpi\n        /* \"#utility.yul\":4676:4694   */\n      tag_135\n      tag_73\n      jump\t// in\n    tag_135:\n        /* \"#utility.yul\":4557:4696   */\n    tag_134:\n        /* \"#utility.yul\":4341:4703   */\n      pop\n        /* \"#utility.yul\":4293:4703   */\n      swap3\n      swap2\n      pop\n      pop\n      jump\t// out\n        /* \"#utility.yul\":4709:4889   */\n    tag_74:\n        /* \"#utility.yul\":4757:4834   */\n      0x4e487b7100000000000000000000000000000000000000000000000000000000\n        /* \"#utility.yul\":4754:4755   */\n      0x00\n        /* \"#utility.yul\":4747:4835   */\n      mstore\n        /* \"#utility.yul\":4854:4858   */\n      0x12\n        /* \"#utility.yul\":4851:4852   */\n      0x04\n        /* \"#utility.yul\":4844:4859   */\n      mstore\n        /* \"#utility.yul\":4878:4882   */\n      0x24\n        /* \"#utility.yul\":4875:4876   */\n      0x00\n        /* \"#utility.yul\":4868:4883   */\n      revert\n        /* \"#utility.yul\":4895:5080   */\n    tag_50:\n        /* \"#utility.yul\":4935:4936   */\n      0x00\n        /* \"#utility.yul\":4952:4972   */\n      tag_138\n        /* \"#utility.yul\":4970:4971   */\n      dup3\n        /* \"#utility.yul\":4952:4972   */\n      tag_65\n      jump\t// in\n    tag_138:\n        /* \"#utility.yul\":4947:4972   */\n      swap2\n      pop\n        /* \"#utility.yul\":4986:5006   */\n      tag_139\n        /* \"#utility.yul\":5004:5005   */\n      dup4\n        /* \"#utility.yul\":4986:5006   */\n      tag_65\n      jump\t// in\n    tag_139:\n        /* \"#utility.yul\":4981:5006   */\n      swap3\n      pop\n        /* \"#utility.yul\":5025:5026   */\n      dup3\n        /* \"#utility.yul\":5015:5050   */\n      tag_140\n      jumpi\n        /* \"#utility.yul\":5030:5048   */\n      tag_141\n      tag_74\n      jump\t// in\n    tag_141:\n        /* \"#utility.yul\":5015:5050   */\n    tag_140:\n        /* \"#utility.yul\":5072:5073   */\n      dup3\n        /* \"#utility.yul\":5069:5070   */\n      dup3\n        /* \"#utility.yul\":5065:5074   */\n      div\n        /* \"#utility.yul\":5060:5074   */\n      swap1\n      pop\n        /* \"#utility.yul\":4895:5080   */\n      swap3\n      swap2\n      pop\n      pop\n      jump\t// out\n        /* \"#utility.yul\":5086:5191   */\n    tag_75:\n        /* \"#utility.yul\":5122:5129   */\n      0x00\n        /* \"#utility.yul\":5162:5184   */\n      0xffffffffffffffffffff\n        /* \"#utility.yul\":5155:5160   */\n      dup3\n        /* \"#utility.yul\":5151:5185   */\n      and\n        /* \"#utility.yul\":5140:5185   */\n      swap1\n      pop\n        /* \"#utility.yul\":5086:5191   */\n      swap2\n      swap1\n      pop\n      jump\t// out\n        /* \"#utility.yul\":5197:5317   */\n    tag_76:\n        /* \"#utility.yul\":5269:5292   */\n      tag_144\n        /* \"#utility.yul\":5286:5291   */\n      dup2\n        /* \"#utility.yul\":5269:5292   */\n      tag_75\n      jump\t// in\n    tag_144:\n        /* \"#utility.yul\":5262:5267   */\n      dup2\n        /* \"#utility.yul\":5259:5293   */\n      eq\n        /* \"#utility.yul\":5249:5311   */\n      tag_145\n      jumpi\n        /* \"#utility.yul\":5307:5308   */\n      0x00\n        /* \"#utility.yul\":5304:5305   */\n      dup1\n        /* \"#utility.yul\":5297:5309   */\n      revert\n        /* \"#utility.yul\":5249:5311   */\n    tag_145:\n        /* \"#utility.yul\":5197:5317   */\n      pop\n      jump\t// out\n        /* \"#utility.yul\":5323:5464   */\n    tag_77:\n        /* \"#utility.yul\":5379:5384   */\n      0x00\n        /* \"#utility.yul\":5410:5416   */\n      dup2\n        /* \"#utility.yul\":5404:5417   */\n      mload\n        /* \"#utility.yul\":5395:5417   */\n      swap1\n      pop\n        /* \"#utility.yul\":5426:5458   */\n      tag_147\n        /* \"#utility.yul\":5452:5457   */\n      dup2\n        /* \"#utility.yul\":5426:5458   */\n      tag_76\n      jump\t// in\n    tag_147:\n        /* \"#utility.yul\":5323:5464   */\n      swap3\n      swap2\n      pop\n      pop\n      jump\t// out\n        /* \"#utility.yul\":5470:5546   */\n    tag_78:\n        /* \"#utility.yul\":5506:5513   */\n      0x00\n        /* \"#utility.yul\":5535:5540   */\n      dup2\n        /* \"#utility.yul\":5524:5540   */\n      swap1\n      pop\n        /* \"#utility.yul\":5470:5546   */\n      swap2\n      swap1\n      pop\n      jump\t// out\n        /* \"#utility.yul\":5552:5672   */\n    tag_79:\n        /* \"#utility.yul\":5624:5647   */\n      tag_150\n        /* \"#utility.yul\":5641:5646   */\n      dup2\n        /* \"#utility.yul\":5624:5647   */\n      tag_78\n      jump\t// in\n    tag_150:\n        /* \"#utility.yul\":5617:5622   */\n      dup2\n        /* \"#utility.yul\":5614:5648   */\n      eq\n        /* \"#utility.yul\":5604:5666   */\n      tag_151\n      jumpi\n        /* \"#utility.yul\":5662:5663   */\n      0x00\n        /* \"#utility.yul\":5659:5660   */\n      dup1\n        /* \"#utility.yul\":5652:5664   */\n      revert\n        /* \"#utility.yul\":5604:5666   */\n    tag_151:\n        /* \"#utility.yul\":5552:5672   */\n      pop\n      jump\t// out\n        /* \"#utility.yul\":5678:5819   */\n    tag_80:\n        /* \"#utility.yul\":5734:5739   */\n      0x00\n        /* \"#utility.yul\":5765:5771   */\n      dup2\n        /* \"#utility.yul\":5759:5772   */\n      mload\n        /* \"#utility.yul\":5750:5772   */\n      swap1\n      pop\n        /* \"#utility.yul\":5781:5813   */\n      tag_153\n        /* \"#utility.yul\":5807:5812   */\n      dup2\n        /* \"#utility.yul\":5781:5813   */\n      tag_79\n      jump\t// in\n    tag_153:\n        /* \"#utility.yul\":5678:5819   */\n      swap3\n      swap2\n      pop\n      pop\n      jump\t// out\n        /* \"#utility.yul\":5825:5968   */\n    tag_81:\n        /* \"#utility.yul\":5882:5887   */\n      0x00\n        /* \"#utility.yul\":5913:5919   */\n      dup2\n        /* \"#utility.yul\":5907:5920   */\n      mload\n        /* \"#utility.yul\":5898:5920   */\n      swap1\n      pop\n        /* \"#utility.yul\":5929:5962   */\n      tag_155\n        /* \"#utility.yul\":5956:5961   */\n      dup2\n        /* \"#utility.yul\":5929:5962   */\n      tag_67\n      jump\t// in\n    tag_155:\n        /* \"#utility.yul\":5825:5968   */\n      swap3\n      swap2\n      pop\n      pop\n      jump\t// out\n        /* \"#utility.yul\":5974:6945   */\n    tag_55:\n        /* \"#utility.yul\":6077:6083   */\n      0x00\n        /* \"#utility.yul\":6085:6091   */\n      dup1\n        /* \"#utility.yul\":6093:6099   */\n      0x00\n        /* \"#utility.yul\":6101:6107   */\n      dup1\n        /* \"#utility.yul\":6109:6115   */\n      0x00\n        /* \"#utility.yul\":6158:6161   */\n      0xa0\n        /* \"#utility.yul\":6146:6155   */\n      dup7\n        /* \"#utility.yul\":6137:6144   */\n      dup9\n        /* \"#utility.yul\":6133:6156   */\n      sub\n        /* \"#utility.yul\":6129:6162   */\n      slt\n        /* \"#utility.yul\":6126:6246   */\n      iszero\n      tag_157\n      jumpi\n        /* \"#utility.yul\":6165:6244   */\n      tag_158\n      tag_59\n      jump\t// in\n    tag_158:\n        /* \"#utility.yul\":6126:6246   */\n    tag_157:\n        /* \"#utility.yul\":6285:6286   */\n      0x00\n        /* \"#utility.yul\":6310:6373   */\n      tag_159\n        /* \"#utility.yul\":6365:6372   */\n      dup9\n        /* \"#utility.yul\":6356:6362   */\n      dup3\n        /* \"#utility.yul\":6345:6354   */\n      dup10\n        /* \"#utility.yul\":6341:6363   */\n      add\n        /* \"#utility.yul\":6310:6373   */\n      tag_77\n      jump\t// in\n    tag_159:\n        /* \"#utility.yul\":6300:6373   */\n      swap6\n      pop\n        /* \"#utility.yul\":6256:6383   */\n      pop\n        /* \"#utility.yul\":6422:6424   */\n      0x20\n        /* \"#utility.yul\":6448:6511   */\n      tag_160\n        /* \"#utility.yul\":6503:6510   */\n      dup9\n        /* \"#utility.yul\":6494:6500   */\n      dup3\n        /* \"#utility.yul\":6483:6492   */\n      dup10\n        /* \"#utility.yul\":6479:6501   */\n      add\n        /* \"#utility.yul\":6448:6511   */\n      tag_80\n      jump\t// in\n    tag_160:\n        /* \"#utility.yul\":6438:6511   */\n      swap5\n      pop\n        /* \"#utility.yul\":6393:6521   */\n      pop\n        /* \"#utility.yul\":6560:6562   */\n      0x40\n        /* \"#utility.yul\":6586:6650   */\n      tag_161\n        /* \"#utility.yul\":6642:6649   */\n      dup9\n        /* \"#utility.yul\":6633:6639   */\n      dup3\n        /* \"#utility.yul\":6622:6631   */\n      dup10\n        /* \"#utility.yul\":6618:6640   */\n      add\n        /* \"#utility.yul\":6586:6650   */\n      tag_81\n      jump\t// in\n    tag_161:\n        /* \"#utility.yul\":6576:6650   */\n      swap4\n      pop\n        /* \"#utility.yul\":6531:6660   */\n      pop\n        /* \"#utility.yul\":6699:6701   */\n      0x60\n        /* \"#utility.yul\":6725:6789   */\n      tag_162\n        /* \"#utility.yul\":6781:6788   */\n      dup9\n        /* \"#utility.yul\":6772:6778   */\n      dup3\n        /* \"#utility.yul\":6761:6770   */\n      dup10\n        /* \"#utility.yul\":6757:6779   */\n      add\n        /* \"#utility.yul\":6725:6789   */\n      tag_81\n      jump\t// in\n    tag_162:\n        /* \"#utility.yul\":6715:6789   */\n      swap3\n      pop\n        /* \"#utility.yul\":6670:6799   */\n      pop\n        /* \"#utility.yul\":6838:6841   */\n      0x80\n        /* \"#utility.yul\":6865:6928   */\n      tag_163\n        /* \"#utility.yul\":6920:6927   */\n      dup9\n        /* \"#utility.yul\":6911:6917   */\n      dup3\n        /* \"#utility.yul\":6900:6909   */\n      dup10\n        /* \"#utility.yul\":6896:6918   */\n      add\n        /* \"#utility.yul\":6865:6928   */\n      tag_77\n      jump\t// in\n    tag_163:\n        /* \"#utility.yul\":6855:6928   */\n      swap2\n      pop\n        /* \"#utility.yul\":6809:6938   */\n      pop\n        /* \"#utility.yul\":5974:6945   */\n      swap3\n      swap6\n      pop\n      swap3\n      swap6\n      swap1\n      swap4\n      pop\n      jump\t// out\n        /* \"#utility.yul\":6951:7507   */\n    tag_57:\n        /* \"#utility.yul\":6990:6997   */\n      0x00\n        /* \"#utility.yul\":7013:7032   */\n      tag_165\n        /* \"#utility.yul\":7030:7031   */\n      dup3\n        /* \"#utility.yul\":7013:7032   */\n      tag_78\n      jump\t// in\n    tag_165:\n        /* \"#utility.yul\":7008:7032   */\n      swap2\n      pop\n        /* \"#utility.yul\":7046:7065   */\n      tag_166\n        /* \"#utility.yul\":7063:7064   */\n      dup4\n        /* \"#utility.yul\":7046:7065   */\n      tag_78\n      jump\t// in\n    tag_166:\n        /* \"#utility.yul\":7041:7065   */\n      swap3\n      pop\n        /* \"#utility.yul\":7100:7101   */\n      dup3\n        /* \"#utility.yul\":7097:7098   */\n      dup3\n        /* \"#utility.yul\":7093:7102   */\n      mul\n        /* \"#utility.yul\":7122:7151   */\n      tag_167\n        /* \"#utility.yul\":7139:7150   */\n      dup2\n        /* \"#utility.yul\":7122:7151   */\n      tag_78\n      jump\t// in\n    tag_167:\n        /* \"#utility.yul\":7111:7151   */\n      swap2\n      pop\n        /* \"#utility.yul\":7209:7275   */\n      0x8000000000000000000000000000000000000000000000000000000000000000\n        /* \"#utility.yul\":7206:7207   */\n      dup5\n        /* \"#utility.yul\":7203:7276   */\n      eq\n        /* \"#utility.yul\":7199:7200   */\n      0x00\n        /* \"#utility.yul\":7196:7197   */\n      dup5\n        /* \"#utility.yul\":7192:7201   */\n      slt\n        /* \"#utility.yul\":7188:7277   */\n      and\n        /* \"#utility.yul\":7185:7300   */\n      iszero\n      tag_168\n      jumpi\n        /* \"#utility.yul\":7280:7298   */\n      tag_169\n      tag_73\n      jump\t// in\n    tag_169:\n        /* \"#utility.yul\":7185:7300   */\n    tag_168:\n        /* \"#utility.yul\":7450:7451   */\n      dup3\n        /* \"#utility.yul\":7441:7448   */\n      dup3\n        /* \"#utility.yul\":7436:7452   */\n      sdiv\n        /* \"#utility.yul\":7433:7434   */\n      dup5\n        /* \"#utility.yul\":7430:7453   */\n      eq\n        /* \"#utility.yul\":7410:7411   */\n      dup4\n        /* \"#utility.yul\":7403:7412   */\n      iszero\n        /* \"#utility.yul\":7383:7467   */\n      or\n        /* \"#utility.yul\":7360:7500   */\n      tag_170\n      jumpi\n        /* \"#utility.yul\":7480:7498   */\n      tag_171\n      tag_73\n      jump\t// in\n    tag_171:\n        /* \"#utility.yul\":7360:7500   */\n    tag_170:\n        /* \"#utility.yul\":6998:7507   */\n      pop\n        /* \"#utility.yul\":6951:7507   */\n      swap3\n      swap2\n      pop\n      pop\n      jump\t// out\n\n    auxdata: 0xa2646970667358221220c397a62551716fd285c4a48e48def6920ada1ff4611cd0202de5f226de7e980b64736f6c634300081a0033\n}\n",
				"bytecode": {
					"linkReferences": {},
					"object": "608060405260055f553480156012575f80fd5b5061082c806100205f395ff3fe60806040526004361061003e575f3560e01c80633e47d6f314610042578063b07d55261461007e578063b60d428814610094578063dc0d3dff1461009e575b5f80fd5b34801561004d575f80fd5b5061006860048036038101906100639190610407565b6100da565b604051610075919061044a565b60405180910390f35b348015610089575f80fd5b506100926100ef565b005b61009c610190565b005b3480156100a9575f80fd5b506100c460048036038101906100bf919061048d565b610291565b6040516100d191906104c7565b60405180910390f35b6002602052805f5260405f205f915090505481565b5f5b60018054905081101561018d575f60018281548110610113576101126104e0565b5b905f5260205f20015f9054906101000a900473ffffffffffffffffffffffffffffffffffffffff1690505f60025f8373ffffffffffffffffffffffffffffffffffffffff1673ffffffffffffffffffffffffffffffffffffffff1681526020019081526020015f20819055505080806001019150506100f1565b50565b5f5461019b346102cc565b10156101dc576040517f08c379a00000000000000000000000000000000000000000000000000000000081526004016101d390610567565b60405180910390fd5b600133908060018154018082558091505060019003905f5260205f20015f9091909190916101000a81548173ffffffffffffffffffffffffffffffffffffffff021916908373ffffffffffffffffffffffffffffffffffffffff1602179055503460025f3373ffffffffffffffffffffffffffffffffffffffff1673ffffffffffffffffffffffffffffffffffffffff1681526020019081526020015f205f82825461028891906105b2565b92505081905550565b600181815481106102a0575f80fd5b905f5260205f20015f915054906101000a900473ffffffffffffffffffffffffffffffffffffffff1681565b5f806102d6610304565b90505f670de0b6b3a764000084836102ee91906105e5565b6102f89190610653565b90508092505050919050565b5f8073694aa1769357215de4fac081bf1f309adc32530690505f8173ffffffffffffffffffffffffffffffffffffffff1663feaf968c6040518163ffffffff1660e01b815260040160a060405180830381865afa158015610367573d5f803e3d5ffd5b505050506040513d601f19601f8201168201806040525081019061038b9190610709565b5050509150506402540be400816103a29190610780565b9250505090565b5f80fd5b5f73ffffffffffffffffffffffffffffffffffffffff82169050919050565b5f6103d6826103ad565b9050919050565b6103e6816103cc565b81146103f0575f80fd5b50565b5f81359050610401816103dd565b92915050565b5f6020828403121561041c5761041b6103a9565b5b5f610429848285016103f3565b91505092915050565b5f819050919050565b61044481610432565b82525050565b5f60208201905061045d5f83018461043b565b92915050565b61046c81610432565b8114610476575f80fd5b50565b5f8135905061048781610463565b92915050565b5f602082840312156104a2576104a16103a9565b5b5f6104af84828501610479565b91505092915050565b6104c1816103cc565b82525050565b5f6020820190506104da5f8301846104b8565b92915050565b7f4e487b71000000000000000000000000000000000000000000000000000000005f52603260045260245ffd5b5f82825260208201905092915050565b7f4d696e696d756d207265717569726564206973203520555344000000000000005f82015250565b5f61055160198361050d565b915061055c8261051d565b602082019050919050565b5f6020820190508181035f83015261057e81610545565b9050919050565b7f4e487b71000000000000000000000000000000000000000000000000000000005f52601160045260245ffd5b5f6105bc82610432565b91506105c783610432565b92508282019050808211156105df576105de610585565b5b92915050565b5f6105ef82610432565b91506105fa83610432565b925082820261060881610432565b9150828204841483151761061f5761061e610585565b5b5092915050565b7f4e487b71000000000000000000000000000000000000000000000000000000005f52601260045260245ffd5b5f61065d82610432565b915061066883610432565b92508261067857610677610626565b5b828204905092915050565b5f69ffffffffffffffffffff82169050919050565b6106a181610683565b81146106ab575f80fd5b50565b5f815190506106bc81610698565b92915050565b5f819050919050565b6106d4816106c2565b81146106de575f80fd5b50565b5f815190506106ef816106cb565b92915050565b5f8151905061070381610463565b92915050565b5f805f805f60a08688031215610722576107216103a9565b5b5f61072f888289016106ae565b9550506020610740888289016106e1565b9450506040610751888289016106f5565b9350506060610762888289016106f5565b9250506080610773888289016106ae565b9150509295509295909350565b5f61078a826106c2565b9150610795836106c2565b92508282026107a3816106c2565b91507f800000000000000000000000000000000000000000000000000000000000000084145f841216156107da576107d9610585565b5b82820584148315176107ef576107ee610585565b5b509291505056fea2646970667358221220c397a62551716fd285c4a48e48def6920ada1ff4611cd0202de5f226de7e980b64736f6c634300081a0033",
					"opcodes": "PUSH1 0x80 PUSH1 0x40 MSTORE PUSH1 0x5 PUSH0 SSTORE CALLVALUE DUP1 ISZERO PUSH1 0x12 JUMPI PUSH0 DUP1 REVERT JUMPDEST POP PUSH2 0x82C DUP1 PUSH2 0x20 PUSH0 CODECOPY PUSH0 RETURN INVALID PUSH1 0x80 PUSH1 0x40 MSTORE PUSH1 0x4 CALLDATASIZE LT PUSH2 0x3E JUMPI PUSH0 CALLDATALOAD PUSH1 0xE0 SHR DUP1 PUSH4 0x3E47D6F3 EQ PUSH2 0x42 JUMPI DUP1 PUSH4 0xB07D5526 EQ PUSH2 0x7E JUMPI DUP1 PUSH4 0xB60D4288 EQ PUSH2 0x94 JUMPI DUP1 PUSH4 0xDC0D3DFF EQ PUSH2 0x9E JUMPI JUMPDEST PUSH0 DUP1 REVERT JUMPDEST CALLVALUE DUP1 ISZERO PUSH2 0x4D JUMPI PUSH0 DUP1 REVERT JUMPDEST POP PUSH2 0x68 PUSH1 0x4 DUP1 CALLDATASIZE SUB DUP2 ADD SWAP1 PUSH2 0x63 SWAP2 SWAP1 PUSH2 0x407 JUMP JUMPDEST PUSH2 0xDA JUMP JUMPDEST PUSH1 0x40 MLOAD PUSH2 0x75 SWAP2 SWAP1 PUSH2 0x44A JUMP JUMPDEST PUSH1 0x40 MLOAD DUP1 SWAP2 SUB SWAP1 RETURN JUMPDEST CALLVALUE DUP1 ISZERO PUSH2 0x89 JUMPI PUSH0 DUP1 REVERT JUMPDEST POP PUSH2 0x92 PUSH2 0xEF JUMP JUMPDEST STOP JUMPDEST PUSH2 0x9C PUSH2 0x190 JUMP JUMPDEST STOP JUMPDEST CALLVALUE DUP1 ISZERO PUSH2 0xA9 JUMPI PUSH0 DUP1 REVERT JUMPDEST POP PUSH2 0xC4 PUSH1 0x4 DUP1 CALLDATASIZE SUB DUP2 ADD SWAP1 PUSH2 0xBF SWAP2 SWAP1 PUSH2 0x48D JUMP JUMPDEST PUSH2 0x291 JUMP JUMPDEST PUSH1 0x40 MLOAD PUSH2 0xD1 SWAP2 SWAP1 PUSH2 0x4C7 JUMP JUMPDEST PUSH1 0x40 MLOAD DUP1 SWAP2 SUB SWAP1 RETURN JUMPDEST PUSH1 0x2 PUSH1 0x20 MSTORE DUP1 PUSH0 MSTORE PUSH1 0x40 PUSH0 KECCAK256 PUSH0 SWAP2 POP SWAP1 POP SLOAD DUP2 JUMP JUMPDEST PUSH0 JUMPDEST PUSH1 0x1 DUP1 SLOAD SWAP1 POP DUP2 LT ISZERO PUSH2 0x18D JUMPI PUSH0 PUSH1 0x1 DUP3 DUP2 SLOAD DUP2 LT PUSH2 0x113 JUMPI PUSH2 0x112 PUSH2 0x4E0 JUMP JUMPDEST JUMPDEST SWAP1 PUSH0 MSTORE PUSH1 0x20 PUSH0 KECCAK256 ADD PUSH0 SWAP1 SLOAD SWAP1 PUSH2 0x100 EXP SWAP1 DIV PUSH20 0xFFFFFFFFFFFFFFFFFFFFFFFFFFFFFFFFFFFFFFFF AND SWAP1 POP PUSH0 PUSH1 0x2 PUSH0 DUP4 PUSH20 0xFFFFFFFFFFFFFFFFFFFFFFFFFFFFFFFFFFFFFFFF AND PUSH20 0xFFFFFFFFFFFFFFFFFFFFFFFFFFFFFFFFFFFFFFFF AND DUP2 MSTORE PUSH1 0x20 ADD SWAP1 DUP2 MSTORE PUSH1 0x20 ADD PUSH0 KECCAK256 DUP2 SWAP1 SSTORE POP POP DUP1 DUP1 PUSH1 0x1 ADD SWAP2 POP POP PUSH2 0xF1 JUMP JUMPDEST POP JUMP JUMPDEST PUSH0 SLOAD PUSH2 0x19B CALLVALUE PUSH2 0x2CC JUMP JUMPDEST LT ISZERO PUSH2 0x1DC JUMPI PUSH1 0x40 MLOAD PUSH32 0x8C379A000000000000000000000000000000000000000000000000000000000 DUP2 MSTORE PUSH1 0x4 ADD PUSH2 0x1D3 SWAP1 PUSH2 0x567 JUMP JUMPDEST PUSH1 0x40 MLOAD DUP1 SWAP2 SUB SWAP1 REVERT JUMPDEST PUSH1 0x1 CALLER SWAP1 DUP1 PUSH1 0x1 DUP2 SLOAD ADD DUP1 DUP3 SSTORE DUP1 SWAP2 POP POP PUSH1 0x1 SWAP1 SUB SWAP1 PUSH0 MSTORE PUSH1 0x20 PUSH0 KECCAK256 ADD PUSH0 SWAP1 SWAP2 SWAP1 SWAP2 SWAP1 SWAP2 PUSH2 0x100 EXP DUP2 SLOAD DUP2 PUSH20 0xFFFFFFFFFFFFFFFFFFFFFFFFFFFFFFFFFFFFFFFF MUL NOT AND SWAP1 DUP4 PUSH20 0xFFFFFFFFFFFFFFFFFFFFFFFFFFFFFFFFFFFFFFFF AND MUL OR SWAP1 SSTORE POP CALLVALUE PUSH1 0x2 PUSH0 CALLER PUSH20 0xFFFFFFFFFFFFFFFFFFFFFFFFFFFFFFFFFFFFFFFF AND PUSH20 0xFFFFFFFFFFFFFFFFFFFFFFFFFFFFFFFFFFFFFFFF AND DUP2 MSTORE PUSH1 0x20 ADD SWAP1 DUP2 MSTORE PUSH1 0x20 ADD PUSH0 KECCAK256 PUSH0 DUP3 DUP3 SLOAD PUSH2 0x288 SWAP2 SWAP1 PUSH2 0x5B2 JUMP JUMPDEST SWAP3 POP POP DUP2 SWAP1 SSTORE POP JUMP JUMPDEST PUSH1 0x1 DUP2 DUP2 SLOAD DUP2 LT PUSH2 0x2A0 JUMPI PUSH0 DUP1 REVERT JUMPDEST SWAP1 PUSH0 MSTORE PUSH1 0x20 PUSH0 KECCAK256 ADD PUSH0 SWAP2 POP SLOAD SWAP1 PUSH2 0x100 EXP SWAP1 DIV PUSH20 0xFFFFFFFFFFFFFFFFFFFFFFFFFFFFFFFFFFFFFFFF AND DUP2 JUMP JUMPDEST PUSH0 DUP1 PUSH2 0x2D6 PUSH2 0x304 JUMP JUMPDEST SWAP1 POP PUSH0 PUSH8 0xDE0B6B3A7640000 DUP5 DUP4 PUSH2 0x2EE SWAP2 SWAP1 PUSH2 0x5E5 JUMP JUMPDEST PUSH2 0x2F8 SWAP2 SWAP1 PUSH2 0x653 JUMP JUMPDEST SWAP1 POP DUP1 SWAP3 POP POP POP SWAP2 SWAP1 POP JUMP JUMPDEST PUSH0 DUP1 PUSH20 0x694AA1769357215DE4FAC081BF1F309ADC325306 SWAP1 POP PUSH0 DUP2 PUSH20 0xFFFFFFFFFFFFFFFFFFFFFFFFFFFFFFFFFFFFFFFF AND PUSH4 0xFEAF968C PUSH1 0x40 MLOAD DUP2 PUSH4 0xFFFFFFFF AND PUSH1 0xE0 SHL DUP2 MSTORE PUSH1 0x4 ADD PUSH1 0xA0 PUSH1 0x40 MLOAD DUP1 DUP4 SUB DUP2 DUP7 GAS STATICCALL ISZERO DUP1 ISZERO PUSH2 0x367 JUMPI RETURNDATASIZE PUSH0 DUP1 RETURNDATACOPY RETURNDATASIZE PUSH0 REVERT JUMPDEST POP POP POP POP PUSH1 0x40 MLOAD RETURNDATASIZE PUSH1 0x1F NOT PUSH1 0x1F DUP3 ADD AND DUP3 ADD DUP1 PUSH1 0x40 MSTORE POP DUP2 ADD SWAP1 PUSH2 0x38B SWAP2 SWAP1 PUSH2 0x709 JUMP JUMPDEST POP POP POP SWAP2 POP POP PUSH5 0x2540BE400 DUP2 PUSH2 0x3A2 SWAP2 SWAP1 PUSH2 0x780 JUMP JUMPDEST SWAP3 POP POP POP SWAP1 JUMP JUMPDEST PUSH0 DUP1 REVERT JUMPDEST PUSH0 PUSH20 0xFFFFFFFFFFFFFFFFFFFFFFFFFFFFFFFFFFFFFFFF DUP3 AND SWAP1 POP SWAP2 SWAP1 POP JUMP JUMPDEST PUSH0 PUSH2 0x3D6 DUP3 PUSH2 0x3AD JUMP JUMPDEST SWAP1 POP SWAP2 SWAP1 POP JUMP JUMPDEST PUSH2 0x3E6 DUP2 PUSH2 0x3CC JUMP JUMPDEST DUP2 EQ PUSH2 0x3F0 JUMPI PUSH0 DUP1 REVERT JUMPDEST POP JUMP JUMPDEST PUSH0 DUP2 CALLDATALOAD SWAP1 POP PUSH2 0x401 DUP2 PUSH2 0x3DD JUMP JUMPDEST SWAP3 SWAP2 POP POP JUMP JUMPDEST PUSH0 PUSH1 0x20 DUP3 DUP5 SUB SLT ISZERO PUSH2 0x41C JUMPI PUSH2 0x41B PUSH2 0x3A9 JUMP JUMPDEST JUMPDEST PUSH0 PUSH2 0x429 DUP5 DUP3 DUP6 ADD PUSH2 0x3F3 JUMP JUMPDEST SWAP2 POP POP SWAP3 SWAP2 POP POP JUMP JUMPDEST PUSH0 DUP2 SWAP1 POP SWAP2 SWAP1 POP JUMP JUMPDEST PUSH2 0x444 DUP2 PUSH2 0x432 JUMP JUMPDEST DUP3 MSTORE POP POP JUMP JUMPDEST PUSH0 PUSH1 0x20 DUP3 ADD SWAP1 POP PUSH2 0x45D PUSH0 DUP4 ADD DUP5 PUSH2 0x43B JUMP JUMPDEST SWAP3 SWAP2 POP POP JUMP JUMPDEST PUSH2 0x46C DUP2 PUSH2 0x432 JUMP JUMPDEST DUP2 EQ PUSH2 0x476 JUMPI PUSH0 DUP1 REVERT JUMPDEST POP JUMP JUMPDEST PUSH0 DUP2 CALLDATALOAD SWAP1 POP PUSH2 0x487 DUP2 PUSH2 0x463 JUMP JUMPDEST SWAP3 SWAP2 POP POP JUMP JUMPDEST PUSH0 PUSH1 0x20 DUP3 DUP5 SUB SLT ISZERO PUSH2 0x4A2 JUMPI PUSH2 0x4A1 PUSH2 0x3A9 JUMP JUMPDEST JUMPDEST PUSH0 PUSH2 0x4AF DUP5 DUP3 DUP6 ADD PUSH2 0x479 JUMP JUMPDEST SWAP2 POP POP SWAP3 SWAP2 POP POP JUMP JUMPDEST PUSH2 0x4C1 DUP2 PUSH2 0x3CC JUMP JUMPDEST DUP3 MSTORE POP POP JUMP JUMPDEST PUSH0 PUSH1 0x20 DUP3 ADD SWAP1 POP PUSH2 0x4DA PUSH0 DUP4 ADD DUP5 PUSH2 0x4B8 JUMP JUMPDEST SWAP3 SWAP2 POP POP JUMP JUMPDEST PUSH32 0x4E487B7100000000000000000000000000000000000000000000000000000000 PUSH0 MSTORE PUSH1 0x32 PUSH1 0x4 MSTORE PUSH1 0x24 PUSH0 REVERT JUMPDEST PUSH0 DUP3 DUP3 MSTORE PUSH1 0x20 DUP3 ADD SWAP1 POP SWAP3 SWAP2 POP POP JUMP JUMPDEST PUSH32 0x4D696E696D756D20726571756972656420697320352055534400000000000000 PUSH0 DUP3 ADD MSTORE POP JUMP JUMPDEST PUSH0 PUSH2 0x551 PUSH1 0x19 DUP4 PUSH2 0x50D JUMP JUMPDEST SWAP2 POP PUSH2 0x55C DUP3 PUSH2 0x51D JUMP JUMPDEST PUSH1 0x20 DUP3 ADD SWAP1 POP SWAP2 SWAP1 POP JUMP JUMPDEST PUSH0 PUSH1 0x20 DUP3 ADD SWAP1 POP DUP2 DUP2 SUB PUSH0 DUP4 ADD MSTORE PUSH2 0x57E DUP2 PUSH2 0x545 JUMP JUMPDEST SWAP1 POP SWAP2 SWAP1 POP JUMP JUMPDEST PUSH32 0x4E487B7100000000000000000000000000000000000000000000000000000000 PUSH0 MSTORE PUSH1 0x11 PUSH1 0x4 MSTORE PUSH1 0x24 PUSH0 REVERT JUMPDEST PUSH0 PUSH2 0x5BC DUP3 PUSH2 0x432 JUMP JUMPDEST SWAP2 POP PUSH2 0x5C7 DUP4 PUSH2 0x432 JUMP JUMPDEST SWAP3 POP DUP3 DUP3 ADD SWAP1 POP DUP1 DUP3 GT ISZERO PUSH2 0x5DF JUMPI PUSH2 0x5DE PUSH2 0x585 JUMP JUMPDEST JUMPDEST SWAP3 SWAP2 POP POP JUMP JUMPDEST PUSH0 PUSH2 0x5EF DUP3 PUSH2 0x432 JUMP JUMPDEST SWAP2 POP PUSH2 0x5FA DUP4 PUSH2 0x432 JUMP JUMPDEST SWAP3 POP DUP3 DUP3 MUL PUSH2 0x608 DUP2 PUSH2 0x432 JUMP JUMPDEST SWAP2 POP DUP3 DUP3 DIV DUP5 EQ DUP4 ISZERO OR PUSH2 0x61F JUMPI PUSH2 0x61E PUSH2 0x585 JUMP JUMPDEST JUMPDEST POP SWAP3 SWAP2 POP POP JUMP JUMPDEST PUSH32 0x4E487B7100000000000000000000000000000000000000000000000000000000 PUSH0 MSTORE PUSH1 0x12 PUSH1 0x4 MSTORE PUSH1 0x24 PUSH0 REVERT JUMPDEST PUSH0 PUSH2 0x65D DUP3 PUSH2 0x432 JUMP JUMPDEST SWAP2 POP PUSH2 0x668 DUP4 PUSH2 0x432 JUMP JUMPDEST SWAP3 POP DUP3 PUSH2 0x678 JUMPI PUSH2 0x677 PUSH2 0x626 JUMP JUMPDEST JUMPDEST DUP3 DUP3 DIV SWAP1 POP SWAP3 SWAP2 POP POP JUMP JUMPDEST PUSH0 PUSH10 0xFFFFFFFFFFFFFFFFFFFF DUP3 AND SWAP1 POP SWAP2 SWAP1 POP JUMP JUMPDEST PUSH2 0x6A1 DUP2 PUSH2 0x683 JUMP JUMPDEST DUP2 EQ PUSH2 0x6AB JUMPI PUSH0 DUP1 REVERT JUMPDEST POP JUMP JUMPDEST PUSH0 DUP2 MLOAD SWAP1 POP PUSH2 0x6BC DUP2 PUSH2 0x698 JUMP JUMPDEST SWAP3 SWAP2 POP POP JUMP JUMPDEST PUSH0 DUP2 SWAP1 POP SWAP2 SWAP1 POP JUMP JUMPDEST PUSH2 0x6D4 DUP2 PUSH2 0x6C2 JUMP JUMPDEST DUP2 EQ PUSH2 0x6DE JUMPI PUSH0 DUP1 REVERT JUMPDEST POP JUMP JUMPDEST PUSH0 DUP2 MLOAD SWAP1 POP PUSH2 0x6EF DUP2 PUSH2 0x6CB JUMP JUMPDEST SWAP3 SWAP2 POP POP JUMP JUMPDEST PUSH0 DUP2 MLOAD SWAP1 POP PUSH2 0x703 DUP2 PUSH2 0x463 JUMP JUMPDEST SWAP3 SWAP2 POP POP JUMP JUMPDEST PUSH0 DUP1 PUSH0 DUP1 PUSH0 PUSH1 0xA0 DUP7 DUP9 SUB SLT ISZERO PUSH2 0x722 JUMPI PUSH2 0x721 PUSH2 0x3A9 JUMP JUMPDEST JUMPDEST PUSH0 PUSH2 0x72F DUP9 DUP3 DUP10 ADD PUSH2 0x6AE JUMP JUMPDEST SWAP6 POP POP PUSH1 0x20 PUSH2 0x740 DUP9 DUP3 DUP10 ADD PUSH2 0x6E1 JUMP JUMPDEST SWAP5 POP POP PUSH1 0x40 PUSH2 0x751 DUP9 DUP3 DUP10 ADD PUSH2 0x6F5 JUMP JUMPDEST SWAP4 POP POP PUSH1 0x60 PUSH2 0x762 DUP9 DUP3 DUP10 ADD PUSH2 0x6F5 JUMP JUMPDEST SWAP3 POP POP PUSH1 0x80 PUSH2 0x773 DUP9 DUP3 DUP10 ADD PUSH2 0x6AE JUMP JUMPDEST SWAP2 POP POP SWAP3 SWAP6 POP SWAP3 SWAP6 SWAP1 SWAP4 POP JUMP JUMPDEST PUSH0 PUSH2 0x78A DUP3 PUSH2 0x6C2 JUMP JUMPDEST SWAP2 POP PUSH2 0x795 DUP4 PUSH2 0x6C2 JUMP JUMPDEST SWAP3 POP DUP3 DUP3 MUL PUSH2 0x7A3 DUP2 PUSH2 0x6C2 JUMP JUMPDEST SWAP2 POP PUSH32 0x8000000000000000000000000000000000000000000000000000000000000000 DUP5 EQ PUSH0 DUP5 SLT AND ISZERO PUSH2 0x7DA JUMPI PUSH2 0x7D9 PUSH2 0x585 JUMP JUMPDEST JUMPDEST DUP3 DUP3 SDIV DUP5 EQ DUP4 ISZERO OR PUSH2 0x7EF JUMPI PUSH2 0x7EE PUSH2 0x585 JUMP JUMPDEST JUMPDEST POP SWAP3 SWAP2 POP POP JUMP INVALID LOG2 PUSH5 0x6970667358 0x22 SLT KECCAK256 0xC3 SWAP8 0xA6 0x25 MLOAD PUSH18 0x6FD285C4A48E48DEF6920ADA1FF4611CD020 0x2D 0xE5 CALLCODE 0x26 0xDE PUSH31 0x980B64736F6C634300081A0033000000000000000000000000000000000000 "
				},
				"gasEstimates": {
					"creation": {
						"codeDepositCost": "418400",
						"executionCost": "22558",
						"totalCost": "440958"
					},
					"external": {
						"addressToAmountFunded(address)": "2780",
						"fund()": "infinite",
						"funders(uint256)": "4988",
						"wuthdraw()": "infinite"
					}
				},
				"methodIdentifiers": {
					"addressToAmountFunded(address)": "3e47d6f3",
					"fund()": "b60d4288",
					"funders(uint256)": "dc0d3dff",
					"wuthdraw()": "b07d5526"
				}
			},
			"storageLayout": {
				"storage": [
					{
						"astId": 55,
						"contract": "contracts/FundMe.sol:FundMe",
						"label": "minFundAmountUSD",
						"offset": 0,
						"slot": "0",
						"type": "t_uint256"
					},
					{
						"astId": 58,
						"contract": "contracts/FundMe.sol:FundMe",
						"label": "funders",
						"offset": 0,
						"slot": "1",
						"type": "t_array(t_address)dyn_storage"
					},
					{
						"astId": 62,
						"contract": "contracts/FundMe.sol:FundMe",
						"label": "addressToAmountFunded",
						"offset": 0,
						"slot": "2",
						"type": "t_mapping(t_address,t_uint256)"
					}
				],
				"types": {
					"t_address": {
						"encoding": "inplace",
						"label": "address",
						"numberOfBytes": "20"
					},
					"t_array(t_address)dyn_storage": {
						"base": "t_address",
						"encoding": "dynamic_array",
						"label": "address[]",
						"numberOfBytes": "32"
					},
					"t_mapping(t_address,t_uint256)": {
						"encoding": "mapping",
						"key": "t_address",
						"label": "mapping(address => uint256)",
						"numberOfBytes": "32",
						"value": "t_uint256"
					},
					"t_uint256": {
						"encoding": "inplace",
						"label": "uint256",
						"numberOfBytes": "32"
					}
				}
			},
			"userdoc": {
				"kind": "user",
				"methods": {},
				"version": 1
			}
		}
	}
}