{
	"contracts/FundMe.sol": {
		"FundMe": {
			"abi": [
				{
					"inputs": [
						{
							"internalType": "address",
							"name": "fuuder",
							"type": "address"
						}
					],
					"name": "addressToAmountFunded",
					"outputs": [
						{
							"internalType": "uint256",
							"name": "amountFunded",
							"type": "uint256"
						}
					],
					"stateMutability": "view",
					"type": "function"
				},
				{
					"inputs": [],
					"name": "fund",
					"outputs": [],
					"stateMutability": "payable",
					"type": "function"
				},
				{
					"inputs": [
						{
							"internalType": "uint256",
							"name": "",
							"type": "uint256"
						}
					],
					"name": "funders",
					"outputs": [
						{
							"internalType": "address",
							"name": "",
							"type": "address"
						}
					],
					"stateMutability": "view",
					"type": "function"
				}
			],
			"devdoc": {
				"kind": "dev",
				"methods": {},
				"version": 1
			},
			"evm": {
				"assembly": "    /* \"contracts/FundMe.sol\":123:670  contract FundMe{... */\n  mstore(0x40, 0x80)\n    /* \"contracts/FundMe.sol\":209:210  5 */\n  0x05\n    /* \"contracts/FundMe.sol\":182:210  uint256 minFundAmountUSD = 5 */\n  0x00\n  sstore\n    /* \"contracts/FundMe.sol\":123:670  contract FundMe{... */\n  callvalue\n  dup1\n  iszero\n  tag_1\n  jumpi\n  0x00\n  dup1\n  revert\ntag_1:\n  pop\n  dataSize(sub_0)\n  dup1\n  dataOffset(sub_0)\n  0x00\n  codecopy\n  0x00\n  return\nstop\n\nsub_0: assembly {\n        /* \"contracts/FundMe.sol\":123:670  contract FundMe{... */\n      mstore(0x40, 0x80)\n      jumpi(tag_1, lt(calldatasize, 0x04))\n      shr(0xe0, calldataload(0x00))\n      dup1\n      0x3e47d6f3\n      eq\n      tag_2\n      jumpi\n      dup1\n      0xb60d4288\n      eq\n      tag_3\n      jumpi\n      dup1\n      0xdc0d3dff\n      eq\n      tag_4\n      jumpi\n    tag_1:\n      0x00\n      dup1\n      revert\n        /* \"contracts/FundMe.sol\":319:395  mapping(address fuuder => uint256 amountFunded) public addressToAmountFunded */\n    tag_2:\n      callvalue\n      dup1\n      iszero\n      tag_5\n      jumpi\n      0x00\n      dup1\n      revert\n    tag_5:\n      pop\n      tag_6\n      0x04\n      dup1\n      calldatasize\n      sub\n      dup2\n      add\n      swap1\n      tag_7\n      swap2\n      swap1\n      tag_8\n      jump\t// in\n    tag_7:\n      tag_9\n      jump\t// in\n    tag_6:\n      mload(0x40)\n      tag_10\n      swap2\n      swap1\n      tag_11\n      jump\t// in\n    tag_10:\n      mload(0x40)\n      dup1\n      swap2\n      sub\n      swap1\n      return\n        /* \"contracts/FundMe.sol\":407:666  function fund()  payable public{... */\n    tag_3:\n      tag_12\n      tag_13\n      jump\t// in\n    tag_12:\n      stop\n        /* \"contracts/FundMe.sol\":244:268  address[] public funders */\n    tag_4:\n      callvalue\n      dup1\n      iszero\n      tag_14\n      jumpi\n      0x00\n      dup1\n      revert\n    tag_14:\n      pop\n      tag_15\n      0x04\n      dup1\n      calldatasize\n      sub\n      dup2\n      add\n      swap1\n      tag_16\n      swap2\n      swap1\n      tag_17\n      jump\t// in\n    tag_16:\n      tag_18\n      jump\t// in\n    tag_15:\n      mload(0x40)\n      tag_19\n      swap2\n      swap1\n      tag_20\n      jump\t// in\n    tag_19:\n      mload(0x40)\n      dup1\n      swap2\n      sub\n      swap1\n      return\n        /* \"contracts/FundMe.sol\":319:395  mapping(address fuuder => uint256 amountFunded) public addressToAmountFunded */\n    tag_9:\n      mstore(0x20, 0x02)\n      dup1\n      0x00\n      mstore\n      keccak256(0x00, 0x40)\n      0x00\n      swap2\n      pop\n      swap1\n      pop\n      sload\n      dup2\n      jump\t// out\n        /* \"contracts/FundMe.sol\":407:666  function fund()  payable public{... */\n    tag_13:\n        /* \"contracts/FundMe.sol\":487:503  minFundAmountUSD */\n      sload(0x00)\n        /* \"contracts/FundMe.sol\":456:483  msg.value.getEthToUSDRate() */\n      tag_22\n        /* \"contracts/FundMe.sol\":456:465  msg.value */\n      callvalue\n        /* \"contracts/FundMe.sol\":456:481  msg.value.getEthToUSDRate */\n      tag_23\n        /* \"contracts/FundMe.sol\":456:483  msg.value.getEthToUSDRate() */\n      jump\t// in\n    tag_22:\n        /* \"contracts/FundMe.sol\":456:503  msg.value.getEthToUSDRate() >= minFundAmountUSD */\n      lt\n      iszero\n        /* \"contracts/FundMe.sol\":448:533  require(msg.value.getEthToUSDRate() >= minFundAmountUSD, \"Minimum required is 5 USD\") */\n      tag_24\n      jumpi\n      mload(0x40)\n      0x08c379a000000000000000000000000000000000000000000000000000000000\n      dup2\n      mstore\n      0x04\n      add\n      tag_25\n      swap1\n      tag_26\n      jump\t// in\n    tag_25:\n      mload(0x40)\n      dup1\n      swap2\n      sub\n      swap1\n      revert\n    tag_24:\n        /* \"contracts/FundMe.sol\":543:550  funders */\n      0x01\n        /* \"contracts/FundMe.sol\":556:566  msg.sender */\n      caller\n        /* \"contracts/FundMe.sol\":543:567  funders.push(msg.sender) */\n      swap1\n      dup1\n      0x01\n      dup2\n      sload\n      add\n      dup1\n      dup3\n      sstore\n      dup1\n      swap2\n      pop\n      pop\n      0x01\n      swap1\n      sub\n      swap1\n      0x00\n      mstore\n      keccak256(0x00, 0x20)\n      add\n      0x00\n      swap1\n      swap2\n      swap1\n      swap2\n      swap1\n      swap2\n      0x0100\n      exp\n      dup2\n      sload\n      dup2\n      0xffffffffffffffffffffffffffffffffffffffff\n      mul\n      not\n      and\n      swap1\n      dup4\n      0xffffffffffffffffffffffffffffffffffffffff\n      and\n      mul\n      or\n      swap1\n      sstore\n      pop\n        /* \"contracts/FundMe.sol\":649:658  msg.value */\n      callvalue\n        /* \"contracts/FundMe.sol\":613:634  addressToAmountFunded */\n      0x02\n        /* \"contracts/FundMe.sol\":613:646  addressToAmountFunded[msg.sender] */\n      0x00\n        /* \"contracts/FundMe.sol\":635:645  msg.sender */\n      caller\n        /* \"contracts/FundMe.sol\":613:646  addressToAmountFunded[msg.sender] */\n      0xffffffffffffffffffffffffffffffffffffffff\n      and\n      0xffffffffffffffffffffffffffffffffffffffff\n      and\n      dup2\n      mstore\n      0x20\n      add\n      swap1\n      dup2\n      mstore\n      0x20\n      add\n      0x00\n      keccak256\n      sload\n        /* \"contracts/FundMe.sol\":613:658  addressToAmountFunded[msg.sender] + msg.value */\n      tag_28\n      swap2\n      swap1\n      tag_29\n      jump\t// in\n    tag_28:\n        /* \"contracts/FundMe.sol\":577:598  addressToAmountFunded */\n      0x02\n        /* \"contracts/FundMe.sol\":577:610  addressToAmountFunded[msg.sender] */\n      0x00\n        /* \"contracts/FundMe.sol\":599:609  msg.sender */\n      caller\n        /* \"contracts/FundMe.sol\":577:610  addressToAmountFunded[msg.sender] */\n      0xffffffffffffffffffffffffffffffffffffffff\n      and\n      0xffffffffffffffffffffffffffffffffffffffff\n      and\n      dup2\n      mstore\n      0x20\n      add\n      swap1\n      dup2\n      mstore\n      0x20\n      add\n      0x00\n      keccak256\n        /* \"contracts/FundMe.sol\":577:658  addressToAmountFunded[msg.sender] = addressToAmountFunded[msg.sender] + msg.value */\n      dup2\n      swap1\n      sstore\n      pop\n        /* \"contracts/FundMe.sol\":407:666  function fund()  payable public{... */\n      jump\t// out\n        /* \"contracts/FundMe.sol\":244:268  address[] public funders */\n    tag_18:\n      0x01\n      dup2\n      dup2\n      sload\n      dup2\n      lt\n      tag_30\n      jumpi\n      0x00\n      dup1\n      revert\n    tag_30:\n      swap1\n      0x00\n      mstore\n      keccak256(0x00, 0x20)\n      add\n      0x00\n      swap2\n      pop\n      sload\n      swap1\n      0x0100\n      exp\n      swap1\n      div\n      0xffffffffffffffffffffffffffffffffffffffff\n      and\n      dup2\n      jump\t// out\n        /* \"libraries/PriceConverter.sol\":717:936  function getEthToUSDRate(uint256 ethAmount) internal view returns(uint256){... */\n    tag_23:\n        /* \"libraries/PriceConverter.sol\":783:790  uint256 */\n      0x00\n        /* \"libraries/PriceConverter.sol\":804:820  uint256 ethPrice */\n      dup1\n        /* \"libraries/PriceConverter.sol\":824:837  getETHPrice() */\n      tag_33\n        /* \"libraries/PriceConverter.sol\":824:835  getETHPrice */\n      tag_34\n        /* \"libraries/PriceConverter.sol\":824:837  getETHPrice() */\n      jump\t// in\n    tag_33:\n        /* \"libraries/PriceConverter.sol\":804:837  uint256 ethPrice  = getETHPrice() */\n      swap1\n      pop\n        /* \"libraries/PriceConverter.sol\":848:864  uint256 ethToUSD */\n      0x00\n        /* \"libraries/PriceConverter.sol\":892:896  1e18 */\n      0x0de0b6b3a7640000\n        /* \"libraries/PriceConverter.sol\":879:888  ethAmount */\n      dup5\n        /* \"libraries/PriceConverter.sol\":868:876  ethPrice */\n      dup4\n        /* \"libraries/PriceConverter.sol\":868:888  ethPrice * ethAmount */\n      tag_35\n      swap2\n      swap1\n      tag_36\n      jump\t// in\n    tag_35:\n        /* \"libraries/PriceConverter.sol\":867:896  (ethPrice * ethAmount) / 1e18 */\n      tag_37\n      swap2\n      swap1\n      tag_38\n      jump\t// in\n    tag_37:\n        /* \"libraries/PriceConverter.sol\":848:896  uint256 ethToUSD = (ethPrice * ethAmount) / 1e18 */\n      swap1\n      pop\n        /* \"libraries/PriceConverter.sol\":914:922  ethToUSD */\n      dup1\n        /* \"libraries/PriceConverter.sol\":907:922  return ethToUSD */\n      swap3\n      pop\n      pop\n      pop\n        /* \"libraries/PriceConverter.sol\":717:936  function getEthToUSDRate(uint256 ethAmount) internal view returns(uint256){... */\n      swap2\n      swap1\n      pop\n      jump\t// out\n        /* \"libraries/PriceConverter.sol\":206:709  function getETHPrice() internal  view returns(uint256) {... */\n    tag_34:\n        /* \"libraries/PriceConverter.sol\":252:259  uint256 */\n      0x00\n        /* \"libraries/PriceConverter.sol\":351:377  AggregatorV3Interface temp */\n      dup1\n        /* \"libraries/PriceConverter.sol\":402:444  0x694AA1769357215DE4FAC081bf1f309aDC325306 */\n      0x694aa1769357215de4fac081bf1f309adc325306\n        /* \"libraries/PriceConverter.sol\":351:445  AggregatorV3Interface temp = AggregatorV3Interface(0x694AA1769357215DE4FAC081bf1f309aDC325306) */\n      swap1\n      pop\n        /* \"libraries/PriceConverter.sol\":506:515  int price */\n      0x00\n        /* \"libraries/PriceConverter.sol\":636:640  temp */\n      dup2\n        /* \"libraries/PriceConverter.sol\":636:656  temp.latestRoundData */\n      0xffffffffffffffffffffffffffffffffffffffff\n      and\n      0xfeaf968c\n        /* \"libraries/PriceConverter.sol\":636:658  temp.latestRoundData() */\n      mload(0x40)\n      dup2\n      0xffffffff\n      and\n      0xe0\n      shl\n      dup2\n      mstore\n      0x04\n      add\n      0xa0\n      mload(0x40)\n      dup1\n      dup4\n      sub\n      dup2\n      dup7\n      gas\n      staticcall\n      iszero\n      dup1\n      iszero\n      tag_41\n      jumpi\n      returndatasize\n      0x00\n      dup1\n      returndatacopy\n      revert(0x00, returndatasize)\n    tag_41:\n      pop\n      pop\n      pop\n      pop\n      mload(0x40)\n      returndatasize\n      not(0x1f)\n      0x1f\n      dup3\n      add\n      and\n      dup3\n      add\n      dup1\n      0x40\n      mstore\n      pop\n      dup2\n      add\n      swap1\n      tag_42\n      swap2\n      swap1\n      tag_43\n      jump\t// in\n    tag_42:\n        /* \"libraries/PriceConverter.sol\":456:658  (... */\n      pop\n      pop\n      pop\n      swap2\n      pop\n      pop\n        /* \"libraries/PriceConverter.sol\":694:698  1e10 */\n      0x02540be400\n        /* \"libraries/PriceConverter.sol\":687:692  price */\n      dup2\n        /* \"libraries/PriceConverter.sol\":687:698  price *1e10 */\n      tag_44\n      swap2\n      swap1\n      tag_45\n      jump\t// in\n    tag_44:\n        /* \"libraries/PriceConverter.sol\":672:699  return uint256(price *1e10) */\n      swap3\n      pop\n      pop\n      pop\n        /* \"libraries/PriceConverter.sol\":206:709  function getETHPrice() internal  view returns(uint256) {... */\n      swap1\n      jump\t// out\n        /* \"#utility.yul\":88:205   */\n    tag_47:\n        /* \"#utility.yul\":197:198   */\n      0x00\n        /* \"#utility.yul\":194:195   */\n      dup1\n        /* \"#utility.yul\":187:199   */\n      revert\n        /* \"#utility.yul\":334:460   */\n    tag_49:\n        /* \"#utility.yul\":371:378   */\n      0x00\n        /* \"#utility.yul\":411:453   */\n      0xffffffffffffffffffffffffffffffffffffffff\n        /* \"#utility.yul\":404:409   */\n      dup3\n        /* \"#utility.yul\":400:454   */\n      and\n        /* \"#utility.yul\":389:454   */\n      swap1\n      pop\n        /* \"#utility.yul\":334:460   */\n      swap2\n      swap1\n      pop\n      jump\t// out\n        /* \"#utility.yul\":466:562   */\n    tag_50:\n        /* \"#utility.yul\":503:510   */\n      0x00\n        /* \"#utility.yul\":532:556   */\n      tag_76\n        /* \"#utility.yul\":550:555   */\n      dup3\n        /* \"#utility.yul\":532:556   */\n      tag_49\n      jump\t// in\n    tag_76:\n        /* \"#utility.yul\":521:556   */\n      swap1\n      pop\n        /* \"#utility.yul\":466:562   */\n      swap2\n      swap1\n      pop\n      jump\t// out\n        /* \"#utility.yul\":568:690   */\n    tag_51:\n        /* \"#utility.yul\":641:665   */\n      tag_78\n        /* \"#utility.yul\":659:664   */\n      dup2\n        /* \"#utility.yul\":641:665   */\n      tag_50\n      jump\t// in\n    tag_78:\n        /* \"#utility.yul\":634:639   */\n      dup2\n        /* \"#utility.yul\":631:666   */\n      eq\n        /* \"#utility.yul\":621:684   */\n      tag_79\n      jumpi\n        /* \"#utility.yul\":680:681   */\n      0x00\n        /* \"#utility.yul\":677:678   */\n      dup1\n        /* \"#utility.yul\":670:682   */\n      revert\n        /* \"#utility.yul\":621:684   */\n    tag_79:\n        /* \"#utility.yul\":568:690   */\n      pop\n      jump\t// out\n        /* \"#utility.yul\":696:835   */\n    tag_52:\n        /* \"#utility.yul\":742:747   */\n      0x00\n        /* \"#utility.yul\":780:786   */\n      dup2\n        /* \"#utility.yul\":767:787   */\n      calldataload\n        /* \"#utility.yul\":758:787   */\n      swap1\n      pop\n        /* \"#utility.yul\":796:829   */\n      tag_81\n        /* \"#utility.yul\":823:828   */\n      dup2\n        /* \"#utility.yul\":796:829   */\n      tag_51\n      jump\t// in\n    tag_81:\n        /* \"#utility.yul\":696:835   */\n      swap3\n      swap2\n      pop\n      pop\n      jump\t// out\n        /* \"#utility.yul\":841:1170   */\n    tag_8:\n        /* \"#utility.yul\":900:906   */\n      0x00\n        /* \"#utility.yul\":949:951   */\n      0x20\n        /* \"#utility.yul\":937:946   */\n      dup3\n        /* \"#utility.yul\":928:935   */\n      dup5\n        /* \"#utility.yul\":924:947   */\n      sub\n        /* \"#utility.yul\":920:952   */\n      slt\n        /* \"#utility.yul\":917:1036   */\n      iszero\n      tag_83\n      jumpi\n        /* \"#utility.yul\":955:1034   */\n      tag_84\n      tag_47\n      jump\t// in\n    tag_84:\n        /* \"#utility.yul\":917:1036   */\n    tag_83:\n        /* \"#utility.yul\":1075:1076   */\n      0x00\n        /* \"#utility.yul\":1100:1153   */\n      tag_85\n        /* \"#utility.yul\":1145:1152   */\n      dup5\n        /* \"#utility.yul\":1136:1142   */\n      dup3\n        /* \"#utility.yul\":1125:1134   */\n      dup6\n        /* \"#utility.yul\":1121:1143   */\n      add\n        /* \"#utility.yul\":1100:1153   */\n      tag_52\n      jump\t// in\n    tag_85:\n        /* \"#utility.yul\":1090:1153   */\n      swap2\n      pop\n        /* \"#utility.yul\":1046:1163   */\n      pop\n        /* \"#utility.yul\":841:1170   */\n      swap3\n      swap2\n      pop\n      pop\n      jump\t// out\n        /* \"#utility.yul\":1176:1253   */\n    tag_53:\n        /* \"#utility.yul\":1213:1220   */\n      0x00\n        /* \"#utility.yul\":1242:1247   */\n      dup2\n        /* \"#utility.yul\":1231:1247   */\n      swap1\n      pop\n        /* \"#utility.yul\":1176:1253   */\n      swap2\n      swap1\n      pop\n      jump\t// out\n        /* \"#utility.yul\":1259:1377   */\n    tag_54:\n        /* \"#utility.yul\":1346:1370   */\n      tag_88\n        /* \"#utility.yul\":1364:1369   */\n      dup2\n        /* \"#utility.yul\":1346:1370   */\n      tag_53\n      jump\t// in\n    tag_88:\n        /* \"#utility.yul\":1341:1344   */\n      dup3\n        /* \"#utility.yul\":1334:1371   */\n      mstore\n        /* \"#utility.yul\":1259:1377   */\n      pop\n      pop\n      jump\t// out\n        /* \"#utility.yul\":1383:1605   */\n    tag_11:\n        /* \"#utility.yul\":1476:1480   */\n      0x00\n        /* \"#utility.yul\":1514:1516   */\n      0x20\n        /* \"#utility.yul\":1503:1512   */\n      dup3\n        /* \"#utility.yul\":1499:1517   */\n      add\n        /* \"#utility.yul\":1491:1517   */\n      swap1\n      pop\n        /* \"#utility.yul\":1527:1598   */\n      tag_90\n        /* \"#utility.yul\":1595:1596   */\n      0x00\n        /* \"#utility.yul\":1584:1593   */\n      dup4\n        /* \"#utility.yul\":1580:1597   */\n      add\n        /* \"#utility.yul\":1571:1577   */\n      dup5\n        /* \"#utility.yul\":1527:1598   */\n      tag_54\n      jump\t// in\n    tag_90:\n        /* \"#utility.yul\":1383:1605   */\n      swap3\n      swap2\n      pop\n      pop\n      jump\t// out\n        /* \"#utility.yul\":1611:1733   */\n    tag_55:\n        /* \"#utility.yul\":1684:1708   */\n      tag_92\n        /* \"#utility.yul\":1702:1707   */\n      dup2\n        /* \"#utility.yul\":1684:1708   */\n      tag_53\n      jump\t// in\n    tag_92:\n        /* \"#utility.yul\":1677:1682   */\n      dup2\n        /* \"#utility.yul\":1674:1709   */\n      eq\n        /* \"#utility.yul\":1664:1727   */\n      tag_93\n      jumpi\n        /* \"#utility.yul\":1723:1724   */\n      0x00\n        /* \"#utility.yul\":1720:1721   */\n      dup1\n        /* \"#utility.yul\":1713:1725   */\n      revert\n        /* \"#utility.yul\":1664:1727   */\n    tag_93:\n        /* \"#utility.yul\":1611:1733   */\n      pop\n      jump\t// out\n        /* \"#utility.yul\":1739:1878   */\n    tag_56:\n        /* \"#utility.yul\":1785:1790   */\n      0x00\n        /* \"#utility.yul\":1823:1829   */\n      dup2\n        /* \"#utility.yul\":1810:1830   */\n      calldataload\n        /* \"#utility.yul\":1801:1830   */\n      swap1\n      pop\n        /* \"#utility.yul\":1839:1872   */\n      tag_95\n        /* \"#utility.yul\":1866:1871   */\n      dup2\n        /* \"#utility.yul\":1839:1872   */\n      tag_55\n      jump\t// in\n    tag_95:\n        /* \"#utility.yul\":1739:1878   */\n      swap3\n      swap2\n      pop\n      pop\n      jump\t// out\n        /* \"#utility.yul\":1884:2213   */\n    tag_17:\n        /* \"#utility.yul\":1943:1949   */\n      0x00\n        /* \"#utility.yul\":1992:1994   */\n      0x20\n        /* \"#utility.yul\":1980:1989   */\n      dup3\n        /* \"#utility.yul\":1971:1978   */\n      dup5\n        /* \"#utility.yul\":1967:1990   */\n      sub\n        /* \"#utility.yul\":1963:1995   */\n      slt\n        /* \"#utility.yul\":1960:2079   */\n      iszero\n      tag_97\n      jumpi\n        /* \"#utility.yul\":1998:2077   */\n      tag_98\n      tag_47\n      jump\t// in\n    tag_98:\n        /* \"#utility.yul\":1960:2079   */\n    tag_97:\n        /* \"#utility.yul\":2118:2119   */\n      0x00\n        /* \"#utility.yul\":2143:2196   */\n      tag_99\n        /* \"#utility.yul\":2188:2195   */\n      dup5\n        /* \"#utility.yul\":2179:2185   */\n      dup3\n        /* \"#utility.yul\":2168:2177   */\n      dup6\n        /* \"#utility.yul\":2164:2186   */\n      add\n        /* \"#utility.yul\":2143:2196   */\n      tag_56\n      jump\t// in\n    tag_99:\n        /* \"#utility.yul\":2133:2196   */\n      swap2\n      pop\n        /* \"#utility.yul\":2089:2206   */\n      pop\n        /* \"#utility.yul\":1884:2213   */\n      swap3\n      swap2\n      pop\n      pop\n      jump\t// out\n        /* \"#utility.yul\":2219:2337   */\n    tag_57:\n        /* \"#utility.yul\":2306:2330   */\n      tag_101\n        /* \"#utility.yul\":2324:2329   */\n      dup2\n        /* \"#utility.yul\":2306:2330   */\n      tag_50\n      jump\t// in\n    tag_101:\n        /* \"#utility.yul\":2301:2304   */\n      dup3\n        /* \"#utility.yul\":2294:2331   */\n      mstore\n        /* \"#utility.yul\":2219:2337   */\n      pop\n      pop\n      jump\t// out\n        /* \"#utility.yul\":2343:2565   */\n    tag_20:\n        /* \"#utility.yul\":2436:2440   */\n      0x00\n        /* \"#utility.yul\":2474:2476   */\n      0x20\n        /* \"#utility.yul\":2463:2472   */\n      dup3\n        /* \"#utility.yul\":2459:2477   */\n      add\n        /* \"#utility.yul\":2451:2477   */\n      swap1\n      pop\n        /* \"#utility.yul\":2487:2558   */\n      tag_103\n        /* \"#utility.yul\":2555:2556   */\n      0x00\n        /* \"#utility.yul\":2544:2553   */\n      dup4\n        /* \"#utility.yul\":2540:2557   */\n      add\n        /* \"#utility.yul\":2531:2537   */\n      dup5\n        /* \"#utility.yul\":2487:2558   */\n      tag_57\n      jump\t// in\n    tag_103:\n        /* \"#utility.yul\":2343:2565   */\n      swap3\n      swap2\n      pop\n      pop\n      jump\t// out\n        /* \"#utility.yul\":2571:2740   */\n    tag_58:\n        /* \"#utility.yul\":2655:2666   */\n      0x00\n        /* \"#utility.yul\":2689:2695   */\n      dup3\n        /* \"#utility.yul\":2684:2687   */\n      dup3\n        /* \"#utility.yul\":2677:2696   */\n      mstore\n        /* \"#utility.yul\":2729:2733   */\n      0x20\n        /* \"#utility.yul\":2724:2727   */\n      dup3\n        /* \"#utility.yul\":2720:2734   */\n      add\n        /* \"#utility.yul\":2705:2734   */\n      swap1\n      pop\n        /* \"#utility.yul\":2571:2740   */\n      swap3\n      swap2\n      pop\n      pop\n      jump\t// out\n        /* \"#utility.yul\":2746:2921   */\n    tag_59:\n        /* \"#utility.yul\":2886:2913   */\n      0x4d696e696d756d20726571756972656420697320352055534400000000000000\n        /* \"#utility.yul\":2882:2883   */\n      0x00\n        /* \"#utility.yul\":2874:2880   */\n      dup3\n        /* \"#utility.yul\":2870:2884   */\n      add\n        /* \"#utility.yul\":2863:2914   */\n      mstore\n        /* \"#utility.yul\":2746:2921   */\n      pop\n      jump\t// out\n        /* \"#utility.yul\":2927:3293   */\n    tag_60:\n        /* \"#utility.yul\":3069:3072   */\n      0x00\n        /* \"#utility.yul\":3090:3157   */\n      tag_107\n        /* \"#utility.yul\":3154:3156   */\n      0x19\n        /* \"#utility.yul\":3149:3152   */\n      dup4\n        /* \"#utility.yul\":3090:3157   */\n      tag_58\n      jump\t// in\n    tag_107:\n        /* \"#utility.yul\":3083:3157   */\n      swap2\n      pop\n        /* \"#utility.yul\":3166:3259   */\n      tag_108\n        /* \"#utility.yul\":3255:3258   */\n      dup3\n        /* \"#utility.yul\":3166:3259   */\n      tag_59\n      jump\t// in\n    tag_108:\n        /* \"#utility.yul\":3284:3286   */\n      0x20\n        /* \"#utility.yul\":3279:3282   */\n      dup3\n        /* \"#utility.yul\":3275:3287   */\n      add\n        /* \"#utility.yul\":3268:3287   */\n      swap1\n      pop\n        /* \"#utility.yul\":2927:3293   */\n      swap2\n      swap1\n      pop\n      jump\t// out\n        /* \"#utility.yul\":3299:3718   */\n    tag_26:\n        /* \"#utility.yul\":3465:3469   */\n      0x00\n        /* \"#utility.yul\":3503:3505   */\n      0x20\n        /* \"#utility.yul\":3492:3501   */\n      dup3\n        /* \"#utility.yul\":3488:3506   */\n      add\n        /* \"#utility.yul\":3480:3506   */\n      swap1\n      pop\n        /* \"#utility.yul\":3552:3561   */\n      dup2\n        /* \"#utility.yul\":3546:3550   */\n      dup2\n        /* \"#utility.yul\":3542:3562   */\n      sub\n        /* \"#utility.yul\":3538:3539   */\n      0x00\n        /* \"#utility.yul\":3527:3536   */\n      dup4\n        /* \"#utility.yul\":3523:3540   */\n      add\n        /* \"#utility.yul\":3516:3563   */\n      mstore\n        /* \"#utility.yul\":3580:3711   */\n      tag_110\n        /* \"#utility.yul\":3706:3710   */\n      dup2\n        /* \"#utility.yul\":3580:3711   */\n      tag_60\n      jump\t// in\n    tag_110:\n        /* \"#utility.yul\":3572:3711   */\n      swap1\n      pop\n        /* \"#utility.yul\":3299:3718   */\n      swap2\n      swap1\n      pop\n      jump\t// out\n        /* \"#utility.yul\":3724:3904   */\n    tag_61:\n        /* \"#utility.yul\":3772:3849   */\n      0x4e487b7100000000000000000000000000000000000000000000000000000000\n        /* \"#utility.yul\":3769:3770   */\n      0x00\n        /* \"#utility.yul\":3762:3850   */\n      mstore\n        /* \"#utility.yul\":3869:3873   */\n      0x11\n        /* \"#utility.yul\":3866:3867   */\n      0x04\n        /* \"#utility.yul\":3859:3874   */\n      mstore\n        /* \"#utility.yul\":3893:3897   */\n      0x24\n        /* \"#utility.yul\":3890:3891   */\n      0x00\n        /* \"#utility.yul\":3883:3898   */\n      revert\n        /* \"#utility.yul\":3910:4101   */\n    tag_29:\n        /* \"#utility.yul\":3950:3953   */\n      0x00\n        /* \"#utility.yul\":3969:3989   */\n      tag_113\n        /* \"#utility.yul\":3987:3988   */\n      dup3\n        /* \"#utility.yul\":3969:3989   */\n      tag_53\n      jump\t// in\n    tag_113:\n        /* \"#utility.yul\":3964:3989   */\n      swap2\n      pop\n        /* \"#utility.yul\":4003:4023   */\n      tag_114\n        /* \"#utility.yul\":4021:4022   */\n      dup4\n        /* \"#utility.yul\":4003:4023   */\n      tag_53\n      jump\t// in\n    tag_114:\n        /* \"#utility.yul\":3998:4023   */\n      swap3\n      pop\n        /* \"#utility.yul\":4046:4047   */\n      dup3\n        /* \"#utility.yul\":4043:4044   */\n      dup3\n        /* \"#utility.yul\":4039:4048   */\n      add\n        /* \"#utility.yul\":4032:4048   */\n      swap1\n      pop\n        /* \"#utility.yul\":4067:4070   */\n      dup1\n        /* \"#utility.yul\":4064:4065   */\n      dup3\n        /* \"#utility.yul\":4061:4071   */\n      gt\n        /* \"#utility.yul\":4058:4094   */\n      iszero\n      tag_115\n      jumpi\n        /* \"#utility.yul\":4074:4092   */\n      tag_116\n      tag_61\n      jump\t// in\n    tag_116:\n        /* \"#utility.yul\":4058:4094   */\n    tag_115:\n        /* \"#utility.yul\":3910:4101   */\n      swap3\n      swap2\n      pop\n      pop\n      jump\t// out\n        /* \"#utility.yul\":4107:4517   */\n    tag_36:\n        /* \"#utility.yul\":4147:4154   */\n      0x00\n        /* \"#utility.yul\":4170:4190   */\n      tag_118\n        /* \"#utility.yul\":4188:4189   */\n      dup3\n        /* \"#utility.yul\":4170:4190   */\n      tag_53\n      jump\t// in\n    tag_118:\n        /* \"#utility.yul\":4165:4190   */\n      swap2\n      pop\n        /* \"#utility.yul\":4204:4224   */\n      tag_119\n        /* \"#utility.yul\":4222:4223   */\n      dup4\n        /* \"#utility.yul\":4204:4224   */\n      tag_53\n      jump\t// in\n    tag_119:\n        /* \"#utility.yul\":4199:4224   */\n      swap3\n      pop\n        /* \"#utility.yul\":4259:4260   */\n      dup3\n        /* \"#utility.yul\":4256:4257   */\n      dup3\n        /* \"#utility.yul\":4252:4261   */\n      mul\n        /* \"#utility.yul\":4281:4311   */\n      tag_120\n        /* \"#utility.yul\":4299:4310   */\n      dup2\n        /* \"#utility.yul\":4281:4311   */\n      tag_53\n      jump\t// in\n    tag_120:\n        /* \"#utility.yul\":4270:4311   */\n      swap2\n      pop\n        /* \"#utility.yul\":4460:4461   */\n      dup3\n        /* \"#utility.yul\":4451:4458   */\n      dup3\n        /* \"#utility.yul\":4447:4462   */\n      div\n        /* \"#utility.yul\":4444:4445   */\n      dup5\n        /* \"#utility.yul\":4441:4463   */\n      eq\n        /* \"#utility.yul\":4421:4422   */\n      dup4\n        /* \"#utility.yul\":4414:4423   */\n      iszero\n        /* \"#utility.yul\":4394:4477   */\n      or\n        /* \"#utility.yul\":4371:4510   */\n      tag_121\n      jumpi\n        /* \"#utility.yul\":4490:4508   */\n      tag_122\n      tag_61\n      jump\t// in\n    tag_122:\n        /* \"#utility.yul\":4371:4510   */\n    tag_121:\n        /* \"#utility.yul\":4155:4517   */\n      pop\n        /* \"#utility.yul\":4107:4517   */\n      swap3\n      swap2\n      pop\n      pop\n      jump\t// out\n        /* \"#utility.yul\":4523:4703   */\n    tag_62:\n        /* \"#utility.yul\":4571:4648   */\n      0x4e487b7100000000000000000000000000000000000000000000000000000000\n        /* \"#utility.yul\":4568:4569   */\n      0x00\n        /* \"#utility.yul\":4561:4649   */\n      mstore\n        /* \"#utility.yul\":4668:4672   */\n      0x12\n        /* \"#utility.yul\":4665:4666   */\n      0x04\n        /* \"#utility.yul\":4658:4673   */\n      mstore\n        /* \"#utility.yul\":4692:4696   */\n      0x24\n        /* \"#utility.yul\":4689:4690   */\n      0x00\n        /* \"#utility.yul\":4682:4697   */\n      revert\n        /* \"#utility.yul\":4709:4894   */\n    tag_38:\n        /* \"#utility.yul\":4749:4750   */\n      0x00\n        /* \"#utility.yul\":4766:4786   */\n      tag_125\n        /* \"#utility.yul\":4784:4785   */\n      dup3\n        /* \"#utility.yul\":4766:4786   */\n      tag_53\n      jump\t// in\n    tag_125:\n        /* \"#utility.yul\":4761:4786   */\n      swap2\n      pop\n        /* \"#utility.yul\":4800:4820   */\n      tag_126\n        /* \"#utility.yul\":4818:4819   */\n      dup4\n        /* \"#utility.yul\":4800:4820   */\n      tag_53\n      jump\t// in\n    tag_126:\n        /* \"#utility.yul\":4795:4820   */\n      swap3\n      pop\n        /* \"#utility.yul\":4839:4840   */\n      dup3\n        /* \"#utility.yul\":4829:4864   */\n      tag_127\n      jumpi\n        /* \"#utility.yul\":4844:4862   */\n      tag_128\n      tag_62\n      jump\t// in\n    tag_128:\n        /* \"#utility.yul\":4829:4864   */\n    tag_127:\n        /* \"#utility.yul\":4886:4887   */\n      dup3\n        /* \"#utility.yul\":4883:4884   */\n      dup3\n        /* \"#utility.yul\":4879:4888   */\n      div\n        /* \"#utility.yul\":4874:4888   */\n      swap1\n      pop\n        /* \"#utility.yul\":4709:4894   */\n      swap3\n      swap2\n      pop\n      pop\n      jump\t// out\n        /* \"#utility.yul\":4900:5005   */\n    tag_63:\n        /* \"#utility.yul\":4936:4943   */\n      0x00\n        /* \"#utility.yul\":4976:4998   */\n      0xffffffffffffffffffff\n        /* \"#utility.yul\":4969:4974   */\n      dup3\n        /* \"#utility.yul\":4965:4999   */\n      and\n        /* \"#utility.yul\":4954:4999   */\n      swap1\n      pop\n        /* \"#utility.yul\":4900:5005   */\n      swap2\n      swap1\n      pop\n      jump\t// out\n        /* \"#utility.yul\":5011:5131   */\n    tag_64:\n        /* \"#utility.yul\":5083:5106   */\n      tag_131\n        /* \"#utility.yul\":5100:5105   */\n      dup2\n        /* \"#utility.yul\":5083:5106   */\n      tag_63\n      jump\t// in\n    tag_131:\n        /* \"#utility.yul\":5076:5081   */\n      dup2\n        /* \"#utility.yul\":5073:5107   */\n      eq\n        /* \"#utility.yul\":5063:5125   */\n      tag_132\n      jumpi\n        /* \"#utility.yul\":5121:5122   */\n      0x00\n        /* \"#utility.yul\":5118:5119   */\n      dup1\n        /* \"#utility.yul\":5111:5123   */\n      revert\n        /* \"#utility.yul\":5063:5125   */\n    tag_132:\n        /* \"#utility.yul\":5011:5131   */\n      pop\n      jump\t// out\n        /* \"#utility.yul\":5137:5278   */\n    tag_65:\n        /* \"#utility.yul\":5193:5198   */\n      0x00\n        /* \"#utility.yul\":5224:5230   */\n      dup2\n        /* \"#utility.yul\":5218:5231   */\n      mload\n        /* \"#utility.yul\":5209:5231   */\n      swap1\n      pop\n        /* \"#utility.yul\":5240:5272   */\n      tag_134\n        /* \"#utility.yul\":5266:5271   */\n      dup2\n        /* \"#utility.yul\":5240:5272   */\n      tag_64\n      jump\t// in\n    tag_134:\n        /* \"#utility.yul\":5137:5278   */\n      swap3\n      swap2\n      pop\n      pop\n      jump\t// out\n        /* \"#utility.yul\":5284:5360   */\n    tag_66:\n        /* \"#utility.yul\":5320:5327   */\n      0x00\n        /* \"#utility.yul\":5349:5354   */\n      dup2\n        /* \"#utility.yul\":5338:5354   */\n      swap1\n      pop\n        /* \"#utility.yul\":5284:5360   */\n      swap2\n      swap1\n      pop\n      jump\t// out\n        /* \"#utility.yul\":5366:5486   */\n    tag_67:\n        /* \"#utility.yul\":5438:5461   */\n      tag_137\n        /* \"#utility.yul\":5455:5460   */\n      dup2\n        /* \"#utility.yul\":5438:5461   */\n      tag_66\n      jump\t// in\n    tag_137:\n        /* \"#utility.yul\":5431:5436   */\n      dup2\n        /* \"#utility.yul\":5428:5462   */\n      eq\n        /* \"#utility.yul\":5418:5480   */\n      tag_138\n      jumpi\n        /* \"#utility.yul\":5476:5477   */\n      0x00\n        /* \"#utility.yul\":5473:5474   */\n      dup1\n        /* \"#utility.yul\":5466:5478   */\n      revert\n        /* \"#utility.yul\":5418:5480   */\n    tag_138:\n        /* \"#utility.yul\":5366:5486   */\n      pop\n      jump\t// out\n        /* \"#utility.yul\":5492:5633   */\n    tag_68:\n        /* \"#utility.yul\":5548:5553   */\n      0x00\n        /* \"#utility.yul\":5579:5585   */\n      dup2\n        /* \"#utility.yul\":5573:5586   */\n      mload\n        /* \"#utility.yul\":5564:5586   */\n      swap1\n      pop\n        /* \"#utility.yul\":5595:5627   */\n      tag_140\n        /* \"#utility.yul\":5621:5626   */\n      dup2\n        /* \"#utility.yul\":5595:5627   */\n      tag_67\n      jump\t// in\n    tag_140:\n        /* \"#utility.yul\":5492:5633   */\n      swap3\n      swap2\n      pop\n      pop\n      jump\t// out\n        /* \"#utility.yul\":5639:5782   */\n    tag_69:\n        /* \"#utility.yul\":5696:5701   */\n      0x00\n        /* \"#utility.yul\":5727:5733   */\n      dup2\n        /* \"#utility.yul\":5721:5734   */\n      mload\n        /* \"#utility.yul\":5712:5734   */\n      swap1\n      pop\n        /* \"#utility.yul\":5743:5776   */\n      tag_142\n        /* \"#utility.yul\":5770:5775   */\n      dup2\n        /* \"#utility.yul\":5743:5776   */\n      tag_55\n      jump\t// in\n    tag_142:\n        /* \"#utility.yul\":5639:5782   */\n      swap3\n      swap2\n      pop\n      pop\n      jump\t// out\n        /* \"#utility.yul\":5788:6759   */\n    tag_43:\n        /* \"#utility.yul\":5891:5897   */\n      0x00\n        /* \"#utility.yul\":5899:5905   */\n      dup1\n        /* \"#utility.yul\":5907:5913   */\n      0x00\n        /* \"#utility.yul\":5915:5921   */\n      dup1\n        /* \"#utility.yul\":5923:5929   */\n      0x00\n        /* \"#utility.yul\":5972:5975   */\n      0xa0\n        /* \"#utility.yul\":5960:5969   */\n      dup7\n        /* \"#utility.yul\":5951:5958   */\n      dup9\n        /* \"#utility.yul\":5947:5970   */\n      sub\n        /* \"#utility.yul\":5943:5976   */\n      slt\n        /* \"#utility.yul\":5940:6060   */\n      iszero\n      tag_144\n      jumpi\n        /* \"#utility.yul\":5979:6058   */\n      tag_145\n      tag_47\n      jump\t// in\n    tag_145:\n        /* \"#utility.yul\":5940:6060   */\n    tag_144:\n        /* \"#utility.yul\":6099:6100   */\n      0x00\n        /* \"#utility.yul\":6124:6187   */\n      tag_146\n        /* \"#utility.yul\":6179:6186   */\n      dup9\n        /* \"#utility.yul\":6170:6176   */\n      dup3\n        /* \"#utility.yul\":6159:6168   */\n      dup10\n        /* \"#utility.yul\":6155:6177   */\n      add\n        /* \"#utility.yul\":6124:6187   */\n      tag_65\n      jump\t// in\n    tag_146:\n        /* \"#utility.yul\":6114:6187   */\n      swap6\n      pop\n        /* \"#utility.yul\":6070:6197   */\n      pop\n        /* \"#utility.yul\":6236:6238   */\n      0x20\n        /* \"#utility.yul\":6262:6325   */\n      tag_147\n        /* \"#utility.yul\":6317:6324   */\n      dup9\n        /* \"#utility.yul\":6308:6314   */\n      dup3\n        /* \"#utility.yul\":6297:6306   */\n      dup10\n        /* \"#utility.yul\":6293:6315   */\n      add\n        /* \"#utility.yul\":6262:6325   */\n      tag_68\n      jump\t// in\n    tag_147:\n        /* \"#utility.yul\":6252:6325   */\n      swap5\n      pop\n        /* \"#utility.yul\":6207:6335   */\n      pop\n        /* \"#utility.yul\":6374:6376   */\n      0x40\n        /* \"#utility.yul\":6400:6464   */\n      tag_148\n        /* \"#utility.yul\":6456:6463   */\n      dup9\n        /* \"#utility.yul\":6447:6453   */\n      dup3\n        /* \"#utility.yul\":6436:6445   */\n      dup10\n        /* \"#utility.yul\":6432:6454   */\n      add\n        /* \"#utility.yul\":6400:6464   */\n      tag_69\n      jump\t// in\n    tag_148:\n        /* \"#utility.yul\":6390:6464   */\n      swap4\n      pop\n        /* \"#utility.yul\":6345:6474   */\n      pop\n        /* \"#utility.yul\":6513:6515   */\n      0x60\n        /* \"#utility.yul\":6539:6603   */\n      tag_149\n        /* \"#utility.yul\":6595:6602   */\n      dup9\n        /* \"#utility.yul\":6586:6592   */\n      dup3\n        /* \"#utility.yul\":6575:6584   */\n      dup10\n        /* \"#utility.yul\":6571:6593   */\n      add\n        /* \"#utility.yul\":6539:6603   */\n      tag_69\n      jump\t// in\n    tag_149:\n        /* \"#utility.yul\":6529:6603   */\n      swap3\n      pop\n        /* \"#utility.yul\":6484:6613   */\n      pop\n        /* \"#utility.yul\":6652:6655   */\n      0x80\n        /* \"#utility.yul\":6679:6742   */\n      tag_150\n        /* \"#utility.yul\":6734:6741   */\n      dup9\n        /* \"#utility.yul\":6725:6731   */\n      dup3\n        /* \"#utility.yul\":6714:6723   */\n      dup10\n        /* \"#utility.yul\":6710:6732   */\n      add\n        /* \"#utility.yul\":6679:6742   */\n      tag_65\n      jump\t// in\n    tag_150:\n        /* \"#utility.yul\":6669:6742   */\n      swap2\n      pop\n        /* \"#utility.yul\":6623:6752   */\n      pop\n        /* \"#utility.yul\":5788:6759   */\n      swap3\n      swap6\n      pop\n      swap3\n      swap6\n      swap1\n      swap4\n      pop\n      jump\t// out\n        /* \"#utility.yul\":6765:7321   */\n    tag_45:\n        /* \"#utility.yul\":6804:6811   */\n      0x00\n        /* \"#utility.yul\":6827:6846   */\n      tag_152\n        /* \"#utility.yul\":6844:6845   */\n      dup3\n        /* \"#utility.yul\":6827:6846   */\n      tag_66\n      jump\t// in\n    tag_152:\n        /* \"#utility.yul\":6822:6846   */\n      swap2\n      pop\n        /* \"#utility.yul\":6860:6879   */\n      tag_153\n        /* \"#utility.yul\":6877:6878   */\n      dup4\n        /* \"#utility.yul\":6860:6879   */\n      tag_66\n      jump\t// in\n    tag_153:\n        /* \"#utility.yul\":6855:6879   */\n      swap3\n      pop\n        /* \"#utility.yul\":6914:6915   */\n      dup3\n        /* \"#utility.yul\":6911:6912   */\n      dup3\n        /* \"#utility.yul\":6907:6916   */\n      mul\n        /* \"#utility.yul\":6936:6965   */\n      tag_154\n        /* \"#utility.yul\":6953:6964   */\n      dup2\n        /* \"#utility.yul\":6936:6965   */\n      tag_66\n      jump\t// in\n    tag_154:\n        /* \"#utility.yul\":6925:6965   */\n      swap2\n      pop\n        /* \"#utility.yul\":7023:7089   */\n      0x8000000000000000000000000000000000000000000000000000000000000000\n        /* \"#utility.yul\":7020:7021   */\n      dup5\n        /* \"#utility.yul\":7017:7090   */\n      eq\n        /* \"#utility.yul\":7013:7014   */\n      0x00\n        /* \"#utility.yul\":7010:7011   */\n      dup5\n        /* \"#utility.yul\":7006:7015   */\n      slt\n        /* \"#utility.yul\":7002:7091   */\n      and\n        /* \"#utility.yul\":6999:7114   */\n      iszero\n      tag_155\n      jumpi\n        /* \"#utility.yul\":7094:7112   */\n      tag_156\n      tag_61\n      jump\t// in\n    tag_156:\n        /* \"#utility.yul\":6999:7114   */\n    tag_155:\n        /* \"#utility.yul\":7264:7265   */\n      dup3\n        /* \"#utility.yul\":7255:7262   */\n      dup3\n        /* \"#utility.yul\":7250:7266   */\n      sdiv\n        /* \"#utility.yul\":7247:7248   */\n      dup5\n        /* \"#utility.yul\":7244:7267   */\n      eq\n        /* \"#utility.yul\":7224:7225   */\n      dup4\n        /* \"#utility.yul\":7217:7226   */\n      iszero\n        /* \"#utility.yul\":7197:7281   */\n      or\n        /* \"#utility.yul\":7174:7314   */\n      tag_157\n      jumpi\n        /* \"#utility.yul\":7294:7312   */\n      tag_158\n      tag_61\n      jump\t// in\n    tag_158:\n        /* \"#utility.yul\":7174:7314   */\n    tag_157:\n        /* \"#utility.yul\":6812:7321   */\n      pop\n        /* \"#utility.yul\":6765:7321   */\n      swap3\n      swap2\n      pop\n      pop\n      jump\t// out\n\n    auxdata: 0xa264697066735822122087d9d5d9e997e08138ffa513121c7fc475ff6c1ed11a91625818dd4fb6e59a0664736f6c634300081a0033\n}\n",
				"bytecode": {
					"linkReferences": {},
					"object": "608060405260055f553480156012575f80fd5b50610774806100205f395ff3fe608060405260043610610033575f3560e01c80633e47d6f314610037578063b60d428814610073578063dc0d3dff1461007d575b5f80fd5b348015610042575f80fd5b5061005d6004803603810190610058919061037c565b6100b9565b60405161006a91906103bf565b60405180910390f35b61007b6100ce565b005b348015610088575f80fd5b506100a3600480360381019061009e9190610402565b610206565b6040516100b0919061043c565b60405180910390f35b6002602052805f5260405f205f915090505481565b5f546100d934610241565b101561011a576040517f08c379a0000000000000000000000000000000000000000000000000000000008152600401610111906104af565b60405180910390fd5b600133908060018154018082558091505060019003905f5260205f20015f9091909190916101000a81548173ffffffffffffffffffffffffffffffffffffffff021916908373ffffffffffffffffffffffffffffffffffffffff1602179055503460025f3373ffffffffffffffffffffffffffffffffffffffff1673ffffffffffffffffffffffffffffffffffffffff1681526020019081526020015f20546101c391906104fa565b60025f3373ffffffffffffffffffffffffffffffffffffffff1673ffffffffffffffffffffffffffffffffffffffff1681526020019081526020015f2081905550565b60018181548110610215575f80fd5b905f5260205f20015f915054906101000a900473ffffffffffffffffffffffffffffffffffffffff1681565b5f8061024b610279565b90505f670de0b6b3a76400008483610263919061052d565b61026d919061059b565b90508092505050919050565b5f8073694aa1769357215de4fac081bf1f309adc32530690505f8173ffffffffffffffffffffffffffffffffffffffff1663feaf968c6040518163ffffffff1660e01b815260040160a060405180830381865afa1580156102dc573d5f803e3d5ffd5b505050506040513d601f19601f820116820180604052508101906103009190610651565b5050509150506402540be4008161031791906106c8565b9250505090565b5f80fd5b5f73ffffffffffffffffffffffffffffffffffffffff82169050919050565b5f61034b82610322565b9050919050565b61035b81610341565b8114610365575f80fd5b50565b5f8135905061037681610352565b92915050565b5f602082840312156103915761039061031e565b5b5f61039e84828501610368565b91505092915050565b5f819050919050565b6103b9816103a7565b82525050565b5f6020820190506103d25f8301846103b0565b92915050565b6103e1816103a7565b81146103eb575f80fd5b50565b5f813590506103fc816103d8565b92915050565b5f602082840312156104175761041661031e565b5b5f610424848285016103ee565b91505092915050565b61043681610341565b82525050565b5f60208201905061044f5f83018461042d565b92915050565b5f82825260208201905092915050565b7f4d696e696d756d207265717569726564206973203520555344000000000000005f82015250565b5f610499601983610455565b91506104a482610465565b602082019050919050565b5f6020820190508181035f8301526104c68161048d565b9050919050565b7f4e487b71000000000000000000000000000000000000000000000000000000005f52601160045260245ffd5b5f610504826103a7565b915061050f836103a7565b9250828201905080821115610527576105266104cd565b5b92915050565b5f610537826103a7565b9150610542836103a7565b9250828202610550816103a7565b91508282048414831517610567576105666104cd565b5b5092915050565b7f4e487b71000000000000000000000000000000000000000000000000000000005f52601260045260245ffd5b5f6105a5826103a7565b91506105b0836103a7565b9250826105c0576105bf61056e565b5b828204905092915050565b5f69ffffffffffffffffffff82169050919050565b6105e9816105cb565b81146105f3575f80fd5b50565b5f81519050610604816105e0565b92915050565b5f819050919050565b61061c8161060a565b8114610626575f80fd5b50565b5f8151905061063781610613565b92915050565b5f8151905061064b816103d8565b92915050565b5f805f805f60a0868803121561066a5761066961031e565b5b5f610677888289016105f6565b955050602061068888828901610629565b94505060406106998882890161063d565b93505060606106aa8882890161063d565b92505060806106bb888289016105f6565b9150509295509295909350565b5f6106d28261060a565b91506106dd8361060a565b92508282026106eb8161060a565b91507f800000000000000000000000000000000000000000000000000000000000000084145f84121615610722576107216104cd565b5b8282058414831517610737576107366104cd565b5b509291505056fea264697066735822122087d9d5d9e997e08138ffa513121c7fc475ff6c1ed11a91625818dd4fb6e59a0664736f6c634300081a0033",
					"opcodes": "PUSH1 0x80 PUSH1 0x40 MSTORE PUSH1 0x5 PUSH0 SSTORE CALLVALUE DUP1 ISZERO PUSH1 0x12 JUMPI PUSH0 DUP1 REVERT JUMPDEST POP PUSH2 0x774 DUP1 PUSH2 0x20 PUSH0 CODECOPY PUSH0 RETURN INVALID PUSH1 0x80 PUSH1 0x40 MSTORE PUSH1 0x4 CALLDATASIZE LT PUSH2 0x33 JUMPI PUSH0 CALLDATALOAD PUSH1 0xE0 SHR DUP1 PUSH4 0x3E47D6F3 EQ PUSH2 0x37 JUMPI DUP1 PUSH4 0xB60D4288 EQ PUSH2 0x73 JUMPI DUP1 PUSH4 0xDC0D3DFF EQ PUSH2 0x7D JUMPI JUMPDEST PUSH0 DUP1 REVERT JUMPDEST CALLVALUE DUP1 ISZERO PUSH2 0x42 JUMPI PUSH0 DUP1 REVERT JUMPDEST POP PUSH2 0x5D PUSH1 0x4 DUP1 CALLDATASIZE SUB DUP2 ADD SWAP1 PUSH2 0x58 SWAP2 SWAP1 PUSH2 0x37C JUMP JUMPDEST PUSH2 0xB9 JUMP JUMPDEST PUSH1 0x40 MLOAD PUSH2 0x6A SWAP2 SWAP1 PUSH2 0x3BF JUMP JUMPDEST PUSH1 0x40 MLOAD DUP1 SWAP2 SUB SWAP1 RETURN JUMPDEST PUSH2 0x7B PUSH2 0xCE JUMP JUMPDEST STOP JUMPDEST CALLVALUE DUP1 ISZERO PUSH2 0x88 JUMPI PUSH0 DUP1 REVERT JUMPDEST POP PUSH2 0xA3 PUSH1 0x4 DUP1 CALLDATASIZE SUB DUP2 ADD SWAP1 PUSH2 0x9E SWAP2 SWAP1 PUSH2 0x402 JUMP JUMPDEST PUSH2 0x206 JUMP JUMPDEST PUSH1 0x40 MLOAD PUSH2 0xB0 SWAP2 SWAP1 PUSH2 0x43C JUMP JUMPDEST PUSH1 0x40 MLOAD DUP1 SWAP2 SUB SWAP1 RETURN JUMPDEST PUSH1 0x2 PUSH1 0x20 MSTORE DUP1 PUSH0 MSTORE PUSH1 0x40 PUSH0 KECCAK256 PUSH0 SWAP2 POP SWAP1 POP SLOAD DUP2 JUMP JUMPDEST PUSH0 SLOAD PUSH2 0xD9 CALLVALUE PUSH2 0x241 JUMP JUMPDEST LT ISZERO PUSH2 0x11A JUMPI PUSH1 0x40 MLOAD PUSH32 0x8C379A000000000000000000000000000000000000000000000000000000000 DUP2 MSTORE PUSH1 0x4 ADD PUSH2 0x111 SWAP1 PUSH2 0x4AF JUMP JUMPDEST PUSH1 0x40 MLOAD DUP1 SWAP2 SUB SWAP1 REVERT JUMPDEST PUSH1 0x1 CALLER SWAP1 DUP1 PUSH1 0x1 DUP2 SLOAD ADD DUP1 DUP3 SSTORE DUP1 SWAP2 POP POP PUSH1 0x1 SWAP1 SUB SWAP1 PUSH0 MSTORE PUSH1 0x20 PUSH0 KECCAK256 ADD PUSH0 SWAP1 SWAP2 SWAP1 SWAP2 SWAP1 SWAP2 PUSH2 0x100 EXP DUP2 SLOAD DUP2 PUSH20 0xFFFFFFFFFFFFFFFFFFFFFFFFFFFFFFFFFFFFFFFF MUL NOT AND SWAP1 DUP4 PUSH20 0xFFFFFFFFFFFFFFFFFFFFFFFFFFFFFFFFFFFFFFFF AND MUL OR SWAP1 SSTORE POP CALLVALUE PUSH1 0x2 PUSH0 CALLER PUSH20 0xFFFFFFFFFFFFFFFFFFFFFFFFFFFFFFFFFFFFFFFF AND PUSH20 0xFFFFFFFFFFFFFFFFFFFFFFFFFFFFFFFFFFFFFFFF AND DUP2 MSTORE PUSH1 0x20 ADD SWAP1 DUP2 MSTORE PUSH1 0x20 ADD PUSH0 KECCAK256 SLOAD PUSH2 0x1C3 SWAP2 SWAP1 PUSH2 0x4FA JUMP JUMPDEST PUSH1 0x2 PUSH0 CALLER PUSH20 0xFFFFFFFFFFFFFFFFFFFFFFFFFFFFFFFFFFFFFFFF AND PUSH20 0xFFFFFFFFFFFFFFFFFFFFFFFFFFFFFFFFFFFFFFFF AND DUP2 MSTORE PUSH1 0x20 ADD SWAP1 DUP2 MSTORE PUSH1 0x20 ADD PUSH0 KECCAK256 DUP2 SWAP1 SSTORE POP JUMP JUMPDEST PUSH1 0x1 DUP2 DUP2 SLOAD DUP2 LT PUSH2 0x215 JUMPI PUSH0 DUP1 REVERT JUMPDEST SWAP1 PUSH0 MSTORE PUSH1 0x20 PUSH0 KECCAK256 ADD PUSH0 SWAP2 POP SLOAD SWAP1 PUSH2 0x100 EXP SWAP1 DIV PUSH20 0xFFFFFFFFFFFFFFFFFFFFFFFFFFFFFFFFFFFFFFFF AND DUP2 JUMP JUMPDEST PUSH0 DUP1 PUSH2 0x24B PUSH2 0x279 JUMP JUMPDEST SWAP1 POP PUSH0 PUSH8 0xDE0B6B3A7640000 DUP5 DUP4 PUSH2 0x263 SWAP2 SWAP1 PUSH2 0x52D JUMP JUMPDEST PUSH2 0x26D SWAP2 SWAP1 PUSH2 0x59B JUMP JUMPDEST SWAP1 POP DUP1 SWAP3 POP POP POP SWAP2 SWAP1 POP JUMP JUMPDEST PUSH0 DUP1 PUSH20 0x694AA1769357215DE4FAC081BF1F309ADC325306 SWAP1 POP PUSH0 DUP2 PUSH20 0xFFFFFFFFFFFFFFFFFFFFFFFFFFFFFFFFFFFFFFFF AND PUSH4 0xFEAF968C PUSH1 0x40 MLOAD DUP2 PUSH4 0xFFFFFFFF AND PUSH1 0xE0 SHL DUP2 MSTORE PUSH1 0x4 ADD PUSH1 0xA0 PUSH1 0x40 MLOAD DUP1 DUP4 SUB DUP2 DUP7 GAS STATICCALL ISZERO DUP1 ISZERO PUSH2 0x2DC JUMPI RETURNDATASIZE PUSH0 DUP1 RETURNDATACOPY RETURNDATASIZE PUSH0 REVERT JUMPDEST POP POP POP POP PUSH1 0x40 MLOAD RETURNDATASIZE PUSH1 0x1F NOT PUSH1 0x1F DUP3 ADD AND DUP3 ADD DUP1 PUSH1 0x40 MSTORE POP DUP2 ADD SWAP1 PUSH2 0x300 SWAP2 SWAP1 PUSH2 0x651 JUMP JUMPDEST POP POP POP SWAP2 POP POP PUSH5 0x2540BE400 DUP2 PUSH2 0x317 SWAP2 SWAP1 PUSH2 0x6C8 JUMP JUMPDEST SWAP3 POP POP POP SWAP1 JUMP JUMPDEST PUSH0 DUP1 REVERT JUMPDEST PUSH0 PUSH20 0xFFFFFFFFFFFFFFFFFFFFFFFFFFFFFFFFFFFFFFFF DUP3 AND SWAP1 POP SWAP2 SWAP1 POP JUMP JUMPDEST PUSH0 PUSH2 0x34B DUP3 PUSH2 0x322 JUMP JUMPDEST SWAP1 POP SWAP2 SWAP1 POP JUMP JUMPDEST PUSH2 0x35B DUP2 PUSH2 0x341 JUMP JUMPDEST DUP2 EQ PUSH2 0x365 JUMPI PUSH0 DUP1 REVERT JUMPDEST POP JUMP JUMPDEST PUSH0 DUP2 CALLDATALOAD SWAP1 POP PUSH2 0x376 DUP2 PUSH2 0x352 JUMP JUMPDEST SWAP3 SWAP2 POP POP JUMP JUMPDEST PUSH0 PUSH1 0x20 DUP3 DUP5 SUB SLT ISZERO PUSH2 0x391 JUMPI PUSH2 0x390 PUSH2 0x31E JUMP JUMPDEST JUMPDEST PUSH0 PUSH2 0x39E DUP5 DUP3 DUP6 ADD PUSH2 0x368 JUMP JUMPDEST SWAP2 POP POP SWAP3 SWAP2 POP POP JUMP JUMPDEST PUSH0 DUP2 SWAP1 POP SWAP2 SWAP1 POP JUMP JUMPDEST PUSH2 0x3B9 DUP2 PUSH2 0x3A7 JUMP JUMPDEST DUP3 MSTORE POP POP JUMP JUMPDEST PUSH0 PUSH1 0x20 DUP3 ADD SWAP1 POP PUSH2 0x3D2 PUSH0 DUP4 ADD DUP5 PUSH2 0x3B0 JUMP JUMPDEST SWAP3 SWAP2 POP POP JUMP JUMPDEST PUSH2 0x3E1 DUP2 PUSH2 0x3A7 JUMP JUMPDEST DUP2 EQ PUSH2 0x3EB JUMPI PUSH0 DUP1 REVERT JUMPDEST POP JUMP JUMPDEST PUSH0 DUP2 CALLDATALOAD SWAP1 POP PUSH2 0x3FC DUP2 PUSH2 0x3D8 JUMP JUMPDEST SWAP3 SWAP2 POP POP JUMP JUMPDEST PUSH0 PUSH1 0x20 DUP3 DUP5 SUB SLT ISZERO PUSH2 0x417 JUMPI PUSH2 0x416 PUSH2 0x31E JUMP JUMPDEST JUMPDEST PUSH0 PUSH2 0x424 DUP5 DUP3 DUP6 ADD PUSH2 0x3EE JUMP JUMPDEST SWAP2 POP POP SWAP3 SWAP2 POP POP JUMP JUMPDEST PUSH2 0x436 DUP2 PUSH2 0x341 JUMP JUMPDEST DUP3 MSTORE POP POP JUMP JUMPDEST PUSH0 PUSH1 0x20 DUP3 ADD SWAP1 POP PUSH2 0x44F PUSH0 DUP4 ADD DUP5 PUSH2 0x42D JUMP JUMPDEST SWAP3 SWAP2 POP POP JUMP JUMPDEST PUSH0 DUP3 DUP3 MSTORE PUSH1 0x20 DUP3 ADD SWAP1 POP SWAP3 SWAP2 POP POP JUMP JUMPDEST PUSH32 0x4D696E696D756D20726571756972656420697320352055534400000000000000 PUSH0 DUP3 ADD MSTORE POP JUMP JUMPDEST PUSH0 PUSH2 0x499 PUSH1 0x19 DUP4 PUSH2 0x455 JUMP JUMPDEST SWAP2 POP PUSH2 0x4A4 DUP3 PUSH2 0x465 JUMP JUMPDEST PUSH1 0x20 DUP3 ADD SWAP1 POP SWAP2 SWAP1 POP JUMP JUMPDEST PUSH0 PUSH1 0x20 DUP3 ADD SWAP1 POP DUP2 DUP2 SUB PUSH0 DUP4 ADD MSTORE PUSH2 0x4C6 DUP2 PUSH2 0x48D JUMP JUMPDEST SWAP1 POP SWAP2 SWAP1 POP JUMP JUMPDEST PUSH32 0x4E487B7100000000000000000000000000000000000000000000000000000000 PUSH0 MSTORE PUSH1 0x11 PUSH1 0x4 MSTORE PUSH1 0x24 PUSH0 REVERT JUMPDEST PUSH0 PUSH2 0x504 DUP3 PUSH2 0x3A7 JUMP JUMPDEST SWAP2 POP PUSH2 0x50F DUP4 PUSH2 0x3A7 JUMP JUMPDEST SWAP3 POP DUP3 DUP3 ADD SWAP1 POP DUP1 DUP3 GT ISZERO PUSH2 0x527 JUMPI PUSH2 0x526 PUSH2 0x4CD JUMP JUMPDEST JUMPDEST SWAP3 SWAP2 POP POP JUMP JUMPDEST PUSH0 PUSH2 0x537 DUP3 PUSH2 0x3A7 JUMP JUMPDEST SWAP2 POP PUSH2 0x542 DUP4 PUSH2 0x3A7 JUMP JUMPDEST SWAP3 POP DUP3 DUP3 MUL PUSH2 0x550 DUP2 PUSH2 0x3A7 JUMP JUMPDEST SWAP2 POP DUP3 DUP3 DIV DUP5 EQ DUP4 ISZERO OR PUSH2 0x567 JUMPI PUSH2 0x566 PUSH2 0x4CD JUMP JUMPDEST JUMPDEST POP SWAP3 SWAP2 POP POP JUMP JUMPDEST PUSH32 0x4E487B7100000000000000000000000000000000000000000000000000000000 PUSH0 MSTORE PUSH1 0x12 PUSH1 0x4 MSTORE PUSH1 0x24 PUSH0 REVERT JUMPDEST PUSH0 PUSH2 0x5A5 DUP3 PUSH2 0x3A7 JUMP JUMPDEST SWAP2 POP PUSH2 0x5B0 DUP4 PUSH2 0x3A7 JUMP JUMPDEST SWAP3 POP DUP3 PUSH2 0x5C0 JUMPI PUSH2 0x5BF PUSH2 0x56E JUMP JUMPDEST JUMPDEST DUP3 DUP3 DIV SWAP1 POP SWAP3 SWAP2 POP POP JUMP JUMPDEST PUSH0 PUSH10 0xFFFFFFFFFFFFFFFFFFFF DUP3 AND SWAP1 POP SWAP2 SWAP1 POP JUMP JUMPDEST PUSH2 0x5E9 DUP2 PUSH2 0x5CB JUMP JUMPDEST DUP2 EQ PUSH2 0x5F3 JUMPI PUSH0 DUP1 REVERT JUMPDEST POP JUMP JUMPDEST PUSH0 DUP2 MLOAD SWAP1 POP PUSH2 0x604 DUP2 PUSH2 0x5E0 JUMP JUMPDEST SWAP3 SWAP2 POP POP JUMP JUMPDEST PUSH0 DUP2 SWAP1 POP SWAP2 SWAP1 POP JUMP JUMPDEST PUSH2 0x61C DUP2 PUSH2 0x60A JUMP JUMPDEST DUP2 EQ PUSH2 0x626 JUMPI PUSH0 DUP1 REVERT JUMPDEST POP JUMP JUMPDEST PUSH0 DUP2 MLOAD SWAP1 POP PUSH2 0x637 DUP2 PUSH2 0x613 JUMP JUMPDEST SWAP3 SWAP2 POP POP JUMP JUMPDEST PUSH0 DUP2 MLOAD SWAP1 POP PUSH2 0x64B DUP2 PUSH2 0x3D8 JUMP JUMPDEST SWAP3 SWAP2 POP POP JUMP JUMPDEST PUSH0 DUP1 PUSH0 DUP1 PUSH0 PUSH1 0xA0 DUP7 DUP9 SUB SLT ISZERO PUSH2 0x66A JUMPI PUSH2 0x669 PUSH2 0x31E JUMP JUMPDEST JUMPDEST PUSH0 PUSH2 0x677 DUP9 DUP3 DUP10 ADD PUSH2 0x5F6 JUMP JUMPDEST SWAP6 POP POP PUSH1 0x20 PUSH2 0x688 DUP9 DUP3 DUP10 ADD PUSH2 0x629 JUMP JUMPDEST SWAP5 POP POP PUSH1 0x40 PUSH2 0x699 DUP9 DUP3 DUP10 ADD PUSH2 0x63D JUMP JUMPDEST SWAP4 POP POP PUSH1 0x60 PUSH2 0x6AA DUP9 DUP3 DUP10 ADD PUSH2 0x63D JUMP JUMPDEST SWAP3 POP POP PUSH1 0x80 PUSH2 0x6BB DUP9 DUP3 DUP10 ADD PUSH2 0x5F6 JUMP JUMPDEST SWAP2 POP POP SWAP3 SWAP6 POP SWAP3 SWAP6 SWAP1 SWAP4 POP JUMP JUMPDEST PUSH0 PUSH2 0x6D2 DUP3 PUSH2 0x60A JUMP JUMPDEST SWAP2 POP PUSH2 0x6DD DUP4 PUSH2 0x60A JUMP JUMPDEST SWAP3 POP DUP3 DUP3 MUL PUSH2 0x6EB DUP2 PUSH2 0x60A JUMP JUMPDEST SWAP2 POP PUSH32 0x8000000000000000000000000000000000000000000000000000000000000000 DUP5 EQ PUSH0 DUP5 SLT AND ISZERO PUSH2 0x722 JUMPI PUSH2 0x721 PUSH2 0x4CD JUMP JUMPDEST JUMPDEST DUP3 DUP3 SDIV DUP5 EQ DUP4 ISZERO OR PUSH2 0x737 JUMPI PUSH2 0x736 PUSH2 0x4CD JUMP JUMPDEST JUMPDEST POP SWAP3 SWAP2 POP POP JUMP INVALID LOG2 PUSH5 0x6970667358 0x22 SLT KECCAK256 DUP8 0xD9 0xD5 0xD9 0xE9 SWAP8 0xE0 DUP2 CODESIZE SELFDESTRUCT 0xA5 SGT SLT SHR PUSH32 0xC475FF6C1ED11A91625818DD4FB6E59A0664736F6C634300081A003300000000 "
				},
				"gasEstimates": {
					"creation": {
						"codeDepositCost": "381600",
						"executionCost": "22521",
						"totalCost": "404121"
					},
					"external": {
						"addressToAmountFunded(address)": "2780",
						"fund()": "infinite",
						"funders(uint256)": "4966"
					}
				},
				"methodIdentifiers": {
					"addressToAmountFunded(address)": "3e47d6f3",
					"fund()": "b60d4288",
					"funders(uint256)": "dc0d3dff"
				}
			},
			"storageLayout": {
				"storage": [
					{
						"astId": 55,
						"contract": "contracts/FundMe.sol:FundMe",
						"label": "minFundAmountUSD",
						"offset": 0,
						"slot": "0",
						"type": "t_uint256"
					},
					{
						"astId": 58,
						"contract": "contracts/FundMe.sol:FundMe",
						"label": "funders",
						"offset": 0,
						"slot": "1",
						"type": "t_array(t_address)dyn_storage"
					},
					{
						"astId": 62,
						"contract": "contracts/FundMe.sol:FundMe",
						"label": "addressToAmountFunded",
						"offset": 0,
						"slot": "2",
						"type": "t_mapping(t_address,t_uint256)"
					}
				],
				"types": {
					"t_address": {
						"encoding": "inplace",
						"label": "address",
						"numberOfBytes": "20"
					},
					"t_array(t_address)dyn_storage": {
						"base": "t_address",
						"encoding": "dynamic_array",
						"label": "address[]",
						"numberOfBytes": "32"
					},
					"t_mapping(t_address,t_uint256)": {
						"encoding": "mapping",
						"key": "t_address",
						"label": "mapping(address => uint256)",
						"numberOfBytes": "32",
						"value": "t_uint256"
					},
					"t_uint256": {
						"encoding": "inplace",
						"label": "uint256",
						"numberOfBytes": "32"
					}
				}
			},
			"userdoc": {
				"kind": "user",
				"methods": {},
				"version": 1
			}
		}
	}
}