{
	"data": {
		"bytecode": {
			"linkReferences": {},
			"object": "608060405260055f553480156012575f80fd5b50610499806100205f395ff3fe608060405260043610610033575f3560e01c8063720a894a14610037578063a607a8d914610073578063b60d42881461009d575b5f80fd5b348015610042575f80fd5b5061005d600480360381019061005891906101d2565b6100a7565b60405161006a919061020c565b60405180910390f35b34801561007e575f80fd5b506100876100df565b604051610094919061020c565b60405180910390f35b6100a5610184565b005b5f806100b16100df565b90505f670de0b6b3a764000084836100c99190610252565b6100d391906102c0565b90508092505050919050565b5f8073694aa1769357215de4fac081bf1f309adc32530690505f8173ffffffffffffffffffffffffffffffffffffffff1663feaf968c6040518163ffffffff1660e01b815260040160a060405180830381865afa158015610142573d5f803e3d5ffd5b505050506040513d601f19601f820116820180604052508101906101669190610376565b5050509150506402540be4008161017d91906103ed565b9250505090565b5f5461018f346100a7565b1015610199575f80fd5b565b5f80fd5b5f819050919050565b6101b18161019f565b81146101bb575f80fd5b50565b5f813590506101cc816101a8565b92915050565b5f602082840312156101e7576101e661019b565b5b5f6101f4848285016101be565b91505092915050565b6102068161019f565b82525050565b5f60208201905061021f5f8301846101fd565b92915050565b7f4e487b71000000000000000000000000000000000000000000000000000000005f52601160045260245ffd5b5f61025c8261019f565b91506102678361019f565b92508282026102758161019f565b9150828204841483151761028c5761028b610225565b5b5092915050565b7f4e487b71000000000000000000000000000000000000000000000000000000005f52601260045260245ffd5b5f6102ca8261019f565b91506102d58361019f565b9250826102e5576102e4610293565b5b828204905092915050565b5f69ffffffffffffffffffff82169050919050565b61030e816102f0565b8114610318575f80fd5b50565b5f8151905061032981610305565b92915050565b5f819050919050565b6103418161032f565b811461034b575f80fd5b50565b5f8151905061035c81610338565b92915050565b5f81519050610370816101a8565b92915050565b5f805f805f60a0868803121561038f5761038e61019b565b5b5f61039c8882890161031b565b95505060206103ad8882890161034e565b94505060406103be88828901610362565b93505060606103cf88828901610362565b92505060806103e08882890161031b565b9150509295509295909350565b5f6103f78261032f565b91506104028361032f565b92508282026104108161032f565b91507f800000000000000000000000000000000000000000000000000000000000000084145f8412161561044757610446610225565b5b828205841483151761045c5761045b610225565b5b509291505056fea2646970667358221220c6ff9786db14ec584a1fa47eabe31eed17a2e788e43373dc8df3ba328dfa5e8a64736f6c634300081a0033",
			"opcodes": "PUSH1 0x80 PUSH1 0x40 MSTORE PUSH1 0x5 PUSH0 SSTORE CALLVALUE DUP1 ISZERO PUSH1 0x12 JUMPI PUSH0 DUP1 REVERT JUMPDEST POP PUSH2 0x499 DUP1 PUSH2 0x20 PUSH0 CODECOPY PUSH0 RETURN INVALID PUSH1 0x80 PUSH1 0x40 MSTORE PUSH1 0x4 CALLDATASIZE LT PUSH2 0x33 JUMPI PUSH0 CALLDATALOAD PUSH1 0xE0 SHR DUP1 PUSH4 0x720A894A EQ PUSH2 0x37 JUMPI DUP1 PUSH4 0xA607A8D9 EQ PUSH2 0x73 JUMPI DUP1 PUSH4 0xB60D4288 EQ PUSH2 0x9D JUMPI JUMPDEST PUSH0 DUP1 REVERT JUMPDEST CALLVALUE DUP1 ISZERO PUSH2 0x42 JUMPI PUSH0 DUP1 REVERT JUMPDEST POP PUSH2 0x5D PUSH1 0x4 DUP1 CALLDATASIZE SUB DUP2 ADD SWAP1 PUSH2 0x58 SWAP2 SWAP1 PUSH2 0x1D2 JUMP JUMPDEST PUSH2 0xA7 JUMP JUMPDEST PUSH1 0x40 MLOAD PUSH2 0x6A SWAP2 SWAP1 PUSH2 0x20C JUMP JUMPDEST PUSH1 0x40 MLOAD DUP1 SWAP2 SUB SWAP1 RETURN JUMPDEST CALLVALUE DUP1 ISZERO PUSH2 0x7E JUMPI PUSH0 DUP1 REVERT JUMPDEST POP PUSH2 0x87 PUSH2 0xDF JUMP JUMPDEST PUSH1 0x40 MLOAD PUSH2 0x94 SWAP2 SWAP1 PUSH2 0x20C JUMP JUMPDEST PUSH1 0x40 MLOAD DUP1 SWAP2 SUB SWAP1 RETURN JUMPDEST PUSH2 0xA5 PUSH2 0x184 JUMP JUMPDEST STOP JUMPDEST PUSH0 DUP1 PUSH2 0xB1 PUSH2 0xDF JUMP JUMPDEST SWAP1 POP PUSH0 PUSH8 0xDE0B6B3A7640000 DUP5 DUP4 PUSH2 0xC9 SWAP2 SWAP1 PUSH2 0x252 JUMP JUMPDEST PUSH2 0xD3 SWAP2 SWAP1 PUSH2 0x2C0 JUMP JUMPDEST SWAP1 POP DUP1 SWAP3 POP POP POP SWAP2 SWAP1 POP JUMP JUMPDEST PUSH0 DUP1 PUSH20 0x694AA1769357215DE4FAC081BF1F309ADC325306 SWAP1 POP PUSH0 DUP2 PUSH20 0xFFFFFFFFFFFFFFFFFFFFFFFFFFFFFFFFFFFFFFFF AND PUSH4 0xFEAF968C PUSH1 0x40 MLOAD DUP2 PUSH4 0xFFFFFFFF AND PUSH1 0xE0 SHL DUP2 MSTORE PUSH1 0x4 ADD PUSH1 0xA0 PUSH1 0x40 MLOAD DUP1 DUP4 SUB DUP2 DUP7 GAS STATICCALL ISZERO DUP1 ISZERO PUSH2 0x142 JUMPI RETURNDATASIZE PUSH0 DUP1 RETURNDATACOPY RETURNDATASIZE PUSH0 REVERT JUMPDEST POP POP POP POP PUSH1 0x40 MLOAD RETURNDATASIZE PUSH1 0x1F NOT PUSH1 0x1F DUP3 ADD AND DUP3 ADD DUP1 PUSH1 0x40 MSTORE POP DUP2 ADD SWAP1 PUSH2 0x166 SWAP2 SWAP1 PUSH2 0x376 JUMP JUMPDEST POP POP POP SWAP2 POP POP PUSH5 0x2540BE400 DUP2 PUSH2 0x17D SWAP2 SWAP1 PUSH2 0x3ED JUMP JUMPDEST SWAP3 POP POP POP SWAP1 JUMP JUMPDEST PUSH0 SLOAD PUSH2 0x18F CALLVALUE PUSH2 0xA7 JUMP JUMPDEST LT ISZERO PUSH2 0x199 JUMPI PUSH0 DUP1 REVERT JUMPDEST JUMP JUMPDEST PUSH0 DUP1 REVERT JUMPDEST PUSH0 DUP2 SWAP1 POP SWAP2 SWAP1 POP JUMP JUMPDEST PUSH2 0x1B1 DUP2 PUSH2 0x19F JUMP JUMPDEST DUP2 EQ PUSH2 0x1BB JUMPI PUSH0 DUP1 REVERT JUMPDEST POP JUMP JUMPDEST PUSH0 DUP2 CALLDATALOAD SWAP1 POP PUSH2 0x1CC DUP2 PUSH2 0x1A8 JUMP JUMPDEST SWAP3 SWAP2 POP POP JUMP JUMPDEST PUSH0 PUSH1 0x20 DUP3 DUP5 SUB SLT ISZERO PUSH2 0x1E7 JUMPI PUSH2 0x1E6 PUSH2 0x19B JUMP JUMPDEST JUMPDEST PUSH0 PUSH2 0x1F4 DUP5 DUP3 DUP6 ADD PUSH2 0x1BE JUMP JUMPDEST SWAP2 POP POP SWAP3 SWAP2 POP POP JUMP JUMPDEST PUSH2 0x206 DUP2 PUSH2 0x19F JUMP JUMPDEST DUP3 MSTORE POP POP JUMP JUMPDEST PUSH0 PUSH1 0x20 DUP3 ADD SWAP1 POP PUSH2 0x21F PUSH0 DUP4 ADD DUP5 PUSH2 0x1FD JUMP JUMPDEST SWAP3 SWAP2 POP POP JUMP JUMPDEST PUSH32 0x4E487B7100000000000000000000000000000000000000000000000000000000 PUSH0 MSTORE PUSH1 0x11 PUSH1 0x4 MSTORE PUSH1 0x24 PUSH0 REVERT JUMPDEST PUSH0 PUSH2 0x25C DUP3 PUSH2 0x19F JUMP JUMPDEST SWAP2 POP PUSH2 0x267 DUP4 PUSH2 0x19F JUMP JUMPDEST SWAP3 POP DUP3 DUP3 MUL PUSH2 0x275 DUP2 PUSH2 0x19F JUMP JUMPDEST SWAP2 POP DUP3 DUP3 DIV DUP5 EQ DUP4 ISZERO OR PUSH2 0x28C JUMPI PUSH2 0x28B PUSH2 0x225 JUMP JUMPDEST JUMPDEST POP SWAP3 SWAP2 POP POP JUMP JUMPDEST PUSH32 0x4E487B7100000000000000000000000000000000000000000000000000000000 PUSH0 MSTORE PUSH1 0x12 PUSH1 0x4 MSTORE PUSH1 0x24 PUSH0 REVERT JUMPDEST PUSH0 PUSH2 0x2CA DUP3 PUSH2 0x19F JUMP JUMPDEST SWAP2 POP PUSH2 0x2D5 DUP4 PUSH2 0x19F JUMP JUMPDEST SWAP3 POP DUP3 PUSH2 0x2E5 JUMPI PUSH2 0x2E4 PUSH2 0x293 JUMP JUMPDEST JUMPDEST DUP3 DUP3 DIV SWAP1 POP SWAP3 SWAP2 POP POP JUMP JUMPDEST PUSH0 PUSH10 0xFFFFFFFFFFFFFFFFFFFF DUP3 AND SWAP1 POP SWAP2 SWAP1 POP JUMP JUMPDEST PUSH2 0x30E DUP2 PUSH2 0x2F0 JUMP JUMPDEST DUP2 EQ PUSH2 0x318 JUMPI PUSH0 DUP1 REVERT JUMPDEST POP JUMP JUMPDEST PUSH0 DUP2 MLOAD SWAP1 POP PUSH2 0x329 DUP2 PUSH2 0x305 JUMP JUMPDEST SWAP3 SWAP2 POP POP JUMP JUMPDEST PUSH0 DUP2 SWAP1 POP SWAP2 SWAP1 POP JUMP JUMPDEST PUSH2 0x341 DUP2 PUSH2 0x32F JUMP JUMPDEST DUP2 EQ PUSH2 0x34B JUMPI PUSH0 DUP1 REVERT JUMPDEST POP JUMP JUMPDEST PUSH0 DUP2 MLOAD SWAP1 POP PUSH2 0x35C DUP2 PUSH2 0x338 JUMP JUMPDEST SWAP3 SWAP2 POP POP JUMP JUMPDEST PUSH0 DUP2 MLOAD SWAP1 POP PUSH2 0x370 DUP2 PUSH2 0x1A8 JUMP JUMPDEST SWAP3 SWAP2 POP POP JUMP JUMPDEST PUSH0 DUP1 PUSH0 DUP1 PUSH0 PUSH1 0xA0 DUP7 DUP9 SUB SLT ISZERO PUSH2 0x38F JUMPI PUSH2 0x38E PUSH2 0x19B JUMP JUMPDEST JUMPDEST PUSH0 PUSH2 0x39C DUP9 DUP3 DUP10 ADD PUSH2 0x31B JUMP JUMPDEST SWAP6 POP POP PUSH1 0x20 PUSH2 0x3AD DUP9 DUP3 DUP10 ADD PUSH2 0x34E JUMP JUMPDEST SWAP5 POP POP PUSH1 0x40 PUSH2 0x3BE DUP9 DUP3 DUP10 ADD PUSH2 0x362 JUMP JUMPDEST SWAP4 POP POP PUSH1 0x60 PUSH2 0x3CF DUP9 DUP3 DUP10 ADD PUSH2 0x362 JUMP JUMPDEST SWAP3 POP POP PUSH1 0x80 PUSH2 0x3E0 DUP9 DUP3 DUP10 ADD PUSH2 0x31B JUMP JUMPDEST SWAP2 POP POP SWAP3 SWAP6 POP SWAP3 SWAP6 SWAP1 SWAP4 POP JUMP JUMPDEST PUSH0 PUSH2 0x3F7 DUP3 PUSH2 0x32F JUMP JUMPDEST SWAP2 POP PUSH2 0x402 DUP4 PUSH2 0x32F JUMP JUMPDEST SWAP3 POP DUP3 DUP3 MUL PUSH2 0x410 DUP2 PUSH2 0x32F JUMP JUMPDEST SWAP2 POP PUSH32 0x8000000000000000000000000000000000000000000000000000000000000000 DUP5 EQ PUSH0 DUP5 SLT AND ISZERO PUSH2 0x447 JUMPI PUSH2 0x446 PUSH2 0x225 JUMP JUMPDEST JUMPDEST DUP3 DUP3 SDIV DUP5 EQ DUP4 ISZERO OR PUSH2 0x45C JUMPI PUSH2 0x45B PUSH2 0x225 JUMP JUMPDEST JUMPDEST POP SWAP3 SWAP2 POP POP JUMP INVALID LOG2 PUSH5 0x6970667358 0x22 SLT KECCAK256 0xC6 SELFDESTRUCT SWAP8 DUP7 0xDB EQ 0xEC PC BLOBBASEFEE 0x1F LOG4 PUSH31 0xABE31EED17A2E788E43373DC8DF3BA328DFA5E8A64736F6C634300081A0033 "
		},
		"gasEstimates": {
			"creation": {
				"codeDepositCost": "235400",
				"executionCost": "22378",
				"totalCost": "257778"
			},
			"external": {
				"fund()": "infinite",
				"getETHPrice()": "infinite",
				"getEthToUSDRate(uint256)": "infinite"
			}
		},
		"methodIdentifiers": {
			"fund()": "b60d4288",
			"getETHPrice()": "a607a8d9",
			"getEthToUSDRate(uint256)": "720a894a"
		}
	},
	"abi": [
		{
			"inputs": [],
			"name": "fund",
			"outputs": [],
			"stateMutability": "payable",
			"type": "function"
		},
		{
			"inputs": [],
			"name": "getETHPrice",
			"outputs": [
				{
					"internalType": "uint256",
					"name": "",
					"type": "uint256"
				}
			],
			"stateMutability": "view",
			"type": "function"
		},
		{
			"inputs": [
				{
					"internalType": "uint256",
					"name": "ethAmount",
					"type": "uint256"
				}
			],
			"name": "getEthToUSDRate",
			"outputs": [
				{
					"internalType": "uint256",
					"name": "",
					"type": "uint256"
				}
			],
			"stateMutability": "view",
			"type": "function"
		}
	]
}